:020000040000FA
:06000000020A280201B310
:03002B0002087355
:0300330002068F33
:0300430002072889
:030053000200E4C4
:03006B0002067515
:100083000201480101FF01010503010F10FEFFB248
:1000930012B212B212B2126E116811B212931F0091
:1000A3000000005720000000000C0000000C0001BD
:1000B300FFFF0102007205000000E5056400020273
:1000C30000080000050207051E02051E020A0A03B6
:1000D300B80B02803E0102F1FF1496511800020290
:1000E30006C0E074F21203CCA2AFE433FED2AFE554
:1000F300A7FFE5A1F5085F54106006121A5675A113
:10010300EFE5085F54086008121A5C75A1F7802BAD
:10011300EFA2E0C0D0E508A2E092F012094F1581EA
:1001230082F05017906198E0F8900AC2E0C398A259
:10013300D265D0335002E8F075A1FEEEA2E092AF93
:100143007F0102042BC0E074F21203CCA2AFE433AC
:10015300FED2AF9061A4E0F8759B00E59158540876
:1001630060087591F7121AA4802AE591585410601B
:10017300087591EF121AAA801BE8A2E0C0D0E5919E
:10018300A2E092F012094F158182F05007E0C2E01D
:10019300F0121BEE9061A3E0F8E5E9585404600EF9
:1001A300121BC475E9FB906193E0A2E640F2808BD9
:1001B300C0E074F21203CCA2AFE433FED2AF90617D
:1001C300A5E0F8E5BF585404600675BFFB121C0692
:1001D30002013EC3E498F8E499F91202178026C39A
:1001E300E49AFAE49BFBE920E7E9120217E498F8A2
:1001F300E499F922C3E498F8E499F9120217E49810
:10020300F8E499F9C3E49AFAE49BFB22EB20E7CFE5
:10021300E920E7E0B90010BB0008E88AF084F8AAF7
:10022300F022E4FBC8FA22EB70227B10C833C8C962
:1002330033C9335007C39AC3DBF280069A50012AAD
:10024300DBEAC833F4C8C933F4C9FA2275F008E409
:10025300C833C8C933C933C99AC99B5004C92AC909
:100263003BD5F0ECFBC833F4C8E4C9FA220808080C
:10027300EAC0E0EBC0E086F0E7A4FA180986F0E7ED
:10028300A42AFA180986F0E7A42AFA180986F0E7DF
:10029300A42AFA1986F0E7A4FBE5F02AFA190886DE
:1002A300F0E7A42BFBE5F03AFA190886F0E7A42B54
:1002B300FBE5F03AFA18180986F0E7A4C5F02BFB22
:1002C300E43AFA1908E7C5F0C6A426F6E5F03BFBC5
:1002D300E43AFA1886F0E7A4F6E5F00826F6E43BDC
:1002E30008F6E43A08F6D0E0FBD0E0FA22E4CFC007
:1002F300E0E4CEC0E0E4CDC0E0E4CCC0E075F020A3
:10030300C3E633F608E633F608E633F608E633F6D3
:10031300181818EC33FCED33FDEE33FEEF33FFC357
:10032300EC9709ED9709EE9709EF97191919400F03
:10033300FFEC97FC09ED97FD09EE97FE191906D519
:10034300F0BEECF709EDF709EEF709EFF719191904
:10035300D0E0FCD0E0FDD0E0FED0E0FF222518C5C0
:1003630082C0E0E51934FFC583C0E0E518C3958278
:1003730024F810AF088583198582188008858319AE
:10038300858218D2AFCEF0A3E520F0A37808E60863
:10039300F0A3DEFAEFF0A3E58124FAF8E608F0A370
:1003A300E608F0A3E608F0A30808E608F0A3E608C9
:1003B300F0A315811581D0E0FED0E0F815811581F9
:1003C3001581E8C0E0EEC0E022C0D02518C582C088
:1003D300E0E51934FFC583C0E0E518C3958224F333
:1003E30010AF088583198582188008858319858253
:1003F30018D2AFC8F0A3E9F0A3EAF0A3EBF0A37916
:1004030008E709F0A3D8FAECF0A3EDF0A3EEF0A30C
:10041300EFF0A3D0E0F0A3D0E0F0A3D0E0F0A3E5A9
:1004230020F0A3E5F0F0A322851983851882E0C0AC
:10043300E0A3E0F9A3E0FAA3E0FBA37808E0F60861
:10044300A3DFFAE0FCA3E0FDA3E0FEA3E0FFA3E04B
:10045300C0E0A3E0C0E0A3E0F5D0A3E0F520A3E073
:10046300A3F5F010AF08858319858218800885836A
:1004730019858218D2AFD082D083D0E0F8D0E03291
:10048300120A8AB900030204C5E49003017889794A
:100493000E8002F0A3D8FCD9FA901089AA82AB830C
:1004A300900086785F79018015E493A3AC82AD83D5
:1004B3008A828B83F0A3AA82AB838C828D83D8E953
:1004C300D9E77582F87583E174031207EB75829A95
:1004D30075831E74001207EB0975F0108E1A8F1BBB
:1004E30085821F85831E851882851983E0CEA3E04C
:1004F300CF851F82851E83EBC9EAC8EDCBECCAC347
:10050300E833C8E933C9EA33CAEB33CBC3EA9EF510
:100513001DEB9FF51CB35004AB1CAA1DEC33CCEDB3
:1005230033CDD5F0DAAE1AAF1B22D083D082ECC024
:10053300E0EDC0E0E493A3FCE493A3FDED4C600D78
:10054300120605EC24FFFCED34FFFD80EFE493A3DA
:10055300FCE493A3FDED4C600D1206D3EC24FFFCE9
:10056300ED34FFFD80EFD0E0FDD0E0FCE493A3C0C9
:10057300E0E493C0E022851983851882E0A3FEE0BE
:10058300A3F5207808E0A3F608DFFAE0A3FFE0A3D1
:10059300C0E0E0A3C0E0E0A3C0E0E0A3C0E0E0A3CC
:1005A300C0E010AF088582188583198008858218FA
:1005B300858319D2AFD083D0820207F1D083D08252
:1005C300E9C0E0E493A3C386F0C5F095F0F908E42D
:1005D30093A386F0C5F095F0700BE493A3C3994001
:1005E30005E9048002A3E475F002A42582F582E5FF
:1005F300F03583F583D0E0F9E493A3C0E0E493C03E
:10060300E022C0E0C3E49396087401939618400F68
:10061300E49366700808740193661870007019A358
:10062300A3C3E49396087401939618A3A3400DD033
:10063300E0D0E0D0E0020569A3A3A3A3A3A3D0E085
:10064300227404800474028000CCC0E0EDC0E0E5B5
:1006530018C39CCCAD1950011D10AF068C188D1911
:1006630080068C188D19D2AF12076DD0E0FDD0E053
:10067300FC22C0E074F21203CCE589A2E15003121C
:100683001930758900C2C57F0102042BC0E074F2E2
:100693001203CCE58BA2E05003121930758B00C214
:1006A300E880E474028000CCC0E0EDC0E0E518C34C
:1006B3009CCCAD1950011D10AF068C188D19800606
:1006C3008C188D19D2AF12074BD0E0FDD0E0FC227D
:1006D300C0E0C0F088F0E493667008087401936684
:1006E300187000A8F0A3A3700BD0F0D0E0D0E0D036
:1006F300E0020569A3A3D0F0D0E022D083D082CC5E
:10070300C0E0E493A360061207AD1470FAE493A368
:1007130060061208BD1470FAD0E0FCE493A3C0E0B5
:10072300E493C0E022C0E074F21203CCA2AFE4333E
:10073300FED2AFC2C0E5D1A2E450031219CCEEA29F
:10074300E092AF7F0102042BCAC0E0E493A3C58209
:10075300CCC582C583CDC583F0A3C582CCC582C574
:1007630083CDC583DAE5D0E0CA22CAC0E0E0A3C5E1
:1007730082CCC582C583CDC583F0A3C582CCC58297
:10078300C583CDC583DAE6D0E0CA2270090808081C
:10079300226016181818C6C333C608C633C608C65F
:1007A30033C608C633C6D5E0EA22C0E0E493A3D338
:1007B3009C5010E493A3C39C400AD0E0D0E0D0E067
:1007C30002071BA3A3A3D0E022C008C3E096F50849
:1007D30008A3E096420808A3E096420808A3E0961F
:1007E30045087001D3D00822C09FF59FE473D09FC2
:1007F30022D083D082C09FE493C0E0740193C0E011
:10080300740293F59F222518F58210AF08F518405E
:100813000215198008F51840021519D2AF851983FE
:10082300227404800A74038006740280027401C077
:10083300E0F404120809D0E0120A6522C0D025189A
:1008430010AF08F518500205198008F51850020575
:1008530019D2AFD0D022BB0102E722C082C0838964
:10086300828A83BB0003E08002E493D083D0822298
:10087300C0E0C0D0E8C0E0E5A8D2AFC2C7A2E7920B
:10088300AFD0E0F8D0D0D0E0326016080808C6C375
:1008930013C618C613C618C613C618C613C6D5E0A2
:1008A300EA22C3E0C696F608A3E0C696F608A3E0DC
:1008B300C696F608A3E0C696F622C0E0E493A36CBE
:1008C3007009D0E0D0E0D0E002071BA3A3D0E02260
:1008D300251810AF08F518400215198008F51840BF
:1008E300021519D2AF22E76670100809E766700A8D
:1008F3000809E76670040809E76622E066701008D5
:10090300A3E066700A08A3E066700408A3E0662209
:10091300C3E09608A3E09608A3E09608A3E096A296
:10092300D265D03322C3E096F008A3E096F008A383
:10093300E096F008A3E096F022E026F008A3E03664
:10094300F008A3E036F008A3E036F022C0E0E8C0E8
:10095300E0E58124FCF8E6A2E7D0E0F8D0E022E667
:1009630047F60809E647F60809E647F60809E647A1
:10097300F622E026F608A3E036F608A3E036F608EA
:10098300A3E036F622E627F60809E637F60809E675
:1009930037F60809E637F622E657F60809E657F66A
:1009A3000809E657F60809E657F622E056F608A3C3
:1009B300E056F608A3E056F608A3E056F622E05602
:1009C300F008A3E056F008A3E056F008A3E056F0C1
:1009D30022700422600D18C6C333C608C633C6D5B9
:1009E300E0F41822E4C396F608E496F608E496F6D3
:1009F30008E496F622C6F4C608C6F4C608C6F4C6CA
:100A030008C6F4C622C3E7960809E7960809E796DD
:100A13000809E79622C3E09608A3E09608A3E096A8
:100A230008A3E0962275D0007581407518017519E9
:100A33000300020483E0F608A3E0F608A3E0F60847
:100A4300A3E0F622600C08C6C313C618C613C6D5A6
:100A5300E0F422E6F008A3E6F008A3E6F008A3E634
:100A6300F022CAC0E0E6F0A308DAFAD0E0FA22E006
:100A7300FAA3E0FBA3E0FCA3E0FD22EAF0A3EBF082
:100A8300A3ECF0A3EDF022E5C754F84401F5C779D0
:100A930001222518F582E43519F58322C2AF75D6F4
:100AA3009F020000221207F454E0021207F4A9E2A5
:100AB300021207F4F6E3021207F499E4021207F4B0
:100AC300E0E5021207F4FEE5021207F4A722001282
:100AD30007F4B922001207F40B23001207F46C2366
:100AE300001207F4F623001207F49A24001207F405
:100AF300EE24001207F40725001207F42D25001237
:100B030007F46825001207F4AC25001207F4D32577
:100B1300001207F42426001207F4D426001207F467
:100B23008C27001207F45428001207F4142900122A
:100B330007F45829001207F47D29001207F4C0298D
:100B4300001207F40D2A001207F4652B001207F4B4
:100B5300EB2B001207F4092C001207F4332C0012BC
:100B630007F44D2C001207F45C2C001207F4672CD9
:100B7300001207F4272D001207F4802D001207F44A
:100B8300422E001207F44A2E001207F40E2F001211
:100B930007F47A2F001207F4A530001207F4CA30C5
:100BA300001207F44031001207F4D231001207F4A7
:100BB3009232001207F4B132001207F4C03300126C
:100BC30007F4D233001207F44234001207F46C34F2
:100BD300001207F4FA34001207F43335001207F455
:100BE3007F35001207F49B36001207F4E438001235
:100BF30007F4EF38001207F4FA38001207F4053946
:100C0300001207F40F39001207F41A39001207F41F
:100C13003439001207F43E39001207F44839001240
:100C230007F45339001207F47B39001207F4D6395D
:100C3300001207F4E039001207F4043A001207F433
:100C4300283A001207F4863A001207F4CA3A00124F
:100C530007F4E63A001207F45D3B001207F4953BF4
:100C6300001207F4E13B001207F43E3C001207F4C4
:100C7300F83C001207F4DC3E001207F4353F001283
:100C830007F46540001207F48B40001207F4144286
:100C9300001207F49045001207F46247001207F4AC
:100CA3002B49001207F4D849001207F4434B0012F2
:100CB30007F4E24B001207F4274C001207F4914C9F
:100CC300001207F4A04C001207F4274F001207F498
:100CD300D950001207F44651001207F425520012AE
:100CE30007F43E53001207F4BB54001207F4DA541E
:100CF300001207F42F55001207F43456001207F4BC
:100D03005C56001207F4B456001207F4935700120E
:100D130007F4D757001207F42258001207F48D582E
:100D2300001207F4CE59001207F4325A001207F4E6
:100D3300805B001207F4E05D001207F4115E0012FD
:100D430007F4C95F001207F41E60001207F4226162
:100D5300001207F4BF61001207F41862001207F4CF
:100D6300CB62001207F46D63001207F40D640012E6
:100D730007F4B264001207F4E387011207F4228830
:100D8300011207F4698A011207F4B38A011207F406
:100D9300CE8B011207F4368C011207F46B8C01120F
:100DA30007F4DF8D011207F46290011207F48B91AF
:100DB300011207F42192011207F4299B011207F48F
:100DC300BE9B011207F4A59E011207F4989F01121E
:100DD30007F406A0011207F44CA1011207F42EA296
:100DE300011207F413A4011207F424A6011207F455
:100DF3008EA6011207F460A7011207F48EA7011251
:100E030007F44BA8011207F422A9011207F4E9A978
:100E1300011207F48DAA011207F4B6AA011207F40E
:100E2300D8AA011207F42EAD011207F406AE01127F
:100E330007F44AAE011207F4B2AE011207F46AAF27
:100E4300011207F49CAF011207F4E0AF011207F49B
:100E530016B0011207F462B0011207F4B7B0011221
:100E630007F4BCB0011207F40FB1011207F434B157
:100E7300011207F443B2011207F4A7B2011207F4F7
:100E830017B3011207F4A3B3011207F470B60112EA
:100E930007F454B7011207F4D7B8011207F40DBBD6
:100EA300011207F4BBBB011207F46BBC011207F478
:100EB300ACBE011207F44FBF011207F496BF011233
:100EC30007F442C1011207F456C1011207F460C1CD
:100ED300011207F488C1011207F494C1011207F447
:100EE300B3C1011207F4D3C3011207F422C50112DF
:100EF30007F466C5011207F40EC6011207F4F1C622
:100F0300011207F49CC7011207F4E8C8011207F4A1
:100F1300E6C9011207F48CCA011207F41CCB0112B3
:100F230007F433CB011207F46ACB011207F474CB35
:100F3300011207F47FCB011207F49DCB011207F4D2
:100F4300E1CB011207F43ECC011207F463CC01128A
:100F530007F47DCC011207F409CD011207F426CE64
:100F6300011207F493CE011207F47ACF011207F4AA
:100F7300A1CF011207F415D0011207F490D001128A
:100F830007F494D1011207F48AD2011207F439D37A
:100F9300011207F44CD4011207F4E8D4011207F448
:100FA30075D5011207F453D6011207F48BD601123B
:100FB30007F4E3D6011207F4ACD7011207F4CDD737
:100FC300011207F454D8011207F478D8011207F478
:100FD3009AD8011207F4E3D8011207F4F9DA0112DF
:100FE30007F4E0DB011207F491DC011207F4C7DE1A
:100FF300011207F417DF011207F457DF011207F498
:1010030099DF011207F4F5DF011207F423E001125F
:1010130007F447E0011207F49AE0011207F4C8E06D
:10102300011207F401E1011207F456E1011207F47A
:10103300BCE1011207F410E3011207F433E50112D6
:1010430007F4A0E5011207F4C9E5011207F454E619
:10105300011207F4BBE6011207F406E7011207F4D5
:101063002AE7011207F44EE7011207F4A9E7011278
:1010730007F4C4E7011207F47DE8011207F4ACFC9E
:10108300031207F4EBFC031207F47880021207F44F
:10109300BE80021207F49E81021207F4A08202129C
:1010A30007F4A383021207F42F85021207F48D8538
:1010B300021207F44A86021207F46887021207F441
:1010C300D987021207F41588021207F46388021203
:1010D30007F46D88021207F4B188021207F40D8930
:1010E300021207F4A889021207F4258A021207F4F0
:1010F300F48A021207F48D8B021207F4AD8B0212ED
:1011030007F4E38B021207F4148C021207F4D58C54
:10111300021207F4E58C021207F4398D021207F468
:10112300548D021207F4668D021207F46F8D0212BA
:1011330007F4C98D021207F4258E021207F4718E8B
:10114300021207F48C8E021207F4BD8E021207F40A
:10115300DA8E021207F4E68E021207F45A90021294
:1011630007F47390021207F4DA90021207F4ED9079
:10117300021207F4FB90021207F4AF91021207F474
:101183009392021207F49993021207F42394021222
:1011930007F42D94021207F49A94021207F4B194FF
:1011A300021207F4E394021207F41C95021207F4E7
:1011B3004695021207F4A795021207F4C795021287
:1011C30007F4E595021207F42B96021207F45197E0
:1011D300021207F49E97021207F4CD97021207F446
:1011E3004398021207F46B98021207F4A4980212B0
:1011F30007F4B298021207F40A99021207F45999F4
:10120300021207F49899021207F4C899021207F41C
:10121300F499021207F4FF99021207F41D9A0212BD
:1012230007F4DF9A021207F4E99A021207F42A9BE1
:10123300021207F47F9B021207F4939B021207F436
:10124300A19C021207F4B49C021207F4C99C021277
:1012530007F46B9D021207F4EE9D021207F4AC9E95
:10126300021207F4B79E021207F4E39F021207F477
:10127300FF9F021207F451A0021207F490A002127A
:1012830007F4A5A0021207F407A1021207F496A11E
:10129300021207F4E1A1021207F432A4021207F4C6
:1012A300B0A4021207F425A5021207F447A70212FD
:1012B30007F45FA7021207F462A7021207F46EA7EE
:1012C300021207F482A7021207F48AA7021207F494
:1012D300BDA7021207F46DA8021207F4E3A80212D5
:1012E30007F456A9021207F40AAA021207F4BFAAC6
:1012F300021207F4DEAA021207F484AB021207F407
:10130300AFAB021207F4B2AB021207F41CAC021229
:1013130007F444AD021207F41CAE021207F4A7AEA1
:10132300021207F4C0AF021207F47DB0021207F4F1
:10133300B6B0021207F4E7B0021207F4A5B1021225
:1013430007F4D5B1021207F4B0B2021207F449B39D
:10135300021207F4D4B3021207F485B4021207F49D
:1013630008B5021207F43AB5021207F47BB502126C
:1013730007F4A0F4021207F405F5021207F442F58C
:10138300021207F491F5021207F4A7F7021207F409
:101393008AF9021207F4F4FC021207F42FFD021279
:1013A30007F451FD021207F4B4FD021207F4E8FD3D
:1013B300021207F40BFE021207F438FE021207F4BE
:1013C30094FE021207F4278D031207F4A58D03126E
:1013D30007F4DB8D031207F4478E031207F4BA8F69
:1013E300031207F4D68F031207F41B90031207F4BA
:1013F30086D6021207F40291031207F42F92031206
:1014030007F44193031207F49E93031207F40A941B
:10141300031207F46B94031207F4AC94031207F45A
:101423005995031207F46B96031207F49696031269
:1014330007F4E196031207F42897031207F4BA9707
:10144300031207F47598031207F472DF021207F40C
:10145300A4DF031207F4AFDF031207F4EC980312BF
:1014630007F4F698031207F44299031207F4B099AC
:10147300031207F4D199031207F4819A031207F4B4
:10148300159D031207F41E9D031207F4719D0312A9
:1014930007F49A9D031207F4019E031207F4929E28
:1014A300031207F4D49E031207F41E9F031207F4DA
:1014B3007D9F031207F4A99F031207F43AA00312B6
:1014C30007F479A0031207F4B8A0031207F4EDA000
:1014D300031207F4FFA0031207F411A1031207F488
:1014E30030A1031207F439A1031207F4EFA1031289
:1014F30007F42FA2031207F4BAF9031207F40DEC51
:10150300031207F443EC031207F48CEC031207F401
:10151300DCED031207F4B7E8011207F4F6E9011250
:1015230007F432EA011207F4F1EB011207F41AECA3
:10153300011207F4ADEE011207F4F1EE011207F404
:101543007AF0011207F412F1011207F47AF1011291
:1015530007F41BF2011207F45DF2011207F49DF286
:10156300011207F428F4011207F498F5011207F4A5
:10157300BDF7011207F4EBF7011207F412F8011299
:1015830007F41BF8011207F4A2F8011207F4C0FBD9
:10159300011207F44DFE031207F463FE031207F46E
:1015A30061FC031207F4C4DB031207F4D7DB031255
:1015B30007F474DC031207F4AFDC031207F4CADC8C
:1015C300031207F4EFDC031207F434DD031207F40C
:1015D30065DD031207F496DD031207F41CDF031223
:1015E30007F41CF5031207F452F5031207F46EF522
:1015F300031207F4B0F5031207F4C0F5031207F45E
:1016030055F6031207F45FF6031207F412B303123D
:1016130007F414B4031207F4D7B4031207F418B58C
:10162300031207F48EB7031207F4FEB7031207F48D
:1016330014B9031207F4BFF8031207F421F90312D4
:1016430007F45CF9031207F40080031207F45580D2
:10165300031207F43E81031207F4D781031207F440
:101663002182031207F47E82031207F4928203128B
:1016730007F4C482031207F4C283031207F4068437
:10168300031207F42184031207F47084031207F48E
:101693008684031207F49384031207F4C7840312A6
:1016A30007F4E084031207F4AA85031207F40486FF
:1016B300031207F45286031207F47486031207F425
:1016C300EB88031207F42089031207F4B08903128D
:1016D30007F4258A031207F42A8A031207F4668A99
:1016E300031207F4BC8A031207F4808B031207F476
:1016F300A58B031207F4AF8B031207F4B28B03120B
:1017030007F43B8C031207F4568C031207F4698C1D
:10171300031207F4A48C031207F4A78C031207F433
:10172300B28C031207F4EE8C031207F414FC0312B9
:1017330007F42CFC031207F494AB031207F4E3AB96
:10174300031207F485AD031207F443AF031207F442
:101753008BAF031207F4ADB0031207F4DEB103122B
:1017630007F400B2031207F45CB2031207F4DEB20B
:10177300031207F4FE64001207F41F65001207F456
:10178300A965001207F42E66001207F4AA66001278
:1017930007F41367001207F45F67001207F4DE67AC
:1017A300001207F47068001207F4FC68001207F4D3
:1017B3003E69001207F4AA6D001207F42A6F0012A3
:1017C30007F40070001207F42F70001207F41A7266
:1017D300001207F49A74001207F45375001207F409
:1017E3007076001207F4C779001207F4D779001254
:1017F30007F4387B001207F4C47B001207F4ED7C76
:10180300001207F4DE7D001207F4607E001207F475
:1018130025E6021207F4DFE6021207F451E702128B
:1018230007F4EDE7021207F45DE8021207F416EB82
:10183300021207F4EDEB021207F45AEC021207F45A
:10184300D7ED021207F4A1EE021207F411EF021210
:1018530007F4DAF0021207F4EDF1021207F486F24C
:10186300021207F44CF3021207F420D1031207F417
:1018730074D1031207F4CCD1031207F417D2031265
:1018830007F479D2031207F4E5D2031207F498D3CD
:10189300031207F4D9D3031207F4EFD3031207F4A7
:1018A3004BD4031207F489D4031207F427F003126D
:1018B30007F458F0031207F412F1031207F478F156
:1018C300031207F483E2031207F40FE4031207F48D
:1018D300D8FD031207F4E9FD031207F401F2031222
:1018E30007F40FF2031207F48BFE031207F42DFB28
:1018F300031207F43DFB031207F458FB031207F42A
:10190300B9FB031207F4F87E001207F47D7F00127F
:1019130007F4E17F001207F495F7031207F4BDF70C
:10192300031207F431F8031207F43CF8031207F427
:1019330088F8031207F427BE031207F435BE031217
:1019430007F476BE031207F490BE031207F40DBF2B
:10195300031207F407C0031207F42CC0031207F4A1
:1019630049C0031207F466C0031207F48BC00312C5
:1019730007F4B3C0031207F4FBC0031207F476C1E4
:10198300031207F426C2031207F4BAD4031207F4AE
:10199300C8D4031207F442D5031207F426D6031260
:1019A30007F4DFD7031207F42BFE031207F432B94F
:1019B300031207F49EB9031207F45DBA031207F486
:1019C30067BB031207F4C0BC031207F41BBD031269
:1019D30007F470BD031207F479BD031207F48BBD3E
:1019E300031207F4F5BD031207F409BE031207F44B
:1019F30013BE031207F4A2C7031207F4F7C70312B7
:101A030007F4F3C9031207F425CA031207F447CAFC
:101A1300031207F460CA031207F479CA031207F426
:101A230083CB031207F41ECC031207F4BBF3031298
:101A330007F4DFF3031207F4F8F3031207F42BF4AC
:101A4300031207F45CF4031207F48AF4031207F495
:101A5300ECF4031207F4FBF4031207F405F5031285
:101A630007F412F5031207F4BAE4031207F4E0E4EF
:101A7300031207F41DE5031207F42CE5031207F420
:101A83004BE5031207F4B3E5031207F4BCE50312B5
:101A930007F41BE6031207F43FE6031207F4FEE61E
:101AA300031207F40BE7031207F41CE7031207F40E
:101AB30039FD031207F456FD031207F495CC031204
:101AC30007F4F3CD031207F400CE031207F413CE89
:101AD300031207F432CE031207F448CE031207F4BD
:101AE3005CCE031207F4D1CE031207F436CF0312F0
:101AF30007F4E6CF031207F4BBD0031207F4CBD0ED
:101B0300031207F4DAD0031207F494FA031207F46A
:101B1300B8FA031207F4E0FA031207F408FB0312FE
:101B230007F44AE7031207F471E7031207F492E795
:101B3300031207F4F7E7031207F4B0E9031207F4FB
:101B4300C9E9031207F4D5E9031207F4E9E903121B
:101B530007F407EA031207F411EA031207F41BEA76
:101B6300031207F42EEA031207F481EA031207F4BF
:101B7300BAEA031207F4E9EA031207F437EB031294
:101B830007F486EB031207F4A1EB031207F4ABEBA4
:101B9300031207F4BCEB031207F402EC031207F47D
:101BA300C3FB031207F458A2031207F482A2031221
:101BB30007F49EA2031207F4B1A2031207F4C7A20B
:101BC300031207F424A3031207F457A3031207F421
:101BD30093A7031207F4B9A8031207F4ECA803129E
:101BE30007F438A9031207F464AA031207F48CAAB2
:101BF300031207F4A1AA031207F4B1AA031207F40C
:101C0300F5AA031207F456AB031207F466AB0312EB
:101C130007F462F6031207F47DF6031207F4A6F63F
:101C2300031207F4C0F6031207F4E5F6031207F4F0
:101C330004F7031207F41CF7031207F44AF703121D
:101C430007F464F7031207F4F5FC031207F444D80E
:101C5300031207F44BD8031207F457D9031207F4FE
:101C630087D9031207F4ADD9031207F4D0D90312AD
:101C730007F4F2D9031207F42CDA031207F492DA09
:101C8300031207F4CBDA031207F417DB031207F48A
:101C930044DB031207F464DB031207F43FEE031281
:101CA30007F457EE031207F445EF031207F424F089
:101CB300031207F4E0FE021207F452FF021207F4C4
:101CC30090FF021207F4D1FF021207F441FC011244
:101CD30007F460FC011207F4AFFC011207F4CBFC1C
:101CE300011207F4FCFC011207F409FD011207F4C9
:101CF30016FD011207F402FE011207F440FE011261
:101D030007F450FF011207F45BFF011207F46DFFA4
:101D1300011207F476FF011207F480FF011207F4A2
:101D2300E5C2031207F42AC7031207F438C70312E4
:101D330007F4ABFD031207F475FD031207F403FE6A
:101D4300031207F46DFE031207F4DAD5021207F447
:101D530020D4021207F4D0D1021207F457D1021291
:101D630007F4FED0021207F48ED0021207F465D0F6
:101D7300021207F445CE021207F411CE021207F441
:101D8300DECD021207F4C2CD021207F4DBCC02123D
:101D930007F493CC021207F4DECA021207F45ECAF8
:101DA300021207F45BCA021207F458C9021207F4BD
:101DB30026C9021207F463C8021207F48EC6021280
:101DC30007F41FC6021207F4F1C5021207F456DF27
:101DD300021207F4F6DE021207F4AEDE021207F473
:101DE300FCDD021207F46EDD021207F4EEC50212E7
:101DF30007F4DBC5021207F486C5021207F461DD9E
:101E0300021207F475C5021207F467C4021207F43D
:101E130031C4021207F4DFC3021207F45BDA0212C1
:101E230007F429DF031207F480C3021207F44FC338
:101E3300021207F417C0021207F4D7BF021207F405
:101E4300CBBF021207F42BBF021207F46BBE0212C0
:101E530007F4EDBB021207F47EB9021207F43CB992
:101E6300021207F410B8021207F4C5B7021207F4FE
:101E730004B7021207F4D7B6021207F41AB6021215
:101E830007F4B0B5021207F4EAB5021207F4BDD79E
:101E9300021207F4A9900300000080FBE473000121
:101EA30036360101000102010001030100010401B2
:101EB300060605020000070100340801000F0904AB
:101EC30001010D0100FF0E080000170200001901B7
:101ED30000FF1A0100011B0100FE1C0100081D0286
:101EE30000001F0100012001000121020000230165
:101EF300000F240200002601000127010008280228
:101F030000FF2A0100072B0102402C0100002D01D4
:101F130000012E0100012F0100FF30010B1C3108CD
:101F230000003A0100083B01000F2F0100000302EB
:101F33007102300160021102700201020202020208
:101F43008002100261023A004100630273027202CE
:101F5300620243020002130238000002000204027C
:101F6300120200020002000200020402040237000F
:101F730037003C02440200023900000200026502FD
:101F8300000235028102000205028202830200027E
:101F93000300710030016000110070003102200362
:101FA30050048000100061000000140063007300FF
:101FB30072006200430000001300060000000000EE
:101FC30004001200000000000000000004000400F0
:101FD300370037003C02440000000000000000000E
:101FE300650000003500810000000500000083004B
:101FF3000000030471040204600411047004020469
:1020030002040104020410046104000414046304C0
:1020130073047204620443040004130406040004FA
:102023000004040412040004000400040004510426
:1020330064000004000400044404000400040004D9
:1020430000046504000435048104640005040004ED
:10205300830400040103710301030103010301036A
:10206300010322030203010310030003000300031F
:1020730000030003000300034203000324030603D9
:10208300000300030403120325032303250323038F
:1020930004030403000300030003440300030003D9
:1020A30023030003650321003503810300030503B4
:1020B300000300030003010171010101010111018A
:1020C30001013101010101018001100161013B00A6
:1020D30014006301730172016201430100011301E2
:1020E30006013D0135000401120100010001000158
:1020F300000104010401330133013C0144013201B5
:102103003600000100016501000135008101000175
:102113000501820183010001360001000600000071
:102123000F0000000000000000000000000003FF9B
:10213300FF00000403FFFF0000FFFF0FF401000591
:10214300C4040320000100030B0000000000000092
:102153000003010F000028181300C81701002818F6
:10216300020092170300981704009E170500A41796
:102173000600B017FFFF000001C00D06F00D08EACE
:102183000D0BFC0D103C0D02C60D05DE0D07CC0D2D
:102193000CA20D0DB40DFF000003EAF5E5D5D5C57E
:1021A300B5A595958585757565655555454535354C
:1021B3002525151505C811F811CE11D411F211E614
:1021C30011E011FE1104120A121612DA11C211BC27
:1021D3001100160F00000B150B020002220F320034
:1021E3000006B212C412CA129211D0128C119811A5
:1021F300CC10C61002110811FC10B4100C132A13D2
:10220300301312131E131813303016181920231A03
:102213001C1E300C0E020B040B0A0708000F0038BB
:102223003C3E363B3B352B432C30301718192130BD
:102233001B1D1F3000011916181616152303000065
:10224300034948424D18172505020013D612DC1224
:10225300E812E212EC11101224131C1222120204CF
:1022630002010101010902D810DE10D2100E110083
:102273000000000000E410F61000BE040A0E001572
:102283000004007F00E8030C0028000000000003A6
:1022930008100C0A03080900040001FF1E1E0C05A8
:1022A300040F1008C082C0838A828B83E0D2E7F0D8
:1022B3001216F602341EC082C083790012277312ED
:1022C300548AC082C083900334124210D083D082D8
:1022D300C3E09CA3E09D500C125B5EFAA3E01222C4
:1022E300EA60010902341EFBEA75F00BA4FAA8F0B8
:1022F30075F00BEBA428FB900336E02AF8A3E03B30
:102303008882F583E0540F2274F712036089081260
:102313002773122819ACF075F00BE9A42CF990037C
:1023230036E028FEA3E039FF7401650860067402F5
:10233300650870208A828B831228051234EC74029C
:102343006508701B1226C412284C70138E828F836B
:10235300E4F0800BEA2403FCEB1227E71227F3EEE9
:10236300FAEFFB120ACC02345674F41203601264BF
:102373008579008E828F83E06076890A890B806578
:10238300E50A75F00BA4FAA8F075F00BE50B122221
:10239300F77046E50A75F00BA4F8AAF075F00BE5A3
:1023A3000B12282B8E828F83E08508828509831286
:1023B300290D850882850983A31234ECEE2403FCDE
:1023C300EF1227F0123425124F04AA08AB09120AA0
:1023D300CC7901900334124919E50A2401F50AE581
:1023E3000B3400F50B1226CCE50A9AE50B9B4090C3
:1023F30002369674F5120360EAFEEBFF740B120AC1
:102403009512342A750A01EC4D602BEC1264A1ED90
:1024130012548A1234E47901120AD8E50845096096
:102423006F850882850983A312648F7902AA08AB9A
:1024330009120AD8805AE5084509602B12548E12F6
:102443003B58123426122836700CEEFAEFFB120AB0
:10245300DEE9F50A80CBEE2403FA12276E70317998
:1024630003EEFAEFFB80CA8E828F83A3E064FE70D3
:1024730003A3E0F4700BEE24030A0A0A12276E701A
:102483000CEEFAEFFB120ADEE9F50A8003750A0087
:10249300A90A7F0302057974F712036090033412CB
:1024A3003466EA4B602FEA75F00BA4FAA8F075F0D6
:1024B3000BEBA428FBEAFEEBFF12150A900336127E
:1024C300346690033612475E6012EEFCEFFD79002E
:1024D30012146E8007900336E4F0A3F00234569092
:1024E3000334123EC8C3EE98EF9922C082C083EC36
:1024F3004D6005121CC680097C087D00790012140A
:102503006E02341E74F61203607900EA4B60187889
:102513000088081257D1EB125B5A600479017808DE
:1025230008E8C3940840EA0234F574F712036074B0
:10253300F31208D3ECFEEDFF851882851983E4F0CE
:1025430004120A95EAF0A3EB124C8A7403120A955B
:10255300AC82AD83EEFAEFFB120AF0EEFAEFFB1258
:102563000AF602345174F712036074F31208D3ECC1
:10257300FEEDFF851882851983E4F0EAFCEBFD7418
:1025830003120A951229067401120A951234E08E79
:10259300828F831234EC74FE68700374FF696004E5
:1025A30079018002790002345174F7120360EAFE64
:1025B300EBFF12260A70141226158E828F83E0F425
:1025C300F88A828B83E058F0120ACCA908023456A9
:1025D30074F7120360EAFEEBFF7508008E828F83A7
:1025E300E0602212260A701D1226158A828B83E070
:1025F3008F838E82F8E058700CE0F88A828B83E038
:1026030048F0120ACC80C4120AD2E9F508740165B5
:10261300082212649A12281D12275FFAA3E039FBDD
:102623002274F41203608A088B097C007D00122651
:10263300C41227F312278412648C790085088285DB
:102643000983A3E064FE7003A3E0F460717E007F5E
:10265300008062EEFAEF1222EA6057EEFAEFFBEA2D
:1026630075F00BA4FAA8F075F00BEBA428FB90030C
:1026730036E02AF50AA3E03BF50B8508828509833A
:10268300A3124BD8850A82850B83A3E06A7003A348
:10269300E06B701EE50A2403FAE50B12276F700A3C
:1026A300E50A2403FCE50B1227F0122778790112BF
:1026B30054A01230631226CCEE9AEF9B409502365B
:1026C30096EA24030A0A0AEB22900334125077C3D2
:1026D3002274F31203608A088B098A828B83A31204
:1026E300648F12277312648C750C001226C4122790
:1026F3006F70547E007F008049122751FAA3E0399E
:102703008A82F583E0540F6036122751F50AA3E05D
:1027130039F50BE50A2403FCE50B1227FA3400FB19
:10272300121CC0E964017017850A82850B83A3120A
:102733005138A31234EC122778750C011254A012ED
:1027430030631224E240B2A90C7F05020579EEF84A
:10275300EFF9E875F00BA4F812275F22AAF075F0E1
:102763000BE9A42AF9900336E02822EF1228462227
:102773001264A0EB2212278412549BEEF0A3EFF015
:1027830022E5081264A1E5092274F5120360EAFE4A
:10279300EBFF8E828F83A312648F7C007D00EE2477
:1027A300030A0A0AEF1227F3EEFAEFFB120AD2E941
:1027B300F50A7401650A702912649A122819AAF09D
:1027C30075F00BE912282B850882F5831228051270
:1027D3002836700DE5082403FCE5091227E71227C4
:1027E300F30224933400FDEE2403FAEF221227FAB6
:1027F3003400FB120AF0223400FDE5082403FAE555
:102803000922A312280A2212280E22E0F8A3E0F9D3
:102813008E828F83A32212281D223400F583123E59
:10282300CCE875F00BA4F822122765F508A3E0396C
:10283300F50922E8F0A3E9F0E5082403FAE5091213
:1028430028462212284C6401223400FB120AF6E9BE
:102853002274F312036074E61208D3126485750CB4
:1028630001750800750900750A00750B008518824B
:10287300851983E4F0EE2403FCEF3400FD740312A6
:102883000A95122906E964017023740B120A951242
:1028930034E47401120A95124BDC7003A3E06960FF
:1028A30051851882851983858208858309740D12E1
:1028B3000A95E412290D740E120A951234EC740D64
:1028C300120A95AA82AB83120B14E96401700B748C
:1028D3000D120A9585820A85830B780A12082CAC9F
:1028E30008AD09EEFAEFFB120AE4740212083FE99D
:1028F300F50CEEFAEFFB120B0EA90C741A12083F3B
:1029030002274C122BD9120B1A22123461123EC821
:1029130022C082C083780079008003122A04122621
:10292300CCE89AE99B5029E8FAE9FBEA75F00BA495
:10293300FAACF075F00BEBA42CFB900336E02AFC09
:10294300A3E03B8C82F583E0540F70CF79008002C3
:10295300790102341EC082C083902282123F1EEC92
:1029630075F012A4FCA8F075F012EDA428FD79FF10
:102973007A317B0B12146E02341E74F7120360E972
:10298300FEEAFF7A007B00780079008028E8FCE902
:10299300FDEC75F012A4FC85F00875F012EDA4258A
:1029A30008122E19C39E400AE0FCEFC39C40031299
:1029B3002F38122A04122E0D40D3023456C082C07F
:1029C30083780079008003122A041229F8501F1219
:1029D3002E1DF470F2E875F012A4F8AAF075F01247
:1029E300E9A42AF9743128FA740B39FB80047A00BC
:1029F3007B0002341E902282122ECEC3E89AE99BFA
:102A030022E8240108E93400F92274F01203607407
:102A1300F31208D38A0A8B0B8C0C8D0D8908EC45B5
:102A23000D6016AA0CAB0D120B688A0E8B0FAE0E3F
:102A3300AF0FEE4F6003022ACB120B3E8A0E8B0FB1
:102A4300A80EA90FE8FEE9FFE849607C90229012E6
:102A53002B2D6022740365086006740465087016E4
:102A63007A047903120B38902290122B4440077A90
:102A7300007B00022B2A90228E122B2D601B7401E7
:102A83006508600674026508700F7A027901120BFB
:102A93003890228E122B4450D68518828519837460
:102AA30001F0120A95124F04AC0CAD0D7403120A17
:102AB30095122BD2740B120A951234321238CCE4CD
:102AC300124EEC12100C8004EE4F604A780074FF33
:102AD3002508C39404500278048E828F83124F0416
:102AE3008E828F83A3A3A3A3E508F0E88E828F834E
:102AF300A3A3A3A3A3124F0C12020F122EE58E82DF
:102B03008F83A3A3A3A3A3A3A3F0122EDC120A72A1
:102B1300125484120A7E122B32400590108DE4F079
:102B2300120EE6EEFAEFFB023ED212502649227A4B
:102B3300047900120B38902282125B40EA98EB99D9
:102B430022122B5D758322758282E493C398F8A3C6
:102B5300E49399F9C3EA98EB9922E493F874019307
:102B6300F92274F212036074F31208D38A088B09F2
:102B7300ECFEEDFF750A00EEFAEFFB120B688A0C10
:102B83008B0DA80CA90DE849603E88828983E06516
:102B9300087004A3E06509602F88828983A3A3A337
:102BA300A3E0C394055021125332851882851983FB
:102BB3007401F0120A95125336EEFCEFFD74031202
:102BC3000A95122BD2750A01A90A740D0249D01273
:102BD3002BD9120B2622AA82AB83120AF085188204
:102BE300851983AA82AB832274F6120360122C2701
:102BF300600FA3A3A3A3E014C3940450047901803A
:102C03000279000234F574F6120360122C27600F68
:102C1300A3A3A3A3E014C39402500479018002790F
:102C2300000234F5120B628A828B83E5824583228C
:102C330074F6120360122C27600BA3A3A3A3E07006
:102C4300047901800279000234F5C082C083EAFC72
:102C5300EBFD7A007B0002341BC082C0837C007DC5
:102C63000002341B74F412036074F31208D3EAFEF7
:102C7300EBFF8C0A8D0BC3EC94F8ED94FF4007EE49
:102C83004F7003022D20750800750900802E8518EA
:102C9300828519837401F012308B120A95123099D0
:102CA30060137403120A95AC82AD83EEFAEFFB1244
:102CB3001CC0E97049E5082401122EB9902282E470
:102CC30012502EE50898E509995052E50875F0125F
:102CD300A4F8AAF075F012E509A42AF9125B73604F
:102CE300D4EE4F70A974FF650A700474FF650B601E
:102CF300C412307B650A7004A3E0650B70B7E50866
:102D030075F012A4F508A8F075F012E509A428F5EA
:102D13000974312508FA740B3509FB80047A007BAA
:102D23000002369174F412036074F31208D3750829
:102D330000120B688A0A8B0BAE0AAF0BEE4F602AA8
:102D4300851882851983740112345BF8A3E0F97442
:102D53000B120A9512356F120B087C127D0079FF56
:102D6300EEFAEFFB12146E750801122B3250099024
:102D7300108D7401F0120EE6A90802369174F71251
:102D83000360E9FE74FE6A700374FF6B78007900D8
:102D930070058052122A04122E0D504AE8FCE9FDF8
:102DA300EC75F012A4FCAFF075F012EDA42F122E07
:102DB30019F460E0E8FCE9FDEC75F012A4FC75F091
:102DC30012EDA42FFD74312CF582740B3DF583E0D5
:102DD3006A7003A3E06B70BC8009122E1D14C394A8
:102DE300044017122A041229F85018EE70EC122E20
:102DF3001D64016005E0640370E912306CFAA3E01E
:102E0300FB80047AFE7BFF023456902282123F221B
:102E1300C3E89CE99D22122F6D22E8FAE9FBEA75CB
:102E2300F012A4FAACF075F012EBA42CFB74352A63
:102E3300F582740B3BF583E022120B7A02341EC039
:102E430082C083790180F274F01203608A0A8B0BCB
:102E53007A047901120B388A0C8B0DEA450D603E1A
:102E6300EAC333FAEB33FB12150A8A088B09AE085F
:102E7300AF09EE4F60237AFE7BFF120B8074FE6A6C
:102E8300700374FF6B601B850882850983123466A7
:102E9300E5082402122EB980E1750C0080047E003F
:102EA3007F00850A82850B83E50CF0EEFAEFFB02C7
:102EB3003ED7E5082407F508E5093400F509229013
:102EC3002282123F22C3EA9CEB9D22E493FA74010F
:102ED30093FB22121462740322125495E4F0908738
:102EE300C522E88E828F83A3A3A3A3A3A3A3A312C4
:102EF3002F077401122F07A3F0EE2410125498E445
:102F0300F0A3F0221238D8A3A3A322C082C0837AED
:102F1300007B00800419122F38122EC25010122F7A
:102F230057C3940550F0E970EC122F4180047A00E6
:102F33007B0002341EEA24010AEB3400FB22EA750B
:102F4300F012A4FA75F012EBA428FB74312AFA7478
:102F53000B3BFB22EAFCEBFDEC75F012A4FCA8F0A2
:102F630075F012EDA428122F6D22FD74352CF58215
:102F7300740B3DF583E02274F712036074F31208B7
:102F8300D37E007F0002301FE50875F017A4F8A96F
:102F9300F0125DD4FAA3E0FBEEF8EFF9E875F01256
:102FA300A4F8ACF075F012E9A42C12307A6A70031D
:102FB300A3E06B603FE50875F017A4F8AAF0EA12E6
:102FC3005DD3F8A3E0F97401120A95E0687003A3D6
:102FD300E0696020E50875F017A4F8EAF974AD28F4
:102FE300FC740C39FD7403120A95AA82AB83121C7C
:102FF300C0E96014E50875F017A4F8A9F074AB28CC
:10300300FA740C39FB1210180508902294E493F813
:10301300E508C3985003022F8B123063902282126B
:10302300611A5039EEF8EFF912306CF47003A3E033
:10303300F460E68518828519837401F0EEF8EFF9E0
:10304300E875F012A4F875F012E9A42AF912308B8E
:10305300120A9512309960C175080080AD0234518F
:10306300EE24010EEF3400FF22E875F012A4F8AA53
:10307300F075F012E9A42AF912307F22743128F591
:1030830082740B39F583E022743328F582740B398B
:10309300123EC6740B22E8F0A3E9123577120B2017
:1030A300E922C082C08390033D74D8F0A3740DF06D
:1030B30090033F74D2F0A3740DF090034374F2F0C5
:1030C300A3740BF002341E74F7120360EAFEEBFFE5
:1030D300900377E06408601BE0640460168E828FBF
:1030E30083E05403640170481234251239CDE0643F
:1030F30006703D8E828F83A3A3E064FE7003A3E07A
:10310300F4602D8E828F83A3A31234E0900368E0D2
:10311300687003A3E069700BEE2415F582EF125B70
:103123005A6008120E86E9F5088008120E8C80F6A4
:103133007508C2EEFAEFFB1215100225CE74F412D5
:1031430003608A088B098A828B83E0F8A3E0FAE89C
:103153002AFAE43400FB12150A8A0A8B0BAE0AAF73
:103163000BEE4F6063850882850983E0FC7D00795F
:103173000012146E8E828F83A3A312648F120EC863
:103183008E828F83A3A3A3A3123466850882850945
:1031930083E0F8EE28F8EF34001234E885088285DE
:1031A3000983A3E0C0E0EE240D125487D0E0F012AF
:1031B3000EDAEE240E125487E9124B39E0C0E0EE2A
:1031C3002411125487D0E0F0EEFAEFFB0236967426
:1031D300F612036074EB1208D3EAFEEBFF12475BAF
:1031E30060030232767A077B0012150A90033912C4
:1031F300346612475B60788E828F83120A72900363
:103203003A1239D0120A7E126353C0E0123282D0CE
:10321300E0F0EE2405FAEF3400FB8A088B098A827A
:10322300F583E0C0E012327DD0E012368DE0C0E0DD
:1032330012327DA3D0E01234D2120A72851882852D
:103243001983120A7E88828983E0C0E07405120A1A
:1032530095D0E0F0850882850983E0C0E07404120C
:103263000A95D0E0F07407120A951233B8800679F4
:10327300108002790174150234F2123282A3229073
:103283000339E0FAA3E0F5838A82A3A3A3A322C0B0
:1032930082C08312475B600D90033912506590031F
:1032A30039E4F0A3F0120DF6120FB802341E74F0D5
:1032B30012036074EB1208D3ECFEEDFF890874254A
:1032C300120A95780C120A387429120A95E0F974D7
:1032D3002A120A95E0FC742B120A95E0FD740F691B
:1032E3007005740F6C60129010D2E064027005795F
:1032F300C10233B3E9C39C40F6900378780C120AF9
:1033030056E50890037EF0E990037CF0ECA3F0ED22
:1033130090037FF074FF6A700374FF6B701D90104D
:10332300DDE0F47003A3E0F47005121480800C90C8
:1033330010DD12343BE8F0A3E98007900375EAF04F
:10334300A3EBF0EE4F6017EEFAEFFB121078E9648F
:1033530001700BEEFCEFFD7A897B03121CC6900310
:1033630068E4F0A3F090036BF0A3F0900388F0906F
:1033730010D2E06402700890037C740FF0A3F09005
:1033830003777405F014120A95E4F0900378120A97
:1033930072851882851983120A7E90037EE0C0E04D
:1033A3007405120A95D0E0F07407120A951233B827
:1033B3007415023ED4E4123577121CF022C082C089
:1033C30083900338E070031217C2120BC2804CC003
:1033D30082C083900338E090108C7004E4F0802D59
:1033E3007401F0900338E0F460237C41E0C394411E
:1033F3005002E0FCECF8E0C398F0EC75F0E8A4CCE4
:10340300A8F075F003A428FD7A80123F2A7A8C7BFA
:10341300107941121CDE8003120B6ED083D082021E
:1034230007F1EE12549622E0F508A3E0F509221203
:1034330034362212280EA322123EC890037522743A
:10344300F7120360EB90037FF0120DE48005740D17
:1034530012083F7F01020579123461A3E02212347E
:10346300D2A322EAF0A3EBF02274F712036074F8FC
:103473001208D3EAFEEBFF7900900377E06408704B
:103483004485188285198374FDF0A374FFF0120E2E
:10349300C27402120A951234667405120A95E41274
:1034A3003461E0C0E07404120A95D0E01234CDC058
:1034B300E07406120A95D0E0F07407120A95E4123C
:1034C3003573120F0474080234531234D2E022F01D
:1034D3008E828F8322F085188285198322123EC83B
:1034E30022E0F8A3E0F9125495E8F0A3E9F02212E0
:1034F300083F7F02020579C082C08390034974822A
:10350300F0A3740CF09003EF745EF0A3740FF090CB
:10351300034D74B8F0A3740CF090034F7482F0A3BE
:10352300740CF090035174BEF0A3740CF002341EBB
:1035330074F412036074F91208D38A088B098C0A95
:103543008D0B8518828519837808120A5674041224
:103553000A95E9F07405120A95E4F07406120A95C7
:10356300E4123573120BAA7407023693E8F0A3E949
:10357300123577221234D8AA82AB832274F4120351
:10358300608A088B098A828B831254A3EE4F7003DF
:1035930002368B90031212475E60158A828B83A3D7
:1035A300A3E0F9EEFAEFFB9003131239D0121E9F3A
:1035B3008E828F83A3A3A3A3A3A3A3A3A3E06402E5
:1035C30070748E828F83A3A3A3A3A3A3E05402707A
:1035D3000302365D850882850983A3A3E064E9605D
:1035E300798E828F83A3A3A3A3A3A3A3A3A3A3E0FF
:1035F30070149010D5E0048E828F83A3A3A3A3A39A
:10360300A3A3A3A3A3F08E828F83A3A3A3A3A3A3A4
:10361300A3A3A3A3E01412368DA3A3A37404F09071
:1036230010D6124EDEE8F0A3E9125FB78B0BEA4522
:103633000B70031259958E828F83A3A3A3A3A3A315
:10364300A3A3A3E0640260128E828F83A3A3A3A328
:10365300A3A3A3A3A3E06406702E8E828F83A3A3E8
:10366300A3A3A3A3E0A2E0501F850882850983A337
:10367300A3E0F9EEFAEFFB121D808E828F83A3A3E2
:10368300A3A3A3A3E054FEF080091238D422740D3F
:1036930012083F7F0402057974EC12036074DD1293
:1036A30008D3EAFEEBFF8C088D097437120A95786C
:1036B3000C120A38750A007405120A95AC82AD83A0
:1036C300120AA87412120A95E070087415120A956A
:1036D300E060207405120A95E0A2E6501E8E828FE8
:1036E30083A3A3A3A3A3A3A3A3A3124BD8120F3A09
:1036F300E960087903121CAE0238BA7405120A9500
:10370300E0540C64047005750B018003750B00E035
:10371300A2E55035750A01E50BA2E0402C120EC854
:103723008A108B11A810A911123425E0687003A325
:10373300E06960157405120A95126496124BD4124F
:103743001D8CE96004790480AC7405120A95E0A22B
:10375300E650227406120A95E05403701874051299
:103763000A95E0540C640C600CE0540C640860058A
:1037730075100180037510007405120A95E0540357
:10378300F8740268700C126496124BD4120ABA02CF
:1037930038BA740168703AE510A2E050031238C2D7
:1037A3007405120A95A882A9837403120A95E8F096
:1037B300A3E9123EBC8518828519831238CCE0C078
:1037C300E07402120A95D0E0123573121E700238AB
:1037D300BAE860030238BA90035FE0640170108EA8
:1037E300828F83A3A3A3A3A3A3E070030237487428
:1037F30022120A957402123EBC741A120A951234EC
:10380300ECE510A2E050087405120A951238C2E5DF
:103813000BA2E0506AEE240FF582EF125B5AC0E070
:103823007417120A95D0E0F090031412475E7003E8
:103833000238BA120EC88A128B13A812A913741A6B
:10384300120A95E0687003A3E069706B780C1208A4
:1038530024780A120830780812082CA910740C1264
:103863000A95AC82AD837421120A95AA82AB839028
:1038730003141239CD121E9F740712083F80387843
:103883000C120824780A120830780812082C9003C6
:1038930075120648EE2412F582EF1258887423122B
:1038A3000A95AC82AD83740E120A95AA82AB831279
:1038B3001D74740912083F742312083F025F8212B9
:1038C3006496125073120AAE22E8F0A3E91238D4B8
:1038D300221238D822F08E828F83A3A3A3A3A3A39B
:1038E3002274F71203601216AE02345674F71203F1
:1038F300601216B402345674F71203601216C00233
:103903003456C082C0831216BA02341E74F71203EF
:10391300601216C602345674F71203607409120A51
:1039230095E0F50878081208301216D274010234B3
:1039330053C082C0831216DE02341EC082C08312BB
:1039430016E402341E74F71203601216EA023456A8
:1039530074F7120360EAFEEBFF89087401650870CF
:10396300147900120CFA90229FE493FC7900EEFA8A
:10397300EFFB120C7002345674F412036074F912E4
:1039830008D3E9FE8A088B098C0A8D0B7413120A7B
:1039930095124BD89005A512475E6027EE851882D5
:1039A300851983F07401120A957808120A56EAF809
:1039B300EBF97405120A9512356F9005A51239CDEE
:1039C300121E9F02356AFB90034BE0F8A3E0F583D8
:1039D300888222C082C08312171A02341E74F7121F
:1039E300036090108FE0F97E00800B125B46540D4C
:1039F30064017001190E123BDA5003E970ED0234D1
:103A03005674F7120360901090E0F97E00800B1259
:103A13005B46548D64817001190E123BDA5003E941
:103A230070ED02345674F2120360890BE975F006E7
:103A3300A4240CF508E5F0122EBD8A0CE508250C2C
:103A4300FAE5093400FB12150A8A0C8B0DAE0CAF94
:103A53000DEE4F6027AC08AD09790012146E1234D5
:103A630025E50BF0EE2508F8EF3509F98E828F83F3
:103A7300A3A3A3A3A3A3A3A3A31234ECEEFAEFFB84
:103A83000249D374F6120360EAFEEBFF120C4C906A
:103A9300108EE0F8E9C3984009900345124BD81201
:103AA3000C52EE2402F8EF1251E89003471250A291
:103AB300900347E004F0EEFAEFFB120C58850882FE
:103AC300850983E002569EC082C083790090034536
:103AD300800109124BD88A828B83E582458370F279
:103AE30002341E74F7120360EAFEEBFFEE4F6056DA
:103AF30090034512475E604E888289837A007B007B
:103B0300EE65827003EF6583600FAA82AB83123B7D
:103B13004CE5824583602F80E7900345123B58684C
:103B23007002EF698E828F8370081234E090034530
:103B33008003125F941234ECEEFAEFFB121E40EE98
:103B4300FAEFFB121510023456123B5022123ECCF0
:103B53008882898322123EC8EE22C082C0839003EA
:103B63004580048882898312475E600B888289833B
:103B7300124210EC4D70EC8A828B83E4F0A3F0E8E0
:103B83004960068882898380039003451234660264
:103B9300341E74F712036090034580048A828B837A
:103BA300123BD54B60257E0080010E123BDA50ECB0
:103BB300EE75F006A4FCADF0EA2CFCEB3DFDEC2425
:103BC30010F582ED123C2A70E180047A007B00023A
:103BD3003456125077EA22123C33EEC3982274F71C
:103BE3001203607D0080010D123C2FEDC398503409
:103BF300ED75F006A4FEA8F0E8FFEA2EFEEB3FFF0A
:103C0300EE2410F582EF123C2A70DCED75F006A469
:103C1300FEE8FFEA2EFAEB3FFBEA2411F582EB12F2
:103C23005B5A4CF0023456125B666922123C332213
:103C33001264A0EB3400F583E0F82274F6120360FB
:103C4300120D727A007B008025EAF8EBF9E875F033
:103C530006A4F8ACF075F006E9A42C12504C1263DC
:103C630061A3E4125142F0A31263671264DE90224F
:103C73008A122B3C40D37A007B00801C8A088B0974
:103C8300740378081209D4124B00A374FEF0A30442
:103C9300124F22A3E41264DE902293123CDD40DC37
:103CA3007A007B00801D8A088B0974037808120947
:103CB300D474D31257D2740F12601974FEF0A30494
:103CC3001264DE902299123CDD40DB90229DE49346
:103CD300900353F0123CE70234F5E493F8C3EA98F7
:103CE300EB9400227CE87D037A107B009003C2E012
:103CF300F91215C42274F012036074F51208D38A02
:103D0300088B09890A8C0BE9A2E050147508FC752D
:103D130009FFA2E15005D2E4023DBAD2E3023DBA63
:103D23001249BF7003A3E06970057900023E87ACB6
:103D33000A7902AA08AB09120D4EE960EDE50AF50E
:103D43000C780C12083079027CFE7DFFAA08AB09BF
:103D530012473A12083FE96003023E85E50AC2E5CD
:103D6300F50A9003B5E07051E50AA2E6404B7403EF
:103D7300120A95AC82AD83AA08AB09120AFCE9705A
:103D83003212405B8A0C8B0DA80CA90DE8FEE9FFEB
:103D9300E8496025EE24020A0AEF12284C601AEE65
:103DA3002402FCEF3400FD7403120A95AA82AB834C
:103DB300121CC6E50AD2E5F50A900348E0F50C901B
:103DC3000368E0F50EA3E0F50F780E12082C7D01D1
:103DD3007C00900348E0F9AA0EAB0F120D067402A3
:103DE30012083FE9F8900348E004F0E86003023E5C
:103DF30085E50AA2E55004740E80027406C0E074DF
:103E030001120A95D0E01254B48A0E8B0FAE0EAF96
:103E13000FEE4F6069123EA5123EBC8882898374FF
:103E230001F07478550AA31264A6E50C1264A6A3E4
:103E3300E508F0E509123E94E4F0E50AA2E5500F27
:103E43007403120A95AC82AD83E82406123E8B8E6E
:103E5300828F83A3A374FDF0A374FFF0E50B6015B9
:103E63009022A0E493F8E50BC3985009EE241312B3
:103E73005487E50BF0EEFAEFFB120B9E80067910E8
:103E8300800279C7740B8049FAE93400FB121CC61F
:103E93002288828983A3A3A3A3123EA02212521BCA
:103EA300A322EE24171254987401F0120EC2EE24CA
:103EB3001A125498EAF0A3EB22F012649A34001217
:103EC3003EC622F583123ECC22E0F8A3E0F9227429
:103ED3000D12083F7F0802057974F61203607A0019
:103EE3007B101259A260089003D47401F0802990CA
:103EF3000646E064019010D37006E0FC790180046B
:103F0300E0FC79037A007B00120C70902288123F48
:103F13001E7A007B10123F2C0234F5123F2222E45A
:103F230093FC740193FD227B009003C2E0F9121508
:103F3300BE2274EC1203608A088B098C0C8D0D89E8
:103F43000E7414120A951249197416120A95E0F5A3
:103F530010A3E0F511120F3AE960077AFF7BFF0225
:103F630040589010D2E06402600302404B7900AAEB
:103F730008AB09120D54A90E120D488A128B13AE09
:103F830012AF13EE4F70030240338E828F83A3A3CD
:103F9300A3A3A3E064018E828F83A3A37069124B52
:103FA300D88E828F83A3A3A3A3A3A3E05418604353
:103FB30090229EE4938E828F83A3A3A3A3F0EA654A
:103FC3000C7003EB650D6014EA650A7003EB650B77
:103FD300600AEA65107003EB6511701F7810120810
:103FE3002CAC0AAD0BAA0CAB0D12103674021208DE
:103FF3003F800890036712598CA3F074FE6A700324
:1040030074FF6B601D804EA3A3A3E0640360298E3D
:10401300828F83A3A3A3A3A3E0640470057AFE02A3
:104023003F608E828F83A3A3A3A3A3E064027008DF
:104033009003B4E06402701012405B8B0BEA450BF3
:104043006006AA08AB09800DAA08AB0990034912C0
:1040530039CD121E9F025F82900375124740120FE3
:10406300FA2274F7120360EAFEEBFF120B50E970B9
:104073000AEEFAEFFB120B5CE96006EEFAEFFB8047
:10408300047AFE7BFF02345674F01203608A0A8BB3
:104093000B8C0E8D0F8909750800120F3AE9790010
:1040A3006003024202AA0AAB0B120D54A909120DB6
:1040B300488A0C8B0DAE0CAF0DEE4F60198E828FBC
:1040C30083A3A3A3A3A3E0640270559003B4E064A5
:1040D300027003024200AA0AAB0B90034F1239CDC0
:1040E300121E9F120B628A0C8B0DA80CA90DE849B6
:1040F300700302420088828983A3A3A3A3A3E0A23F
:10410300E04003024200750C01A2E150687901AC62
:104113000AAD0BAA0EAB0F120CA0E97064024200A9
:104123008E828F83A3A3A3A3A3E064037005750CFE
:104133000280528E828F83A3A3A3A3A3E0640160B2
:10414300030242009003751242108E828F83124540
:10415300658A0C8B0DA80CA90DE84960D1902297B4
:10416300E493FA88828983E0C39A50C2A3E0600390
:1041730002420080B988828983A3A3A3A3A3D2E1C7
:10418300F0EE4F603A8E828F83A3A3A3A3A3A3E091
:104193005418602B7508018E828F83A3A3120648DF
:1041A300750CFE750DFF780C12082C7900AC0AAD66
:1041B3000BAA0EAB0F120D66740412083F803E90DB
:1041C3000368E0650E7004A3E0650F701490229FEE
:1041D300E493FCA909AA0AAB0B120C7075080180C1
:1041E3001CA90CAC0AAD0BAA0EAB0F120CA0E97004
:1041F3000C750801A909AA0AAB0B120CFAA908024B
:104203003ED7E50C2415F582E50D12549B124EF8AA
:104213002274EA12036074F01208D38A0C8B0D8C9B
:10422300088D097426120A95E0F514A3E0F51575B7
:1042330012069003F512475E602390037512421035
:10424300AA08AB091210248A108B11EA4511600DDC
:104253008A828B83A3E07005790002454DE50C2427
:104263001DF50EE50D3400F50F850E8212474AF554
:104273001388828983A3A3A3E0FA88828983A3A3F3
:10428300A3A3E0F9EA2400FEE439FFAA08AB09126C
:104293000D00850E82850F83124588E029F50BE515
:1042A3000AA2E5500375120E7487550A7017741825
:1042B300550A6418600FE50C2417F582E50D125BAF
:1042C3005A651260077901121CAE808C530A78C3B9
:1042D300EE94F8EF94FF501D7900EEFAEFFB1245D0
:1042E30057601288828983A3A3A3A3A3A3E05418CE
:1042F300600302425B780812082C7D0012457B1292
:10430300083FE9F8740368700302425BE860030244
:1043130043C67418550A700302447BE50AD2E0F5DC
:104323000AA2E45004D2E1F50AA90A124BD11245BC
:1043330057605388828983A3A3A3A3A3A3E054183C
:10434300604488828983A3A3A3A3A3E06401703696
:10435300E5104511603090037512421088828983FD
:104363001245658A0E8B0FA80EA90FE849601788BE
:10437300828983A3E0600F851082851183A312567F
:10438300A9500302425BE50AF50E780E12083012BB
:10439300456E12083FE9702B7C007D0085148285F1
:1043A300158374FFF0A3F0850C82850D83A3A3A36B
:1043B300A3A3A3A3A3E06003124205A90B124BD14D
:1043C3001216D8851482851583E0F47003A3E0F4F4
:1043D30060399003B4E06402700302425B12490A3D
:1043E300E0FAA3E01239C9121E9FEA65087003EBD5
:1043F3006509600302425BEEFAEF1239C9121E9F90
:10440300851482851583EAF0A3EBF0780812082C53
:104413007D0112457B12083FA90AEEFAEFFB120D4C
:10442300548A088B09A808A909900368E0687003F7
:10443300A3E069600302453EEEFAEFFB120B628ACA
:10444300088B09A808A909E849606E88828983A3B3
:10445300A3A3A3E06401600D88828983A3A3A3A31C
:10446300E064027054851882851983AC82AD83EEB3
:10447300FAEFFB120AFC8055900361E0600FE50A36
:10448300F50E780E12083012456E12083FE50AF554
:104493000E780E12083079027CFE7DFFEEFAEFFBF8
:1044A30012473A12083FE960030243C68514828526
:1044B300158374FFF0A302440D120EC2EAFCEBFD58
:1044C300851882851983AA82AB83121CC6850C8248
:1044D300850D83A3A3A3A3A3A3A3A3E06401700FE8
:1044E3001242057408120A95AA82AB83121CC612E3
:1044F30047141253204430F5087808120830740129
:10450300120A95858208858309780812082C740B92
:10451300120A95858208858309780812082CE51309
:10452300F50878081208307900EEFCEFFD124BD144
:10453300120C9A740612083F02425B12471412547B
:104543008A124588E50BF0120EDA741012083F7FC9
:104553000E020579120D488A0E8B0FA80EA90FE8DB
:104563004922A3A3125077121024227901AC08AD7B
:104573000912506C12473A22AC0BA91312506C1259
:104583000D06740222125328A3A3A3A32274F012CC
:10459300036074F01208D38A0C8B0DECFAEDFB75F3
:1045A3000F089003F512475E60141256A28A828B9D
:1045B30083E58245836007A3E0700302470F124738
:1045C30014340012474AF50B8882898312471DE091
:1045D300FBEC2400FEE43BFF88828983A3A31247FC
:1045E3001DA3A3E0FBECF508E43BF509888289836E
:1045F300A3A3A3A3A3A3A3E0F50EE50AA2E4500398
:10460300750F10A2E550067408250FF50F748F552A
:104613000A700FE50C2417F582E50D125B5A650F3E
:1046230060087901121CAE02470F530A707800E547
:104633000AA2E45022124714125B5A2408FCA3E096
:104643003400FD7408120A95AA82AB83121CC67843
:1046530008E50AC2E4F50AE50AA2E5502812471460
:10466300125B5A28F8A3E03400F9E82408FCE93483
:1046730000FD851882851983AA82AB83121CC6E5C7
:104683000AC2E5F50AAC0EA90BEEFAEFFB120D0C0C
:10469300E9F87403686075900368E06E7003A3E043
:1046A3006F605EE87054E50AF50F780F1208301258
:1046B300472B12083FE97054780A1208307401122C
:1046C3000A9585820C85830D780C12082C740B12C5
:1046D3000A9585820C85830D780C12082CE50BF561
:1046E3000A780A120830A90EAC08AD09EEFAEFFBFE
:1046F300120C9A740612083F8012740468700D80BD
:10470300B7780A12083012472B12083F7410023E82
:10471300D4E50C241DF582E50D22A3A3A3E0FC88B8
:10472300828983A3A3A3A322790112491112549B63
:1047330012474012473A22120CC4740122E0FCA330
:10474300E0FDAA08AB0922F583123B50A3E0F50A6A
:1047530088828983A3A3E0229003391250D3227461
:10476300E812036074F51208D3EAFEEBFF8C088DA0
:104773000989147423120A95E0F50F7424120A951B
:10478300E0F512A3E0F5137426120A95E0F516A3DB
:10479300E0F5177428120A95E0F50EA90F120D1211
:1047A3008A108B117401120A957408F0E50EA2E4C5
:1047B30050037410F0E50EA2E55004E02408F085E0
:1047C3001882851983AA82AB83120F228A0C8B0D60
:1047D300EA450D70030248F1EA2417F582EB12490A
:1047E30003120EC2E50C241AF582E50D12548A1247
:1047F30034667403120A95AC82AD83AA10AB11120E
:104803000AFCE9601D1248FB7403120A95A882A9E9
:1048130083E50C2418F582E50D12548AE8F0A3E928
:104823008024E50EA2E4501FE5106E7003E5116FBE
:1048330070151248FBE50C2418F582E50D12548A15
:10484300E512F0A3E513F012490A124919850A8209
:10485300F5837402F0A3E50E124921E50FF0EE850E
:104863000A82850B83A3A3A3F0EF850A82850B83BA
:10487300A3A3A3A3124921A3A3A3E508F0E50985F4
:104883000A82850B83A3A3A3A3A3A3F0AA10AB114E
:10489300120D00E92514850A82850B83A3A3A3A324
:1048A300A3A3A3F0750800E50EA2E45011AC12AD6A
:1048B30013E50A2408FAE50B123E8D750808E50E88
:1048C300A2E55014AC16AD17E50A2508F8E50B343C
:1048D30000F9E82408123E8B850C82850D83A3A37F
:1048E300E510F0A3E511F0AA0CAB0D120B9E740BAF
:1048F30012083F7F10020579E50C2416F582E50DB9
:1049030012549B7401F02212491112549B22E50C9C
:104913001264A1E50D22E0F50AA3E0F50B22F08570
:104923000A82850B83A3A32274F21203608A088B85
:1049330009ECFEEDFF890A79001249BF7003A3E079
:1049430069700479018073750B01900368E0650851
:104953007004A3E06509601F750B00780B12083023
:10496300A90AEEFCEFFDAA08AB09120F7674011237
:10497300083FE9F50B80417900EEFAEFFB120D4891
:10498300EA4B602B8A828B83A3A3A3A3A3A3E05444
:1049930018601C7508FE7509FF780812082C8A82B6
:1049A3008B83A3A31206481262B612083F800979CB
:1049B30001EEFAEFFB120C22A90B8014120D548A9C
:1049C3000C8B0DA80CA90D900368E0682212083F18
:1049D3007F0602057974F412036075081B75090ECE
:1049E3007A10125FBE8B0BEA450B7003123CE79003
:1049F3000353E014F0700C90229DE493900353F062
:104A0300120D607E007F00806C850882850983A378
:104A1300A3A3A3E06059F46056E5082404F582E5F6
:104A2300091259867049850882850983A3A3A3A324
:104A3300A3E0640370197902850882850983124211
:104A430010850882850983A3A3124BD8120CA08575
:104A53000882850983A3A3A3A3A3E064016010854F
:104A6300088285098374FEF0A304124B32E4F0122A
:104A73003063122EB590228C12611A408C7E007F17
:104A8300008039120E688E088F09740378081209A2
:104A9300D474932508FC740F3509FD7AAC7B0C1292
:104AA3000E56EA4B70DD8E088F09740378081209DD
:104AB300D4124B00126361E4F0123063902293E44A
:104AC30093F8C3EE98EF9400501B8E088F0974037C
:104AD30078081209D4124B08E82407F582E9125921
:104AE3008670D680A17E007F00800A124B1360027D
:104AF30014F012306312611740F1023696124B081C
:104B0300888289832274932508F8740F3509F92262
:104B1300EEF8EFF9E875F006A4F8AAF075F006E9E7
:104B2300A42AF9743328F582740F39F583E022122D
:104B33004B39A3A3A322F0850882850983A3A3226B
:104B430074F712036074E11208D3ECFEEDFF7508ED
:104B530000EE4F60728A828B83E0241C1259B712D5
:104B6300475E60638A828B83124BD88518828519CE
:104B730083AC82AD83EA241BF582EB125888EA24C6
:104B83001CF582EB124BD4120EAA740B120A951267
:104B93004BDC7003A3E069702E7402120A95E06483
:104BA300017024741D120A951239CDE06401701747
:104BB300741D120A951239CFA3A3E0F88E828F8356
:104BC300E0687003750801A908741F023453124981
:104BD300113400F5831250772212280AE0682274F8
:104BE300F4120360E97024790090034D1239CD1259
:104BF3001E9F8A0A8B0BAE0AAF0B74FE6E70037492
:104C0300FF6F701A90229AE4936013790190034D19
:104C13001239CD121E9F8A0A8B0BAE0AAF0B120EEE
:104C2300E60231CB74F612036074F31208D3121444
:104C3300808A088B09AE08AF09900368E06E7003A1
:104C4300A3E06F60E9120ECEEA6E7002EB6F60DED6
:104C5300EEFAEFFB120F3AE970D4EE4F60D08518ED
:104C630082851983E4F004120A95EEF0A3EF124C47
:104C73008AE970BA74FE6E700374FF6F60B0EEFA67
:104C8300EFFB740D0234F2123577120B1422C0823B
:104C9300C083120EE602341E7F0A02057974F212F3
:104CA3000360EAFEEBFF8C0A8D0B8908740E120A6F
:104CB30095E0F50974FC6E700374FF6F700579005D
:104CC3000249D37900120D548A0C8B0DAE0CAF0D33
:104CD300900368E06E7003A3E06F7006E509A2E637
:104CE30050DCA9091261A4706179007AFE7BFF127E
:104CF30061A47056741855097003024DD778007972
:104D0300008003122A0490228C1229FB4003024DD7
:104D1300D7E8FAE9FBEA75F007A4FAACF075F007F7
:104D2300EBA42CFB74212AF582740E3BF583E0542B
:104D33001870D0E875F007A4F8AAF075F007E9A495
:104D43002AF9741B28F8740E39F988828983A3A37E
:104D5300A3A3A3A3E05418600974185509700302B0
:104D63004CC188828983EEF0A3EFF074FE650A706C
:104D73000474FF650B6003124EFE88828983A3A32C
:104D8300A3A3A3A3E509F0A2E0500D88828983A31E
:104D9300A3A3A3A3A3D2E2F0740165088882898345
:104DA300A3A3A3A3A370387401124F22E054186085
:104DB3002890229EE49388828983A3A3A3A3124EFF
:104DC300EC1210248B0DEA450D6003024CC17800F0
:104DD300790080397902024CC3900367E080D7E001
:104DE30064017003024CC188828983A3A3A3A3A394
:104DF300A3E05418600790229EE493800490036616
:104E0300E0123E94E508F0024CC1122A0490229469
:104E1300E493FAC3E89AE994004003024CC17A0090
:104E23007B00804BEAFCEBFDEC75F007A4FCAEF0D5
:104E330075F007EDA42EFD741D2CF582740E3DF55F
:104E4300831254A3E8FCE9FDEC75F017A4FC85F08C
:104E53000975F017EDA42509FD74AB2CF582740CCC
:104E63003DF583E06E7003A3E06F609E122F3890D0
:104E7300228C122EC540AD123F1EEC6A7002ED6B00
:104E83007088E875F017A4F8AAF075F017E9A42A5A
:104E9300F974AB28FE740C39FF7C177D007900EEA2
:104EA300FAEFFB12146E8E828F83124F04900375F8
:104EB300124EDEA3A3A3A3A3A3E8F0A3E9124EE437
:104EC3007401F0EE240E1254877401124F0C120277
:104ED3000FEE240D125487E8024E09123436A3A3B1
:104EE30022F0EE240F12549822F0124EF5AA0AABC8
:104EF3000B22900375E0FCA3E0FD2288828983A343
:104F0300A3E50AF0A3E50BF022F0124F1122902241
:104F130097E4932401F8E43400F97A027B00221227
:104F23003EA0A32274ED1203608A088B09890E1236
:104F3300505540057905025023121720AA08AB09E2
:104F430012512790228A125026650A7003E9650BD5
:104F530070077AFE7BFF12512790228AE412502EAB
:104F6300E50A98E50B994003025021125032601272
:104F7300E50A75F006A4F875F006E50B12507D12EC
:104F83001510E50E6018E50A75F006A4F8AAF07589
:104F9300F006E50B1250A9701A7901025023E50AB5
:104FA30075F006A4F8AAF075F006E50B12508AE432
:104FB300F0A3F0E50A75F006A4F8AAF075F006E58B
:104FC3000B12504AA312533688828983A3AA82AB59
:104FD300831250988A828B83E0603F125032603A8A
:104FE3008E108F117512007810120828E50EC33346
:104FF300FCE433FDE50A75F006A4F50AA8F075F0A4
:1050030006E50BA428F50B7437250AF582740F35D2
:105013000B124BD6122ED612083F79008002790765
:105023000261BA122B5DE822902282125B4122E5D3
:105033000A75F006A4F8AAF075F006E50B12508580
:10504300F8A3E0F9E84922A42A1251DE8882898371
:10505300A322ECFEEDFF902295E493F8E9C3982296
:10506300F58312507712151022E50C1264A1E50D99
:105073003400F583E0FAA3E0FB22125085FAA3E0A3
:10508300FB2212508AE022A42AF9743728F582748D
:105093000F39F58322E50EF09010D41250A222E0CE
:1050A30088828983F022125202F50CE93400F50D4F
:1050B300E50EC333FAE433FB12150A850C82850D22
:1050C30083EAF0A3EBF0850C82850D831250D32283
:1050D300123ECCE8492274F4120360ECFEEDFF7437
:1050E3000C120A951234E088088909125127AC0A78
:1050F300AD0BECF8EDF990228A12512F5021E8758F
:10510300F006A4F8AAF075F006E912504AE08E8280
:105113008F831251421251381234EC790080027994
:1051230004023696120CD68A0A8B0B22122ECEC399
:10513300EC9AED9B22123EC88508828509832212D0
:1051430052172274F61203607E007F008028EEF867
:10515300EFF9E875F006A4F8ACF075F006E9A42CB5
:10516300F9743528F582740F125DC56A7003A3E0E4
:105173006B605712306312611740D31261127002D1
:10518300E96F704674FE6A700374FF6B703C7E00B7
:105193007F008003123063126117502E124B13707D
:1051A300F3EEF8EFF9E875F006A4F81251D41252B1
:1051B3000960171251F0F8E91251E888821250631E
:1051C300850882850983E4F0A3F0EEFAEFFB02344D
:1051D300F575F006E91251DC22A42AF9743328F894
:1051E300740F39F9223400F98808890922EEF8EF9F
:1051F300F9E875F006A4F875F006E91252022212D6
:1052030051DCE8240422A3A374FE1252141250D3D7
:1052130022F0A30412521B22F088828983A3A3A342
:10522300A32274F6120360EA241DF582EB125320C5
:10523300F9604BEA241DF582EB125B5A2402FCA3AE
:10524300E03400FD125059400302531378008029C3
:105253008C828D83E0F508A3E0FFE5082400E43F9A
:10526300F509E833FEE433FF747B2EF582740F3FB8
:10527300F58312533612531608E8C39940D28A8233
:105283008B83A3A3A3A3A3A3A3A3A312421090035B
:1052930068E06C7003A3E06D700F7C7B7D0F1227B9
:1052A30073124BD4120CCA8067EA2411F582EB12F5
:1052B3005B5A605CFC74FF2CF075080178081208D7
:1052C3003075087B75090F780812082CE9F5087802
:1052D30008120830EA2412F582EB125B5AF50878BB
:1052E30008120830EA2415F582EB12548A12064894
:1052F300ECF912277312420D8A828B83A3A3A3A313
:10530300A3A3A3A3A3124BD8120CE2740712083F62
:105313000234F5EC24020C0CED3400FD2212549BF4
:10532300125328E022E0F8A3E0F5838882A32288C1
:10533300828983E508F0A3E509F02274EA12036089
:1053430074FD1208D38A148B158C0E8D0F890D747E
:1053530019120A951254A3741B120A95E0F51174DD
:105363001C120A95E0F50C741D120A951249197462
:105373001F120A95E0F5106008E50CC3332404807E
:10538300027402C0E07401120A95D0E01254B48A88
:10539300088B09EA4509700302547F8A828B83A331
:1053A300A3E514F0A3E515125FADE50EF0A3E50F39
:1053B300F0EA2413F582EB12548AE50DF0EA241483
:1053C300F582EB12548AE511F0EA2417F582EB1209
:1053D3005B5A64017040120EC88A0E8B0FA80EA987
:1053E3000F850882850983A3A3A3A3E0687003A3A1
:1053F300E0696022EE4F6011E508241AF582E509A1
:1054030012548AEEF0A3EF800CE5082417F582E529
:105413000912548AE4F012548E1254A38E828F839D
:105423007405F0A3E5107004E50C80487401250CA5
:105433001254AD7A008028850A82850B83E01254CA
:10544300A9850A82850B83A3E08E828F83F0E50A08
:105453002402F50AE50B3400F50BA30EAF830AEA29
:10546300C3950C40D2120EC8EA1254A9120EC8EB0F
:105473008E828F83F0AA08AB09120B9E7403024538
:105483004FEE240CF582EF12549B22122784125400
:105493009B22EE240BF582EF3400F5832290033434
:1054A300E0FEA3E0FF228E828F83F0A3AE82AF8360
:1054B30022123577120F2222C082C083E9C333FC44
:1054C300E433FDEA2CFAEB3DFBEA24FEF582EB34F0
:1054D300FF124BD602341E74F212036089098A0A42
:1054E3001250554004790080407508008002050879
:1054F300E508C39509502AE508C333F8E433F9EE08
:1055030028F582EF39F583C082C083120EC88A0C56
:105513008B0DD083D082E0650C7004A3E0650D7021
:10552300CDE50A650870BE79010249D374F0120310
:105533006074F31208D38A088B098C0A8D0B890CCB
:10554300750D00120F3AE979006003025631AA087B
:10555300AB09120D54A90C120D488A0E8B0FAE0E17
:10556300AF0FEE4F700302562F8E828F83A3A3A338
:10557300A3A3A3E0A2E2400302562F120EC8EA65DA
:105583000A7003EB650B7011780D120830E4F50E09
:10559300F50F780E12082C8044AA0AAB0B120B5697
:1055A300E9640170688518828519837404F07401B5
:1055B300120A95124F04851882851983AA82AB8338
:1055C300120B14E964017045750D01780D12083052
:1055D300E4F50EF50F780E12082C750D00780D12F8
:1055E3000830780D1208307408120A9585820E85EA
:1055F300830F780E12082C9022A0E493F9AC0AAD25
:105603000BAA08AB09120CE2740712083F8E828FB3
:1056130083A3A3A3A3A3A3E0A2E1400D8E828F8360
:10562300A3A3A3A3A3A3C2E2F0750D01A90D023E98
:10563300D274F6120360E9FE7900120D54EEF912EA
:105643000D488A088B09A808A909E849600612646D
:10565300E8F9800279040234F574F61203607E07D8
:1056630090035CE070341256A28A088B09A808A93B
:1056730009E8496025900361E0640188828983A376
:10568300A3700B1256A9888289835001A3A3E0F962
:10569300121042E9FEEE70027E07EEF90234F512B3
:1056A3004EF512102422E0FA88828983A3E0C39A7C
:1056B3002274EE120360EAFEEBFF890A8C0C8D0B59
:1056C3007412120A9512342A12577E12505C5051EA
:1056D300890E750F007403780E1209D47499250E80
:1056E300F582740F350FF583E0F8E50CC398502D60
:1056F300E50B6024751100740378101209D47493B8
:105703002510F8740F3511F988828983A3A3A3A305
:10571300A3A3E50C125788F07900024C9B79038010
:10572300F979007AFE7BFF12577EE49365107004CB
:10573300790280E6E50B60E0890E750F007403784B
:105743000E1209D47493250EF8740F350FF988825D
:105753008983A3EEF0A3EF125788124F22E50C12B0
:105763003E9C74FF126367E50AF0900366E088824B
:105773008983A3A3A3A3A3A3A3809C120D42E9F54A
:1057830010902293221264AAA3E508F0A3E509224C
:1057930074F6120360ECFF120D4290229312505CD8
:1057A30050278908750900740378081209D474987E
:1057B3001257D2740F126019E0F8EFC3985006EF36
:1057C300F0790080067903800279040234F5EA2532
:1057D30008F5822274F4120360EAFEEBFF120D4215
:1057E300E9F50A90229312505C5019750B0074036B
:1057F300780A1209D47496250AF582740F350B12B0
:105803004BD6801890034B12475E600CEEFAEFFB09
:105813001239D0121E9F80047AFE7BFF02369674E3
:10582300F61203608A828B83A3A3A3A3A3E4F0F8F5
:10583300800108902299E493F9E8C399501E8808DF
:105843001258808C828D83A3A3A3A3A3A3A3A3E055
:105853006970DFECFAEDFB120E6E801EE493687044
:10586300198C828D83A3A3A3A3A3A3A3A3A37406C9
:10587300F07A008C828D831259AB0234F5741B25A8
:1058830008F5827410125B66F92274F4120360EA5D
:10589300FEEBFF8E828F83A3A3E0141259C2A3E011
:1058A300F9120E4A8A088B09EA45097003025983E3
:1058B3008E828F83A3A3E070358A828B83A3A3A3F5
:1058C300A3A3A3A3A3A3E064028A828B83A3A3A3BA
:1058D300A3A3A3A3A3A360107406F07AF0850882A0
:1058E3008B831259AB0259837406F00259838E825B
:1058F3008F83A3A3A3A3A3A3E060738E828F83A349
:10590300A3A3A3E0607AEE2403F582EF1259867015
:105913006F90035512598C1259C2E014125FA4E020
:105923006403705C8E828F83A3A3A3A3E0700DAC8A
:1059330008AD09EEFAEFFB120D1880448A828B83BF
:10594300A3A3A3A3A3A3A3A3A37404F0121480EAA1
:10595300540F04850882850983A3A3A3A3F0A3E4BA
:10596300F07A20FB1259A2701712599580128A827D
:105973008B83A3A3A3A3A3A3A3A3A3E0640360AF05
:10598300023696125B6614F022E08E828F83A3A305
:10599300A3227A207B009003C2E0F91214C22212E0
:1059A3005FC08B09EA450922E0240C1259B7E0F9DC
:1059B300120D9022F8A3E03400F988828983221221
:1059C30059C7A3221234D2A3A3A32274F6120360ED
:1059D30079007E0080258E0875090074037808120B
:1059E30009D474D32508FA740F3509FB8A828B8393
:1059F300A3A3E06005120D1E79010E902299E49392
:105A0300F8EEC39840D0E9A2E07A407B009003C24D
:105A1300E0F950151215D08B09EA4509700E7C6424
:105A23007D007A40123CED80031215CA0234F574EE
:105A3300F4120360ECFEEDFF7508D375090F7C00CB
:105A43008045850882850983A3A3A3A3A3A3A3E019
:105A5300F8EA2412F582EB125B5A68701F850882FC
:105A63008509831234E0125B5E687003A3E06970FA
:105A73000B850882850983A3A3E070200CE5082425
:105A830008F8E5091251E8902299E493F8ECC398D9
:105A930040B0E4936C7005790002369685088285E0
:105AA3000983A3A3A3A3A3A3E07004790180EA124B
:105AB30061B2120FFA8B0BEA450B600F85088285E2
:105AC3000983A3A3A3A3A3A3E014F07C0080010C88
:105AD3008C0A125B345020EC125B6C60F212307B48
:105AE3006E7003A3E06F70E7850882850983A3A323
:105AF300A3A3A3A3E014F0902294E493F89022824A
:105B0300E49328F8A3E4933400F985088285098394
:105B1300A3A3A3A3A3A3E0FAC3E89AE99400508B39
:105B2300850882850983A3A3A3A3A3A3E4F0025A50
