:020000040000FA
:06000000020A820201C7A2
:03002B000208BD0B
:030033000206D9E9
:030043000207723F
:030053000200F8B0
:03006B000206BFCB
:1000830002015C0101FF05030142104210421042CC
:1000930010FE0EF80E4210231E00000000E71E00A3
:1000A3000000000C0000000C000100001012000012
:1000B30000000000CA120000000000000000000061
:1000C300FFFF010101002D050000007E05E8036428
:1000D300006400B801020200080000050207051EC3
:1000E30002051E0A03B80B020102F1FF0296511822
:1000F3000002020612C0E074F21203E0A2AFE4337E
:10010300FED2AFE5A7FFE5A1F5085F541060061224
:10011300194875A1EFE5085F5408600812194E7578
:10012300A1F7802BEFA2E0C0D0E508A2E092F01285
:1001330009BF158182F05017906198E0F890085735
:10014300E0C398A2D265D0335002E8F075A1FEEE69
:10015300A2E092AF7F0102043FC0E074F21203E019
:10016300A2AFE433FED2AF9061A4E0F8759B00E543
:100173009158540860087591F7121996802AE591F1
:1001830058541060087591EF12199C801BE8A2E087
:10019300C0D0E591A2E092F01209BF158182F05020
:1001A30007E0C2E0F0121AE09061A3E0F8E5E95835
:1001B3005404600E121AB675E9FB906193E0A2E64F
:1001C30040F2808BC0E074F21203E0A2AFE433FE8E
:1001D300D2AF9061A5E0F8E5BF585404600675BF3F
:1001E300FB121AF8020152C3E498F8E499F91202D7
:1001F3002B8026C3E49AFAE49BFBE920E7E9120289
:100203002BE498F8E499F922C3E498F8E499F912F5
:10021300022BE498F8E499F9C3E49AFAE49BFB22ED
:10022300EB20E7CFE920E7E0B90010BB0008E88A3C
:10023300F084F8AAF022E4FBC8FA22EB70227B10C8
:10024300C833C8C933C9335007C39AC3DBF2800626
:100253009A50012ADBEAC833F4C8C933F4C9FA2235
:1002630075F008E4C833C8C933C933C99AC99B5068
:1002730004C92AC93BD5F0ECFBC833F4C8E4C9FA76
:1002830022080808EAC0E0EBC0E086F0E7A4FA1809
:100293000986F0E7A42AFA180986F0E7A42AFA18CF
:1002A3000986F0E7A42AFA1986F0E7A4FBE5F02A09
:1002B300FA190886F0E7A42BFBE5F03AFA19088649
:1002C300F0E7A42BFBE5F03AFA18180986F0E7A447
:1002D300C5F02BFBE43AFA1908E7C5F0C6A426F6E5
:1002E300E5F03BFBE43AFA1886F0E7A4F6E5F008FC
:1002F30026F6E43B08F6E43A08F6D0E0FBD0E0FA51
:1003030022E4CFC0E0E4CEC0E0E4CDC0E0E4CCC062
:10031300E075F020C3E633F608E633F608E633F675
:1003230008E633F6181818EC33FCED33FDEE33FE14
:10033300EF33FFC3EC9709ED9709EE9709EF971990
:100343001919400FFFEC97FC09ED97FD09EE97FE95
:10035300191906D5F0BEECF709EDF709EEF709EF29
:10036300F7191919D0E0FCD0E0FDD0E0FED0E0FF92
:10037300222518C582C0E0E51934FFC583C0E0E536
:1003830018C3958224F810AF0885831985821880D5
:1003930008858319858218D2AFCEF0A3E520F0A398
:1003A3007808E608F0A3DEFAEFF0A3E58124FAF873
:1003B300E608F0A3E608F0A3E608F0A30808E608B9
:1003C300F0A3E608F0A315811581D0E0FED0E0F894
:1003D300158115811581E8C0E0EEC0E022C0D0256B
:1003E30018C582C0E0E51934FFC583C0E0E518C332
:1003F300958224F310AF08858319858218800885B8
:100403008319858218D2AFC8F0A3E9F0A3EAF0A359
:10041300EBF0A37908E709F0A3D8FAECF0A3EDF029
:10042300A3EEF0A3EFF0A3D0E0F0A3D0E0F0A3D0CD
:10043300E0F0A3E520F0A3E5F0F0A322851983857E
:100443001882E0C0E0A3E0F9A3E0FAA3E0FBA378FD
:1004530008E0F608A3DFFAE0FCA3E0FDA3E0FEA3B7
:10046300E0FFA3E0C0E0A3E0C0E0A3E0F5D0A3E099
:10047300F520A3E0A3F5F010AF0885831985821852
:100483008008858319858218D2AFD082D083D0E0CB
:10049300F8D0E032120AE4B900030204D9E490036D
:1004A3000178AE790A8002F0A3D8FCD9FA900CAE99
:1004B300AA82AB83900086787379018015E493A3B5
:1004C300AC82AD838A828B83F0A3AA82AB838C82B6
:1004D3008D83D8E9D9E77582CE75839874031208A2
:1004E3003575828C75831D74001208350875F010FC
:1004F3008E1A8F1B85821F85831E8518828519831B
:10050300E0CEA3E0CF851F82851E83EBC9EAC8ED49
:10051300CBECCAC3E833C8E933C9EA33CAEB33CBFC
:10052300C3EA9EF51DEB9FF51CB35004AB1CAA1D3B
:10053300EC33CCED33CDD5F0DAAE1AAF1B22D0833A
:10054300D082ECC0E0EDC0E0E493A3FCE493A3FD10
:10055300ED4C600D120619EC24FFFCED34FFFD8019
:10056300EFE493A3FCE493A3FDED4C600D12071D90
:10057300EC24FFFCED34FFFD80EFD0E0FDD0E0FC88
:10058300E493A3C0E0E493C0E02285198385188235
:10059300E0A3FEE0A3F5207808E0A3F608DFFAE085
:1005A300A3FFE0A3C0E0E0A3C0E0E0A3C0E0E0A3BA
:1005B300C0E0E0A3C0E010AF0885821885831980EE
:1005C30008858218858319D2AFD083D08202083B75
:1005D300D083D082E9C0E0E493A3C386F0C5F0954D
:1005E300F0F908E493A386F0C5F095F0700BE4935B
:1005F300A3C3994005E9048002A3E475F002A4258E
:1006030082F582E5F03583F583D0E0F9E493A3C066
:10061300E0E493C0E022C0E0C3E49396087401933E
:100623009618400FE4936670080874019366187077
:10063300007019A3A3C3E49396087401939618A3B7
:10064300A3400DD0E0D0E0D0E002057DA3A3A3A397
:10065300A3A3D0E022D083D082C5F0E493A3C5F056
:10066300C395F0F5F0E493A3C395F04005E5F004DA
:100673008001E475F002A42582F582E5F03583F567
:1006830083E493A3C0E0E493C0E022740480047481
:10069300028000CCC0E0EDC0E0E518C39CCCAD19EE
:1006A30050011D10AF068C188D1980068C188D19FA
:1006B300D2AF1207B7D0E0FDD0E0FC22C0E074F265
:1006C3001203E0E589A2E15003121822758900C2E2
:1006D300C57F0102043FC0E074F21203E0E58BA280
:1006E300E05003121822758B00C2E880E474028084
:1006F30000CCC0E0EDC0E0E518C39CCCAD195001BF
:100703001D10AF068C188D1980068C188D19D2AF69
:10071300120795D0E0FDD0E0FC22C0E0C0F088F0E5
:10072300E4936670080874019366187000A8F0A338
:10073300A3700BD0F0D0E0D0E0D0E002057DA3A3FE
:10074300D0F0D0E022D083D082CCC0E0E493A36089
:10075300061208161470FAE493A36006120907142C
:1007630070FAD0E0FCE493A3C0E0E493C0E022C0BD
:10077300E074F21203E0A2AFE433FED2AFC2C0E5ED
:10078300D1A2E450031218BEEEA2E092AF7F0102A1
:10079300043FCAC0E0E493A3C582CCC582C583CD20
:1007A300C583F0A3C582CCC582C583CDC583DAE5F5
:1007B300D0E0CA22CAC0E0E0A3C582CCC582C5830B
:1007C300CDC583F0A3C582CCC582C583CDC583DAED
:1007D300E6D0E0CA22700908080822601618181823
:1007E300C6C333C608C633C608C633C608C633C62F
:1007F300D5E0EA22C008C3E096F50808A3E09642D4
:100803000808A3E096420808A3E09645087001D3C0
:10081300D00822C0E0E493A3D39C5010E493A3C375
:100823009C400AD0E0D0E0D0E0020765A3A3A3D0A8
:10083300E022C09FF59FE473D09F22D083D082C073
:100843009FE493C0E0740193C0E0740293F59F2288
:100853007404800A74038006740280027401C0E089
:10086300F40412086ED0E0120ABF222518F5821094
:10087300AF08F518400215198008F518400215193C
:10088300D2AF85198322BB0102E722C082C08389CC
:10089300828A83BB0003E08002E493D083D0822268
:1008A300C0D0251810AF08F518500205198008F5B7
:1008B3001850020519D2AFD0D022C0E0C0D0E8C092
:1008C300E0E5A8D2AFC2C7A2E792AFD0E0F8D0D09C
:1008D300D0E0326016080808C6C313C618C613C68C
:1008E30018C613C618C613C6D5E0EA22C3E0C696D7
:1008F300F608A3E0C696F608A3E0C696F608A3E0BA
:10090300C696F622C0E0E493A36C7009D0E0D0E071
:10091300D0E0020765A3A3D0E022251810AF08F5A5
:1009230018400215198008F51840021519D2AF2294
:10093300E76670100809E766700A0809E76670043D
:100943000809E76622E066701008A3E066700A08EB
:10095300A3E066700408A3E06622C3E09608A3E060
:100963009608A3E09608A3E096A2D265D03322C3EB
:10097300E096F008A3E096F008A3E096F008A3E061
:1009830096F022E026F008A3E036F008A3E036F064
:1009930008A3E036F022E627F60809E637F6080949
:1009A300E637F60809E637F622E026F608A3E0362E
:1009B300F608A3E036F608A3E036F622C0E0E8C066
:1009C300E0E58124FCF8E6A2E7D0E0F8D0E022E6F7
:1009D30047F60809E647F60809E647F60809E64731
:1009E300F622E657F60809E657F60809E657F60829
:1009F30009E657F622E056F608A3E056F608A3E008
:100A030056F608A3E056F622E056F008A3E056F0A7
:100A130008A3E056F008A3E056F022700422600D0C
:100A230018C6C333C608C633C6D5E0F41822E4C3D8
:100A330096F608E496F608E496F608E496F622603D
:100A43000D08C6A2E713C618C613C6D5E0F322C61F
:100A5300F4C608C6F4C608C6F4C608C6F4C622C35C
:100A6300E7960809E7960809E7960809E79622C377
:100A7300E09608A3E09608A3E09608A3E096227503
:100A8300D00075814075180175190300020497E0C1
:100A9300F608A3E0F608A3E0F608A3E0F622600C4C
:100AA30008C6C313C618C613C6D5E0F422E6F00879
:100AB300A3E6F008A3E6F008A3E6F022CAC0E0E646
:100AC300F0A308DAFAD0E0FA22E0FAA3E0FBA3E00D
:100AD300FCA3E0FD22EAF0A3EBF0A3ECF0A3EDF01E
:100AE30022E5C754F84401F5C77901222518F58298
:100AF300E43519F58322C2AF75D69F020000221296
:100B0300083E31B40112083E80B60112083ED3B745
:100B13000112083E76B80112083EC1B90112083E1F
:100B2300DFB90112083EBD580012083ECF5800122B
:100B3300083E21590012083E82590012083E0C5A01
:100B43000012083EB05A0012083E045B0012083E31
:100B53001D5B0012083E435B0012083E7E5B0012E1
:100B6300083EC25B0012083EE95B0012083E3A5C95
:100B73000012083EEA5C0012083EA25D0012083E25
:100B83006A5E0012083E475F0012083ECD5F001206
:100B9300083EDC5F0012083EE75F0012083EF0608B
:100BA3000012083E01610012083E77610012083E00
:100BB30009620012083E61620012083E27630012B8
:100BC300083E58630012083E9D630012083EAA6364
:100BD3000012083E3E650012083EA1660012083E60
:100BE300BD670012083E276A0012083E326A0012EF
:100BF300083E3C6A0012083E476A0012083E516AEA
:100C03000012083E5B6A0012083E666A0012083E44
:100C1300716A0012083EA26A0012083EC66A0012F8
:100C2300083EEA6A0012083E4F6B0012083E936BBF
:100C33000012083EAF6B0012083E266C0012083EFD
:100C43005E6C0012083EAA6C0012083E076D00128B
:100C5300083EE96E0012083E6F6F0012083E4070B6
:100C63000012083E50730012083EA5730012083E9E
:100C7300D1730012083E1D750012083E6D750012F7
:100C8300083EC2750012083EC3760012083E5B7729
:100C93000012083EDD770012083E7D780012083E00
:100CA30008210012083E41210012083E1B230012B6
:100CB300083E5A230012083EA4230012083E49248A
:100CC3000012083EA8240012083EDC240012083E4D
:100CD30049250012083E66260012083E6E270012C0
:100CE300083E04280012083E4B2B0012083EF42B4A
:100CF3000012083ED02C0012083E312D0012083E8F
:100D03004E2E0012083E78300012083E2F3100129A
:100D1300083E39310012083E6C310012083E33326E
:100D23000012083ECE320012083E33330012083E52
:100D33005C330012083E7E330012083EAD350012CC
:100D4300083E84360012083EC8360012083E353786
:100D53000012083EF0370012083E22380012083E07
:100D630066380012083E99380012083EEE38001229
:100D7300083E43390012083ED7390012083E393A7B
:100D83000012083EA13A0012083E4A3C0012083EF7
:100D9300323D0012083E743E0012083EA24000128B
:100DA300083E62410012083E91430012083E34445B
:100DB3000012083E72440012083E1E460012083E0E
:100DC30032460012083E3C460012083E66460012B8
:100DD300083E72460012083E91460012083E4847FC
:100DE3000012083E87470012083E91470012083E52
:100DF30045480012083E44490012083E3D4A00128D
:100E0300083EDA4A0012083E7C4B0012083E934B20
:100E13000012083ECA4B0012083EE84B0012083E7F
:100E23002C4C0012083E514C0012083E374D001264
:100E3300083EA34D0012083E1D4E0012083E2C4FE3
:100E43000012083E6B500012083ECD500012083EBF
:100E530087510012083EAA510012083E7E5200122A
:100E6300083EC9520012083E0B530012083E62535B
:100E73000012083E99530012083EC7530012083E61
:100E830000540012083E25540012083EAD540012CF
:100E9300083ED0560012083E2F570012083EC35793
:100EA3000012083E2F580012083E83580012083ED5
:100EB300D7BB0312083E16BC0312083E24BB011223
:100EC300083E7EBB0112083EDABB0112083E26BC77
:100ED3000112083E41BC0112083E72BC0112083ED9
:100EE3008FBC0112083E9BBC0112083E0FBE0112CB
:100EF300083E28BE0112083E8FBE0112083EA2BE64
:100F03000112083EB0BE0112083E64BF0112083E42
:100F130048C00112083E4EC10112083ED4C101125D
:100F2300083EDEC10112083E4BC20112083E62C2F6
:100F33000112083E94C20112083ECDC20112083EBE
:100F4300F7C20112083E58C30112083E78C30112CA
:100F5300083E96C30112083EDCC30112083E02C5D7
:100F63000112083E4FC50112083E7EC50112083E1C
:100F7300F4C50112083E1CC60112083E55C60112F3
:100F8300083E63C60112083EBBC60112083E0AC7EB
:100F93000112083E49C70112083E79C70112083EF3
:100FA300A5C70112083EB0C70112083ECEC7011201
:100FB300083E90C80112083E9AC80112083ED5C8DF
:100FC3000112083EEBC80112083EF4C80112083EA4
:100FD30049C90112083E5DC90112083E6BCA0112DC
:100FE300083E7ECA0112083E93CA0112083E35CB61
:100FF3000112083EB8CB0112083E76CC0112083E1E
:1010030081CC0112083EA7CD0112083EC3CD0112C7
:10101300083E15CE0112083E54CE0112083E69CE99
:101023000112083EABCE0112083EF8D00112083E71
:1010330076D10112083EE9D10112083E0BD4011208
:10104300083E23D40112083E26D40112083E32D4AE
:101053000112083E46D40112083E4ED40112083E46
:1010630081D40112083E31D50112083EA7D50112E1
:10107300083E1AD60112083ECED60112083E83D787
:101083000112083EA2D70112083E42D80112083EBF
:101093004ED80112083E79D80112083E7CD80112BD
:1010A300083EE6D80112083E0EDA0112083EE6DADF
:1010B3000112083E71DB0112083E8ADC0112083E70
:1010C30047DD0112083E80DD0112083EB1DD011249
:1010D300083E51DE0112083E81DE0112083E5CDF4C
:1010E3000112083EF5DF0112083E80E00112083EBE
:1010F30031E10112083EB3E10112083EE5E10112BC
:10110300083E26E20112083E71D20212083ED6D2F0
:101113000212083E13D30212083E62D30212083EA3
:1011230078D50212083E5BD70212083EC5DA0212D6
:10113300083E00DB0212083E22DB0212083E85DB7A
:101143000212083EB9DB0212083EDCDB0212083E43
:1011530009DC0212083E65DC0212083E5BBC021287
:10116300083ED9BC0212083E0FBD0212083E7BBDE9
:101173000212083EEEBE0212083E0ABF0212083EE9
:101183004FBF0212083EDDBF0212083E36C00212F4
:10119300083E63C10212083E75C20212083ED2C263
:1011A3000212083E3EC30212083E9FC30212083ECB
:1011B300E0C30212083E8DC40212083E9FC502120C
:1011C300083ECAC50212083E15C60212083E5CC696
:1011D3000212083EEEC60212083EA9C70212083EDA
:1011E30046AF0312083E57AF0312083EA8AF0312DF
:1011F300083EEDAF0312083E97B00312083EC4B792
:101203000312083E9FAD0312083EF7AE0312083ED9
:1012130020C80212083EC5C80212083EE5C80212E1
:10122300083E05C90212083E19C90212083E71C9D7
:101233000212083EA1C90212083E22CB0212083E46
:10124300C8CB0212083EAACC0212083EFBCC021203
:10125300083E3ECD0212083E81CD0212083EE7CD84
:101263000212083E08CE0212083E94CE0212083E35
:10127300C5CE0212083E39CF0212083EE7D0021251
:10128300083EC1D10212083E03D20212083E5DD2CB
:101293000212083EF0FD0212083E11FE0212083E41
:1012A30047FF0212083E71FF0212083EDE95031249
:1012B300083E59960312083E64960312083E85962B
:1012C3000312083E1EB00212083E21B00212083E6D
:1012D300DBB00212083E06B10212083E4DB1021203
:1012E300083E72B10212083E93B10212083EC7B122
:1012F3000212083E00B20212083E29B30212083E4F
:1013030060B30212083E80B30212083E1BB40212FD
:10131300083EE0B40212083E17B50212083E8CB62E
:101323000212083E2FB70212083E28B80212083EE6
:1013330051B80212083EA5B80212083E6BB9021258
:10134300083E99B90212083E2EBB0212083EAFBBFB
:101353000212083EE2BB0212083EA9F60112083E41
:10136300B3F60112083EFFF60112083E6DF70112B3
:10137300083E8EF70112083EA5F70112083E55F804
:101383000112083EE9FA0112083EF2FA0112083E80
:101393005AAA0112083E6EFB0112083ED5FB011248
:1013A300083E66FC0112083EA8FC0112083EF2FC4E
:1013B3000112083E51FD0112083EE2FD0112083EF2
:1013C30021FE0112083E60FE0112083E95FE011245
:1013D300083EA7FE0112083EB9FE0112083ED8FEE0
:1013E3000112083EE1FE0112083E97FF0112083E7A
:1013F3003AB30112083E00800312083ED380031261
:10140300083EED800312083EFE800312083E13835C
:101413000312083E32830312083EE9A70312083E73
:101423001FA80312083E68A80312083EB8A90312B6
:10143300083E5BE20112083E9AE30112083ED6E33E
:101443000112083E95E50112083EBEE50112083E71
:1014530051E80112083E95E80112083E1EEA011206
:10146300083EB6EA0112083E1EEB0112083EBFEB2E
:101473000112083E01EC0112083E41EC0112083E44
:10148300CCED0112083E3CEF0112083E61F101125E
:10149300083E8FF10112083EB6F10112083EBFF17A
:1014A3000112083E1AF20112083EADF20112083E83
:1014B300CBF50112083E4CF60112083E2FBD031274
:1014C300083E8CBB0312083E668F0312083E798FD9
:1014D3000312083E16900312083E51900312083E71
:1014E3006C900312083E91900312083ED6900312AB
:1014F300083E07910312083E38910312083EBE923C
:101503000312083E0FB20312083E45B20312083E0F
:1015130061B20312083EA3B20312083EB3B2031230
:10152300083E48B30312083EB1DC0212083EB3DDA5
:101533000212083EC9DE0212083E22DF0212083EF2
:10154300F0E20212083E10E40212083E16E502120F
:10155300083E6BE60212083E1BAA0312083E72AA5B
:101563000312083EDBAA0312083E16AB0312083E21
:101573005CAB0312083EB2AB0312083E8FA002120B
:10158300083EE7A00212083E91A10212083E39A2CA
:101593000212083E96A20212083EEFA20212083E71
:1015A30003A30212083ECDA40212083E48A502126C
:1015B300083E72A50212083E2FA70212083E4AA750
:1015C3000212083E99A70212083EAFA70212083E74
:1015D300BCA70212083EF0A70212083E06A8021298
:1015E300083E8CA80212083E9BA80212083EF4A8EB
:1015F3000212083E4EA90212083E9CA90212083E9E
:10160300A6AA0212083E28AD0212083EC2AD02127B
:10161300083E04AE0212083E99AE0212083EB6AE70
:101623000212083EB9AE0212083EBCAE0212083ED8
:101633002FAF0212083E4AAF0212083E76AF0212E3
:10164300083EB1AF0212083EB4AF0212083EC7AF64
:101653000212083EEEAF0212083EB8BA0312083E69
:10166300C4BA0312083EFEBA0312083EBE90021229
:10167300083EE9900212083EB5910212083E3A92E2
:101683000212083EA3920212083EEF920212083E93
:101693006E930212083E00940212083E8C940212CA
:1016A300083ECE940212083E3A990212083EBA9AB4
:1016B3000212083EF99A0212083EC29B0212083E29
:1016C300769C0212083E269E0212083EB29E021229
:1016D300083E00800212083EBA800212083E2C81A6
:1016E3000212083E3B810212083EB5810212083EF7
:1016F30024820212083E2E830212083E57830212EE
:10170300083EF7830212083E45840212083EB58460
:101713000212083EE9850212083EC5860212083EFF
:1017230036870212083EB3880212083E75890212F8
:10173300083E108A0212083E6B8A0212083ED68ABD
:101743000212083EDA8B0212083E9B8D0212083EFB
:101753003A8E0212083EAC8E0212083E698F0212C4
:10176300083E9F9B0312083EF39B0312083E4B9CCB
:101773000312083E969C0312083EF89C0312083E8F
:10178300919D0312083EF99D0312083E059E031224
:10179300083E93A50312083EC4A50312083E7EA685
:1017A3000312083EE4A60312083E55A70312083E9F
:1017B30065990312083EF19A0312083EB7B8031263
:1017C300083EC8B80312083E68B90312083EE0ABEE
:1017D3000312083EEEAB0312083E45BD0312083E5A
:1017E30022BA0312083E32BA0312083E4DBA03125C
:1017F300083EAEBA0312083EC2B60312083E47B70C
:101803000312083EABB70312083E85B40312083E29
:10181300ADB40312083E21B50312083E2CB50312E2
:10182300083E78B50312083E8B840312083E998460
:101833000312083EDA840312083EF4840312083EBE
:101843007E850312083EA3850312083EC08503125A
:10185300083EDD850312083E02860312083E2A86EF
:101863000312083E72860312083EED860312083EF9
:101873009D870312083E5C880312083E6A880312A0
:10188300083EE4880312083EC8890312083E818B90
:101893000312083EEFBC0312083E30790012083EE3
:1018A3009D790012083E5E7A0012083ECE7A00123D
:1018B300083ED77B0012083E4F7D0012083EB37DE1
:1018C3000012083E087E0012083E117E0012083EF8
:1018D300207E0012083E337E0012083E497E00122D
:1018E300083E527E0012083ECBEF0212083E20F063
:1018F3000212083E1CF20212083E4EF20212083E89
:1019030070F20212083E89F20212083EA2F202129B
:10191300083EACF30212083E47F40212083EAEB092
:101923000312083ED2B00312083EEBB00312083E86
:101933001EB10312083E4FB10312083E7DB10312DC
:10194300083EDFB10312083EEEB10312083EF8B1C0
:101953000312083E05B20312083E409E0312083EDE
:10196300669E0312083EA39E0312083EB29E031214
:10197300083ED19E0312083E399F0312083E429F40
:101983000312083EA19F0312083EC59F0312083E9F
:1019930084A00312083E91A00312083EA2A00312E2
:1019A300083EC1FF0212083EDEFF0212083EBEF4EB
:1019B3000212083E1CF60212083E29F60212083EE5
:1019C3003CF60212083E5BF60212083E71F6021262
:1019D300083E85F60212083EFAF60212083E5FF749
:1019E3000212083E0FF80212083EE4F80212083E03
:1019F300F4F80212083E03F90212083E89B90312F1
:101A0300083EADB90312083ED5B90312083EFDB92D
:101A13000312083ED0A00312083EF7A00312083EAB
:101A230018A10312083E7DA10312083E36A3031238
:101A3300083E4FA30312083E5BA30312083E6FA3A5
:101A43000312083E8DA30312083E97A30312083E18
:101A5300A1A30312083EB4A30312083E07A4031272
:101A6300083E40A40312083E6FA40312083EBDA41F
:101A73000312083E0CA50312083E27A50312083ED5
:101A830031A50312083E42A50312083E88A503129E
:101A9300083E3BBB0312083E8FE60212083EB9E63E
:101AA3000212083ED5E60212083EE8E60212083E9C
:101AB300FEE60212083E5BE70212083E8EE70212C0
:101AC300083ECAEB0212083EF0EC0212083E23ED78
:101AD3000212083E6FED0212083E9BEE0212083E10
:101AE300C3EE0212083ED8EE0212083EE8EE0212DE
:101AF300083E2CEF0212083E8DEF0212083E9DEFC6
:101B03000212083E52B30312083E6DB30312083E9D
:101B130096B30312083EB0B30312083ED5B30312C3
:101B2300083EF4B30312083E0CB40312083E3AB461
:101B33000312083E54B40312083E20BC0312083EAD
:101B4300E68B0312083EED8B0312083EF98C031259
:101B5300083E298D0312083E4F8D0312083E728DF5
:101B63000312083E948D0312083ECE8D0312083EE5
:101B7300348E0312083E6D8E0312083EB98E031293
:101B8300083EE68E0312083E068F0312083E657E6A
:101B93000012083E777E0012083E627F0012083E64
:101BA300EF7F0012083EAFB50312083E21B60312C1
:101BB300083E5FB60312083EA0B60312083ECB925E
:101BC3000312083EE7920312083E36930312083EBF
:101BD30052930312083E83930312083E9393031216
:101BE300083E7F940312083E89940312083E96949C
:101BF3000312083EA6950312083EBA950312083E47
:101C0300C3950312083E3CF90212083E81FD0212FD
:101C1300083E86FD0212083E9ABC0312083E64BCCD
:101C23000312083EC7BC0312083E11BD0312083E4F
:101C3300AEA90112083EFFA70112083EBAA5011280
:101C4300083E41A50112083EE8A40112083E7CA407
:101C53000112083E53A40112083E46A20112083E97
:101C630012A20112083EDFA10112083EC3A1011214
:101C7300083EE9A00112083EA1A00112083ED69E2B
:101C83000112083E569E0112083E539E0112083E61
:101C93005A9D0112083E289D0112083E659C0112BF
:101CA300083E909A0112083E219A0112083EF399C8
:101CB3000112083E1EB30112083ECAB20112083EC9
:101CC30082B20112083EC0B10112083E33B10112C3
:101CD300083EF0990112083EDD990112083E7599FC
:101CE3000112083E64990112083E26B10112083E12
:101CF30045980112083E0F980112083ED29701122F
:101D0300083E73970112083E34AE0112083ED7FF16
:101D13000112083E42970112083EFD930112083E4C
:101D2300EE920112083E7D920112083E4292011288
:101D3300083E0D920112083E01920112083E619184
:101D43000112083EA8900112083E7B8E0112083E44
:101D5300078C0112083EC58B0112083E908A0112BE
:101D6300083E458A0112083E77890112083ECE8853
:101D73000112083E6A880112083EA4880112083E37
:101D830086AB0112083E45FB0100000080FBE473B3
:101D930000013636010100010201000103010001C7
:101DA3000401060605020000070100340801000FC4
:101DB300090401010D0100FF0E08000017020000D5
:101DC300190100FF1A0100011B0100FE1C0100089C
:101DD3001D0200001F01000120010001210200007B
:101DE3002301000F2402000026010001270100083F
:101DF300280200FF2A0100072B0102402C010000EA
:101E03002D0100012E0100012F0100FF30010B1CE9
:101E1300310800003A0100083B01000F2F010000C8
:101E230003007100300160001100700031022003D3
:101E33005004800010006100000014006300730070
:101E4300720062004300000013000600000000005F
:101E53000400120000000000000000000400040061
:101E6300370037003C02440000000000000000007F
:101E730065000000350081000000050000008300BC
:101E830000000302710230016002110270020102BC
:101E9300020202028002100261023A004100630260
:101EA300730272026202430200021302380000024C
:101EB30000020402120200020002000200020402F5
:101EC3000402370037003C024402000239000002DA
:101ED300000265020002350281020002050282024D
:101EE30083020002010371030103010301030103E0
:101EF3000103220302030103100300030003000391
:101F0300000300030003000342030003240306034A
:101F13000003000304031203250323032503230300
:101F2300040304030003000300034403000300034A
:101F33002303000365032100350381030003050325
:101F430000030003000301017101010101011101FB
:101F530001013101010101018001100161013B0017
:101F63001400630173017201620143010001130153
:101F730006013D01350004011201000100010001C9
:101F8300000104010401330133013C014401320126
:101F930036000001000165010001350081010001E7
:101FA30005018201830100013600010006000000E3
:101FB3000F0000000000000000000000000003FF0D
:101FC300FF00000403FFFF0000FFFF0FF401000503
:101FD300C4040320000100030B0000000000000004
:101FE3000003010F01000E170200841603008A1676
:101FF30004009016050096160600A2161100BA16E4
:102003001400C0161500B416FFFF000003EAF5E53F
:10201300D5D5C5B5A595958585757565655555451D
:102023004535352525151505580F880F5E0F640FA7
:10203300820F760F700F8E0F940F9A0FA60F6A0FF1
:10204300520F4C0F0A240D02EE0C05000D07F40C81
:102053000CD00C0DE20CFF000000160F00000B1556
:102063000B020002220F32000006421054105A10D5
:10207300220F60101C0F280FA210C010C610A8104A
:10208300B410AE100C0E020B040B0A0708000F303D
:102093003016181920231A1C1E30000119161816A1
:1020A300161523030000034948424D18172505025E
:1020B30000383C3E363B3B352B432C303017181948
:1020C30021301B1D1F30961066106C107810721093
:1020D3007C0FA00FBA10AC0FB20F02040201010172
:1020E30001090200000000000000BE040A0E00E81F
:1020F30003040015002800040C05030908FF1E1E35
:102103000A040F100C74F7120374E99003B0F090F3
:102113000365E4F0121B8E9003B5E4F0A3F0900383
:10212300B1F0A3F0120E5C121B94900334E4F0A3FD
:10213300F090210593FA7902121BF4024D9E74F27A
:10214300120374EAFEEBFF548060699003B0E0F978
:1021530012139C8A088B09EA4509604F7C008001B1
:102163000CEC75F003A4F8A9F0744728F5827420E9
:1021730039F583E493F4602CE493F88508828B8328
:10218300E06870DCAA08EC75F003A4F8744828F53D
:1021930082742039F583E493C0E0740193F583D00E
:1021A30082121D91AA08AB09121D86EEFAEF648014
:1021B300FB02230EEF5420601D120D7E8A088B094B
:1021C300EA4509600A120CE2AA08AB09121D86EE61
:1021D300FAEF642080DAEEA2E0501A90036AE0641A
:1021E3000F700B7900120CACE96003122311EE643B
:1021F30001FAEF80BB542070030222DC750C00123D
:1022030037E38B09EA450970107C027D007A207B55
:10221300009003B0E0F91214E67C0079047A007BA5
:1022230000120D5A8A088B09801885088285098354
:10223300A3A3A3A3A3A3A3A3A37401F0850A08855F
:102243000B09E5084509606D7C007904AA08AB0910
:10225300120D5A8A0A8B0B750C01E5082404F8E564
:102263000912358724FFF0A3E034FF12587A70CCAB
:10227300850882850983A3A3A3A3A3A3A3A3A3A3DD
:10228300E0640170A5850882850983A3A3A3A3A3A2
:10229300A3E054047094850882850983A3A3A3A3B0
:1022A300A3A3A3A3A37406F07AB785088285098341
:1022B30012243D8087120D2A7C0079017A007B006D
:1022C300120D5A8B09EA45097009E50C70057A204D
:1022D30012473DEE64200221F4EF5402600B120E0C
:1022E30056EEFAEF64020221B3EF54046019124868
:1022F300D41247F47901900363124B58120BF2EE98
:10230300FAEF64040221B37A007B00022544900CA7
:10231300F8122BDB120CC422C082C08374EA1209A8
:102323001D851882851983AA82AB83794B121BCA38
:102333007408120AEF7402F07409120AEFAA82AB4E
:10234300837950121BCA7413120AEFE4124D271239
:102353001BE87416023D0174F712037474E1120949
:102363001DEAFEEBFFEE4F6033851882851983ACBF
:1023730082AD83120DA27406120AEFE0601E741779
:10238300120AEFE0FD7401120AEFE0FCEEFAEFFB34
:102393007900120B1AE9600479A480027900024DD6
:1023A3009974F6120374EAFEEBFF8E828F83A3A364
:1023B300A3A3A3A3E05440601B12521612250B6083
:1023C300067AFF7BFF801A8E828F8312398DFAA3E0
:1023D300E0FB8003120DC674FE6A700374FF6B602A
:1023E30041125216124781120E1AE98E828F8360B0
:1023F30006122436E480051224367401F07CB27D83
:102403000C8E828F83124B58121BEEE9F508701560
:10241300EE4F60097901EEFAEFFB120D36A90802BF
:1024230047B27508CDAA088E828F8312243DE960D6
:10243300DF80EAE0240D123E5C22E0240C123E5CB5
:10244300E0F9120CBE2274F6120374E9FEEAFF7A75
:102453000F7B0012138AEA4B60198A828B83740CF8
:10246300F0EEA3A3F0EF8A828B83A3F01247DD790A
:1024730000802FEEF9120D608A088B09A808A909BC
:10248300E849601C88828983A3A3A3A3A3A3A3A36E
:10249300A374061254A1E0F9120C76EEF9120D3C66
:1024A30079100247B2C082C08390036AE0640F7060
:1024B30014EA4B6010900365E064086005E064046F
:1024C30070031224CB023D2BEAFCEBFD7A017B0067
:1024D3009003B0E0F91214E022C082C0837900EACD
:1024E300241DF582EB12398A24FD600B1460082445
:1024F300FD600424FD700109023D2B8E828F83A3AE
:10250300A3A3A3A3A3A3A3A312250F221239D2FB30
:10251300120E1AE9228E828F83A3A3A3A3A3A3A3DC
:10252300A3A312250F6402228E828F83A3A3A3A3E6
:10253300A3A3A3A3A3123D22900356E0682212088B
:10254300A37F0602058D74F412037474FD12091D32
:102553008A088B098A828B83A3A3E0F9120D608A10
:102563000A8B0BAE0AAF0BEE4F70030226508508A1
:1025730082850983A3E064F160308508828509833D
:10258300A3E064CD6024850882850983A3E0641AEF
:102593006018850882850983A3E064E9600C8508D7
:1025A30082850983A3E064E170087900120D36E99E
:1025B300706C850882850983A3E0C0E07402120A67
:1025C300EFD0E0123D06EEF0A3EF12303185188212
:1025D300851983AA82AB837005120BDA8003120E6E
:1025E300027402120AEFE064E970338E828F831261
:1025F300265C750A01780A12085F750AE9780A12DF
:10260300085FE508240CF582E509122B2312300E2E
:10261300FCA3E0FD8A828B831230281208A38E82EA
:102623008F83A3A3A3A3A3A3A3A3A3E06402701014
:102633008E828F83A3A3A3A3A3A3A3A3A37406F050
:10264300850882850983A3A3E0F9120D3C120D2AA4
:10265300900CFC122314022BE0E0F8A3E0F9E8FA53
:10266300E9FB2274F4120374EAFEEBFF7508008E93
:10267300828F83A3A3A3A3A3E060427508088E827D
:102683008F83A3A3A3A3A3A3A3A3123C358B0BEA1A
:10269300450B601075082C8E828F83A3A3A3A3A37D
:1026A300E0D2E0F08E828F83A3A3A3A3A3E054031D
:1026B3006401600302274F43081102274FEE2418D9
:1026C300122BED6033EE241A122BED700F12252B13
:1026D3007003A3E06970757508228070EE241BF502
:1026E30082EF122754241AF582EF123039EE24199F
:1026F30012524A120C648054122518700375080193
:1027030012252B7003A3E0697006E508D2E1F508F2
:10271300E50860158E828F83A3A3E07006E508D2D7
:10272300E58004E508D2E6F5081224FE640170068C
:10273300E508D2E0F5088E828F83A3A3E0600D1233
:10274300276264016006E508C2E0F508A908022BC8
:10275300E512397812275B22E0FCA3E0FDEE22129A
:1027630039721239AAF9120E08E922C082C083799C
:10277300018A828B83A3A3E0C394024001198A8256
:102783008B83A3A3A3A3E0C39402400279008A82AC
:102793008B83A3A3A3A3A3A3A3A3A3E064F87003BE
:1027A300A3E0F460458A828B83A3A3A3A3A3A3A37B
:1027B300A3A3E064F97003A3E0F4602E8A828B8301
:1027C300A3A3A3A3A3A3A3A3A3E064FA7003A3E017
:1027D300F460178A828B83A3A3A3A3A3A3A3A3A3B6
:1027E300E064FB7003A3E0F4700279008A828B83B8
:1027F300A3A3A3E0F8900353E06860027900023DCD
:102803002B74F012037474DE12091DEAFEEBFF8EC3
:10281300828F83A3A3A3A3E0600E900CFA1247A9AF
:102823006006900CFA1223147403120AEFAC82AD03
:10283300838E828F83A3A3A312482B125064E96073
:102843000F7403120AEFAA82AB83120CDCE970083F
:102853007901121BA0022B18EE241B12397D741070
:10286300120AEF1247F47409120AEFE06021741A96
:10287300120AEFE0FD7404120AEFE0FC8E828F83EC
:10288300124B567901120B1AE96004790280C37462
:1028930003120AEFAA82AB83120CD6E9F50A740974
:1028A300120AEFE0702A90034DE060247422550A67
:1028B3006422601C7442550A644270CF7420120A69
:1028C300EF122B36600A7420120AEF122B2F70BB03
:1028D300E9A2E650417403120AEFAA82AB83120CF9
:1028E300CAE970030228537420120AEF12398D6467
:1028F30003700F7420120AEFA312479BA3E0640D29
:1029030060147403120AEFAA82AB83120E2CE964DB
:10291300017003022B18EE242C122B20122E44706C
:1029230003A3E069701C750800780812085F780833
:1029330012085FEE242E12524A122B3C1230281238
:1029430008A37409120AEFE070030229F5122B3C65
:10295300124B58120E808A088B09EA45097003024C
:102963002A927404120AEFE0F88E828F83A3A3E005
:1029730028F8A3E03400F9E8240D122B278A828B70
:1029830083A3A3A3E068601CE88A828B83A3A3A329
:10299300F0908821120ACC850882850983A3A3A31A
:1029A300A3120AD87904E9120AEF1250412AF8A3B4
:1029B300E034008882F583A3AA82AB831213788A5A
:1029C3000C8B0D8C0E8D0F850882850983A3A3A321
:1029D300A3780C1207F74003022B1890881D780C7C
:1029E3001209AC850882850983A3A3A3A3780C12DB
:1029F3000AB0900365E064046008E06409600302C0
:102A03002B18E50AA2E54003022AD0EE242E122B4E
:102A1300ED851882851983F0EE242F122BEDC0E08B
:102A23007401120AEFD0E0F0EE2430122BEDC0E077
:102A33007402120AEFD0E0F07414120AEFE064019A
:102A43007027740E120AEF123983EE2412122BED43
:102A5300687003A3E0697011740C120AEF12252544
:102A630070077414120AEFE4F0EE2424122B2012E0
:102A7300068E7404120AEFAC82AD837407120AEF58
:102A8300AA82AB83120BE074041208A3022B1890E2
:102A930003AAE0640160030229F57420120AEF120D
:102AA3002B367009E50AA2E650030229F5741012C9
:102AB3000AEFE0F47003A3E0F4605AEEFCEFFD7458
:102AC30003120AEFAA82AB83120CE88048A2E650F5
:102AD300447420120AEF124B67701A741A120AEF29
:102AE300E0640270307403120AEFAA82AB837900A8
:102AF300120DF680207420120AEF122B2F70167419
:102B03001A120AEFE06404700C7403120AEFAA822B
:102B1300AB83120DF07422024F13EE240BF582EFF8
:102B230012397822F582E912480DF822125228E070
:102B33006407221239AA640622EE242A1239751276
:102B4300275B24121239752274F4120374EAFEEB24
:102B5300FF8C088D099005DBE0600F12252B7003B5
:102B6300A3E0697005120C52804F7900124B4B128F
:102B73000C828A828B83E58245836035A3A3A3A35A
:102B8300A3A3E05418602AE508241BF582E5091283
:102B93002B23120692123221122B23120692EE24B9
:102BA3001812524A122BBE120C9474041208A380FA
:102BB300087900122BBE120C5880278E828F83A3B4
:102BC300A3A3A3A3A3A3A3A312275B240BF582EFC1
:102BD300122BD7223400F5831239D2FB227403124D
:102BE30008A37F0402058DEE2417F582EF12480D2A
:102BF3002274F712037474F712091DEAFEEBFF90B7
:102C03000365E06403600DE064016008E06409604B
:102C130003022CBE8E828F83A3E0707E7C007D0036
:102C23007A027B00121B9AEE2402FAEF12358E12FF
:102C330039839003561247F47953121BD07900124B
:102C43002CC3E0640960031230568518828519830A
:102C530074011247CA9003657404F07401120AEFF9
:102C6300AA82AB83794A121BCA7401120AEFAC829F
:102C7300AD837A5B7B03121BB890035612505A7ACA
:102C830003123060900350E0A2E35004D2F08002BC
:102C9300C2F01247B7122311801E8E828F83A3AE18
:102CA30082AF83FC7D007A037B10121B9A8E828F86
:102CB30083E0F9122CC3E4F0120D127409024D9B48
:102CC300900363122BDB120BF290036522C082C0C8
:102CD300839003341247A9701F900365E0146009C1
:102CE30024FC600A14600C800F90033C8032900334
:102CF30038802D90033A8028E84960089003351204
:102D03003008700C8A828B83A3E0F9120BE6801BD8
:102D13009003351232BD7005120E4A800E9003D215
:102D23001247A9600612479B121D91023D2B74F4B2
:102D330012037474FB12091D8A088B097A0F7B0036
:102D430012138A8A0A8B0BAE0AAF0BEE4F70030283
:102D53002E388E828F83124D257950121BCA850817
:102D630082850983A3E06003022E20900363E0F4CD
:102D73007003A3E0F46034900363E064FE7003A384
:102D8300E0F46027851882851983122E447003A30B
:102D9300E0696017850882850983A374EA12303ECF
:102DA3007A637B037950121BD08072851882851950
:102DB300831252091247F47A567B037953121BCAC2
:102DC3009003561248251247F47A597B03794B1224
:102DD3001BCA7A587B0379E1121BCA90036AE0C3CA
:102DE300940F5021900358E0C0E07402120AEFD010
:102DF300E0F07404120AEF7401F004120AEFAA82DD
:102E0300AB83121BE2750A00780A12085F780A1274
:102E1300085F900D1EE0F912301F1208A385088287
:102E2300850983122E3DA3F09003657403F0EEFA37
:102E3300EFFB1247DD7405022BE2A3E08E828F8342
:102E43002212520DE06822123E632274F5120374BB
:102E530074D812091D8A088B098A828B83A3A3A3C2
:102E63001239AF7415120AEFAC82AD838A828B8359
:102E7300A3A3A3A3A3A3A3A312300EFAA3E0FB125D
:102E83000D187415120AEFE0706B850882850983AB
:102E9300A3A3A3A3A3A3A3A3E0C3940B40578E822E
:102EA3008F83A3A3A3A3A3A3A3A3E064027046EE0B
:102EB300240B122BEDF4703D900365E06402603A3D
:102EC300E0640660359003341247A96005123008A8
:102ED300604F900365E064086005E0640470167455
:102EE30017120AEFE0F9741C120AEFAC82AD8312D9
:102EF3004B4B120D1E74280257279003341247A917
:102F0300701F750800780812085F780812085FEED2
:102F13002410122B20125262123676123028120815
:102F2300A38E828F83124AC71235A012398374028B
:102F3300120AEF1247F4EE240D122BEDC0E07404D5
:102F4300120AEFD0E0123031F508A3E0F509740F4F
:102F53007808120AA17405120AEFE508F074191231
:102F63000AEFE0C0E07406120AEFD0E0F0741B121F
:102F73000AEFE0C0E07407120AEFD0E0F074161213
:102F83000AEFE0C0E07409120AEFD0E0F074171200
:102F93000AEFE0C0E07408120AEFD0E0F0EE24106C
:102FA300122BEDC0E0740A120AEFD0E0F0741A128B
:102FB3000AEFE0C0E0740B120AEFD0E0F0742712BE
:102FC3000AEFE0C0E0740C120AEFD0E0F0741C12B8
:102FD3000AEFA982AA8389088A09750A0078081268
:102FE30008577C087D007410120AEFAA82AB831283
:102FF30043581208A3851882851983AA82AB8312CA
:103003000BEC022EF81232C3640122E0F98A828BA0
:1030130083A3A3A3A3A3A3A3A3A3E0229003631265
:10302300505E900359122BDB120DD8740222F0EE7E
:10303300240B12480A2212480DFA22F07A567B0317
:10304300795312304922121BD07A597B03794B12E0
:103053001BD022900363122BDB120E7A227B001209
:103063001B9A90035912505E7A047B00121B9A221A
:10307300F012526D2274F212037474F812091DEAED
:10308300FEEBFF8C0A8D0B890C851882851983ACA6
:1030930082AD837583877582BC74081207B7F50DFB
:1030A300EEFCEFFD851882851983AA82AB83124A51
:1030B300287003750D019003B1803BEEFCEFFDE535
:1030C30008240BFAE5093400124A27601E8508829A
:1030D300850983A3A3E0650C7011850882850983A4
:1030E300E0650A7004A3E0650B6038E5082414F575
:1030F30082E509122B23123598E50845096024E57A
:103103000DA2E040B6850882850983E0650A700454
:10311300A3E0650B70D5850882850983A3A3E065C9
:103123000C70C8AA08AB097408022541C082C08389
:103133009003B1023D2874F71203749003B112395E
:10314300D28012EA2414F582EB122B231239AF1228
:10315300142CEEFAEFFBEA4B70E99003B1E4F0A311
:10316300F0024D9E7F0702058D74F1120374EAFE8F
:10317300EBFF890A8C088D098E828F83E08C828D08
:1031830083123C3FAE82AF83E0124418124389C4DA
:1031930012441812322AE054038C828D831243871F
:1031A300A2E2E4338C828D83124386131313541FDC
:1031B300124418124385A2E7E4338C828D83A3A3C0
:1031C300A3A312322A8E0C8F0D750E00780C1208F1
:1031D300577C087D00E5082407124FCD1208A3127F
:1031E30050388E0C8F0D780C1208577C037D00E548
:1031F30008240F124FCD1208A3E50AC3940F4014FD
:103203008E828F83A3A3A3E0C0E0123221122B236B
:10321300D0E08006123221125495F0023167E5089E
:103223002412F582E50922A3A3123C430EAF8322A5
:1032330074F412037474F912091DEAFEEBFF890892
:103243009003341247A9600E1232BD7009EEFAEFF3
:10325300FB120E44805F900363E06E7003A3E06F84
:1032630070537401650860097A777B03124A2870EA
:10327300447A007B021237E78B0BEA450B703690DA
:103283000366120ACC851882851983120AD8900323
:103293006CE0C0E07404120AEFD0E0F07405120A87
:1032A300EF7401F07406120AEF124D25120BB6E902
:1032B300609B120BBC7407022BE21232C36402221E
:1032C300125229A3A3A3A3A3A3E02274F5120374A8
:1032D3008A088B098A828B83A3AE82AF83E0F912BB
:1032E3000C0A8E828F83E064EB600C85088285096B
:1032F30083A3E064E17009850882850983A3E4F070
:10330300122311750A01780A12085F85088285095C
:1033130083A3E0F508780812085F790012301F12C2
:1033230008A3120D2A02572AEAF0A3EBF0023D2B61
:1033330074F61203749003B4E0701B7C0079017A75
:10334300007B00120D5AEA4B600C8A828B83124772
:10335300A96003120CB80247B2C082C0831237CFF0
:10336300401079FF120D54E9F8902107E493C398B4
:103373005004790180027900023D2B74F01203742A
:103383008A088B09890B750C008A828B83A3A3A3FC
:10339300A3A3A3A3A3E0F9120D608A0E8B0FAE0EB5
:1033A300AF0F750A01EE4F600302345C8508828516
:1033B3000983A3A3A3A3A3A312505A850882850953
:1033C30083A3A3A3A3A3A3A3124158124B58120D83
:1033D300488A0C8B0DAE0CAF0DEE4F700302357F98
:1033E3008E828F83A3A3A3A3E4F0A3F0E508240BA9
:1033F30012358BE0C0E0122B1DD0E0F0120E20EE50
:10340300240CF582EF12477DE508240EF582E509C9
:10341300123980EE240EF582EF1247F1750C01EE9E
:103423002406F8EF123587547FF0A3E054FC1252C0
:10343300BFE0540460030234E2900D00124149746A
:10344300077808120A1E8E828F83A3A3A3A3A3A3C4
:10345300E04508F0A3E04509F08E828F83A3A3A380
:10346300A312359674077808120AA1E5085407F5E4
:1034730008E50B607A8E828F83A3A3A3A3A3A3A3E0
:10348300A3A3740212438A240D123E58E0A2E25011
:103493000B900351124825A3A31247F4E5087003C8
:1034A300023554EE2406F8EF3400F9E8FAE9FB8A12
:1034B300828B83E0547FFCA3E054FCFDE50824FFEA
:1034C300F508E434FFF50974077808120A1EEC4581
:1034D30008F8ED4509F98A828B831247F480728ECE
:1034E300828F83A3A3A3A3A3A3E0448002345BE559
:1034F300087005750A0080598E828F83A3A3A3A346
:10350300A3A3E054206012121384EA547F245F8E35
:10351300828F83A3A3A3A380238E828F83A3A3A3DA
:10352300A3A3A3E05410600A121384EA540F240ADD
:1035330080DD8E828F83A3A3A3A37401F0A3E4127F
:1035430035A074041237DE8B09EA4509700312476C
:1035530070E50CA2E050288E828F83A3A3A3A3124D
:103563004D8BF9EEFAEFFB120D4EE9601212479FF5
:103573006003123968EEFAEFFB12142C750A00A9E6
:103583000A024F161248E822FAE5093400FB8A8240
:103593008B8322A3A3E0F508A3E0F509221235A447
:1035A30022124FE9A3A3A3A3A32274F412037474F6
:1035B300F712091D7E00120D60EA4B700302366F8D
:1035C3008A828B83A3A3A3A3A3A3A3A3A3E06406D9
:1035D300600302366F8A828B83A3A3A3A3A3A3A34F
:1035E300E0FF8A828B83123E6BE0C0E07408120A0C
:1035F300EFD0E01239A3124A2E1247F4120D72EFE4
:103603005408606685188285198312505A7A007BA4
:1036130000120D428B0BEA450B704F900363123A75
:1036230093121BFA7C007D007A007B0080288E8237
:103633008F8312398DF47003A3E0F4602D9003633C
:10364300123676124B581218EEE9641A601C7C008D
:103653007D00EEFAEFFB120D428A0A8B0BAE0AAF26
:103663000BEE4F70C97900121C007E01EEF974094C
:10367300022BE212367A22E0FCA3E0FD8E828F83D6
:1036830022C082C083EA4B70059003B580068A820C
:103693008B83A3A312389360258A828B83A3A3A36E
:1036A300A3A3A3A3E0540860E5EC4D60158A828BC5
:1036B3008312398D6C7003A3E06D70D280047A009D
:1036C3007B00023D2B74F2120374EAFEEBFF890ABE
:1036D3008C088D097A107B00121426EA4B603F8A0E
:1036E300828B83A3A3A3A3A3A3A3A3A3E4123991CC
:1036F300A3E50A12522FA312372B8A828B83A3A32B
:10370300A3A3E4F0A312399DA3F01250C3EA240C3F
:10371300F582EB123C2F123724A3A3F0A3F002256A
:1037230044A3F08A828B8322A3A3E508F0A3E509CF
:10373300F02274F4120374EAFEEBFF89088C0A8DFD
:103743000BEE4F60557401650870147901120D5426
:10375300E9F89020FFE493C398500F7911806A74BD
:10376300046508702F1237CF40F18E828F83A3A395
:10377300A3A3A3A3A3A3A3E508123C3FA31257B497
:103783008E828F83A3A3E4F0A3F09003B51247A91D
:103793006021800D7402650860D079C1802BE0F848
:1037A300A312481EA3A312389388828983A3A3700C
:1037B300ED80039003B5EEF0A3EF1237DE8B0BEA37
:1037C300450B70031247707900022BE57904120D43
:1037D30054E9F89020FCE493C39822F01237E322D3
:1037E3007A207B009003B0E0F91214F222C082C069
:1037F30083E9F879009003B5801D8A828B83A3A3A4
:10380300A3A3A3A3A3A3A3E068600574FF68700147
:10381300098A828B83A3A312389370DE023D2B7433
:10382300F7120374EA4B70059003B580068A828B06
:1038330083A3A312389360248A828B83A3A3A3A3B5
:10384300A3A3A3A3A3E06970E4EC60148A828B832F
:10385300E0240D12504BA2E240D380047A007B0097
:10386300024D9EC082C0839003B580068A828B83FB
:10387300A3A312389360128A828B83A3A3A3A3A367
:10388300A3A3A3E06970E580047A007B00023D2BCB
:10389300122BDBEA4B2274F21203748A0A8B0B8C11
:1038A3000C8D0D750800750900EA450B602E900319
:1038B300B580068E828F83A3A31238E6601EAC0CFC
:1038C300AD0DEEFAEFFB850A82850B83121D91E99C
:1038D300640170DFEEF8EFF988088909AA08AB09DB
:1038E300022544E0FEA3E0FFEE4F2274F7120374B7
:1038F3009003B51239837C007D00800DE8FCE9FD5F
:1039030088828983A3A3123983E8496030EA687007
:1039130002EB6970E79003B5124B58E86A7002E94D
:103923006B88828983A3A370081239839003B580BF
:10393300091239838C828D83A3A31247F4024D9E0F
:1039430074F7120374EAFEEBFFEE4F6015120D6C71
:103953001239B512479F6003123968EEFAEFFB1272
:10396300142C024D9EEE240C1239751239CA22EE24
:10397300241DF582EF3400F58322F582EF123978A6
:10398300123D2222F582EF1239781239AA22123916
:103993009522125237A3A3A3A322123995A3A322DC
:1039A3001237251239AA22125222E022E0FEA3E0A6
:1039B300FF228E828F83E0241C123E5C1239CA8E52
:1039C300828F831239CA221239D2FB12142C22E0BD
:1039D300FAA3E022C082C083EAFCEBFDEC4D700445
:1039E30079058044EC24FBF582ED34FF1247A77080
:1039F30007123A2EE0F46005121D8680E39003B0AF
:103A0300E0C0E0123A2ED0E0F0902103E493F97A7B
:103A1300B77B031213BAE96401700B7A007B20129F
:103A23004774790080027904023D2BEC24FFF58270
:103A3300ED34FFF5832274F4120374A2AFE433F57B
:103A430008C2AF9003B71238E66038EE24FBF58264
:103A5300EF34FF1247A77A007B209003B060051272
:103A630047778005E0F91213C6E4F50AF50B780AE7
:103A730012085BEEFCEFFD7AB77B031213B47402FA
:103A83001208A3E508A2E092AFEEFAEFFB022BE5E2
:103A930012505E851882851983AA82AB832274F241
:103AA30012037474FC12091DEAFEEBFF750AFE751E
:103AB3000BFF120D30E960057911023C24EE241549
:103AC300122BED6037900D14E0C43354E0F8E0336B
:103AD3003354FC48C0E0EE2415122B20D0E0123CF6
:103AE3003F123C358B09EA45096011750AFFEE2444
:103AF3000F122BED4404124802D2E0F08E828F8322
:103B03001225096006EE2412123C2CEE2413122B0C
:103B1300ED7010902102E493C0E0EE2413122B20E9
:103B2300D0E0F08E828F83E0A2E750045403801C20
:103B3300EE2414122BED7015900342E0C0E0EE2446
:103B430014122B20D0E0F0900342E004F0EE241195
:103B5300122BED640170169005D2E0600D90034DB9
:103B6300E0700A8E828F83E07003123C298E828F6D
:103B730083E064017013EE240B1239876402700929
:103B8300EE240F122BED4440F0851882851983AC87
:103B930082AD83EEFAEFFB120D968A088B0974FE51
:103BA300650A700374FFF470098E828F83A3A312D6
:103BB3004FD9EA450960668E828F83E0C0E07401C5
:103BC300120AEFD0E0F07402120AEF1250C7740128
:103BD300120AEF85820C85830D780C12085BEE24A4
:103BE3000F122B20120692EE240E122BEDF50C78F9
:103BF3000C12085F9003561206927407120AEFE044
:103C0300F9AC0AAD0B120D9074071208A3E9FE7408
:103C1300106E700BAA08AB0912142C80027E10EEF2
:103C2300F97404022541EE2411F582EF123978E488
:103C3300F022A3122BDB79FF121CC022123C432279
:103C4300F08E828F83A322C082C08374DE12091D8B
:103C53008A828B83A3A3A3A3123983740E120AEF60
:103C6300E8F0A3E9123D19740C120AEF123D122475
:103C73000DF582EB122BF0C0E0741A120AEFD0E0BC
:103C8300F0124F26EB1239807420120AEF123D1204
:103C93002415F582EB122BF0C0E07408120AEFD062
:103CA300E0F0EA241CF582EB1239807412120AEF59
:103CB300123D122411F582EB122BF0C0E0740912AD
:103CC3000AEFD0E0123D0674FFF07401120AEF749C
:103CD300FFF07402120AEF74FFF090882112068E2F
:103CE3007404120AEFAC82AD837407120AEFAA823E
:103CF300AB83120BE074041208A379007422120838
:103D0300A38025123D0A22F085188285198322E8B3
:103D1300F0A3E9F0EA22123725A3123D2122A3E002
:103D2300F8A3E0F922124B58D083D08202083B74E7
:103D3300EC12037474EE12091D8A128B13ECFEED60
:103D4300FF89097426120AEF124FD97428120AEF59
:103D5300E0F5107429120AEF123E4D742B120AEF8C
:103D6300E0F50EA3E0F50F7508107A1E7B00121420
:103D7300267402120AEF1247817402120AEF1247E5
:103D8300A97003023E46851882851983AA82AB83F4
:103D9300795012465C124B587402120AEF123E6BB2
:103DA300A31247817410120AEF1257B67402120A53
:103DB300EFE0240B123E587402F0120AEF123E6B2E
:103DC3007402F0120AEF12521A1250C77402120A46
:103DD300EF124B6DE509F07402120AEFE0240C12A6
:103DE3003E58E510F07402120AEF123E55E512F048
:103DF300A3E513F07408120AEFE50CF0A3E50DF048
:103E0300740A120AEFE510F0850E82850F83C082D3
:103E1300C083740D120AEFAC82AD83D083D0827459
:103E2300031207B7F97402120AEFAA82AB83120DC9
:103E330036E96401700575080080087402120AEF00
:103E430012396EA9087412024FF0E0F50CA3E0F5E5
:103E53000D22E0241C123E5C22F8A3E0123E6322F2
:103E63003400F98882898322124B60A3A3A3A3A3FE
:103E73002274EE120374EAFEEBFF8C088D098E8226
:103E83008F83A3740812483DE060088E828F83A35A
:103E93007410F0122BEA60098E828F83A3E024084A
:103EA300F0EE2415122BED60088E828F83A3E004BD
:103EB300F08E828F83A3A3A3A3A3A3E060198E82B2
:103EC3008F83A3A3A3A3A3A3A3E0C3332402F88EE6
:103ED300828F83A3E028F0EE2411122BED60057589
:103EE3000B0E8003750B008E828F83A3C082C08369
:103EF300EE240D122BEDD083D082F8E028250B8C15
:103F0300828D83F0EE2411122BED60051243682895
:103F1300F0850882850983E0C3947540097508001C
:103F2300750900024056E0FA7B00125175700302D6
:103F33004056EEFAEFFB120D9CEA85088285098351
:103F4300124782EE2402F8EF122E4A124150124019
:103F530092F0EE24040808EF122E4A124592A3129F
:103F63004092A3A3F0EE2413124078F0EE2414122F
:103F73004078A3F0750A08EE2416122BED6010EEBC
:103F83002418125057E5082408125258750A1012C3
:103F93002BEA6016EE241A125057850A0CE5082501
:103FA3000C1252587408250AF50A8E828F83A3A334
:103FB300A3A3A3A3E06059EE2407F510EF3400F5A3
:103FC30011851082F583E0C0E012405F122B23D0ED
:103FD300E0124082E0C0E012405F122B23D0E012D7
:103FE3004082A312406B120857851082851183E02B
:103FF300C333FCE433FD850A0CE508250C124FCDD1
:104003001208A3851082851183E0C333250AF50ABC
:10401300EE2415122BED600BC0E012405F122B2330
:10402300D0E0F0122B1D12406B120857EE240D1234
:104033002BEDFC7D00850B0A8E828F83A3E0F8E5D0
:104043000828F8E5093400F9E8250AFAE9124FD0FF
:104053001208A3AA08AB097F0A02058D850A0CE59D
:1040630008250CF582E50922E0F50CA3E0F50D75B2
:104073000E00780C2212397512409CA3A3A322F0E0
:10408300050A8E828F83A3A3A3A3A3A3A3A322A31F
:10409300A31252C3A312409C22124596A3A32274D7
:1040A300F61203748A828B83E0FC90035312414916
:1040B30074027808120A1EEC4508FCAD09EA2412C2
:1040C30012414374067808120A1EEC4508FCED45BC
:1040D30009FDEA2415F582EB122BF06004780180C8
:1040E300027800E4C8F9ED49FDEA2411F582EB12E8
:1040F3002BF0F508880974097808120A1EED4509A2
:10410300FDEA2416124143740B7808120A1EED458A
:1041130009FDEA2417124143740C7808120A1EEDB4
:104123004509FD8A828B83A3A3A3A3A3A3124149B9
:10413300740A7808120A1EECFAED4509FB0247B22D
:10414300F582EB123978E0F50875090022E085085D
:104153008285098322A3E0F9850882850983227475
:10416300EE1203748A0A8B0BECFEEDFF750F01E967
:10417300C39408500579000243558E828F83E9F07A
:104183001245BBE96003750F0012459F8E828F8332
:104193001245E9EE124F27EF1245DEC0E0EE24117F
:1041A300122B20D0E01245D6C0E0EE2412122B20B1
:1041B300D0E0123C3F7408124FE1A3A3A3E06015C3
:1041C300124587EE2413F582EF1247F18E828F8317
:1041D300A3E02408F08E828F83A3A3A3A3A3A3A3A6
:1041E300A3E060218E828F83A385820885830912D1
:1041F30045CAEE2415F582EF1247F1850882850939
:1042030083E02408F08E828F83A3A3A3A3A3E0609B
:104213001A8E828F83A38582088583091245AE8E09
:10422300828F83A3A3A3A3A312437AEE2419123C80
:104233002CEE241B123C2CA3124835E070030242DF
:10424300E9EE2419F8EF3400F98E828F83A3858277
:1042530008858309E0FAE50A2AF582E50B122BF0BB
:104263008882898312437AFAE50A2AF582E50B12DA
:104273002BF0C0E0EE241A122B20D0E012437A88F0
:10428300828983E06059F89020FBE493C39850053A
:1042930075110C8008EE2419122BEDF5118E828F07
:1042A30083A3E0F8E50A28F50CE50B12435E120838
:1042B30057E511C333FCE433FD7AB27B0B12435849
:1042C3001208A3EE241B122B2074B2F0A3740BF07C
:1042D300E511C333F8850882850983E0288006EE5B
:1042E3002418125492F08E828F83A3E0F88E828F6B
:1042F30083E0C3985003024178A3E0FA8A08E50AF1
:104303002508F8E50B3400F9EE241DF582EF124879
:10431300FD12438AC39AC0E0EE2417122B20D0E08B
:104323001247FA602BEE2417F8EF3400F988088956
:10433300098882F583E024F21248DE240EFAA3E012
:104343003400FB88828983124781124368C398F043
:10435300A90F02405A1213607403223400F50D753D
:104363000E00780C2290034EE0F9120B20E9F88539
:104373000882850983E022F0850882850983E004A9
:10438300F022A3A3A3A3A3F08E828F83E02274F46D
:104393001203748A088B09EA12441FF0EA131354B8
:1043A3003F124418A3A3A3F0EAC4131312441FA398
:1043B300A3F0EB1244111244297409780A120AA1DA
:1043C30012440F124428740A780A120AA1E50A5407
:1043D30001C0E0EC2418F582ED122B23D0E0124447
:1043E3002E740B780A120AA112440FA312442874E4
:1043F3000C780A120AA112440FA3A3A3A3A3A3A395
:10440300A3F0740D7808120AA102274FE50A54019C
:104413008C828D8322540F8C828D832254038C8251
:104423008D83A3A322A3A3A3A3A3A3F08A0A8B0B25
:1044330022C082C08379008A828B83A3A3A3A3A310
:10444300A3E090034D600FE070228A828B83A3A3C5
:10445300E07019098016E060138A828B83124B4F38
:10446300900356E06A7003A3E06B70E7023D2B7480
:10447300F01203748A0A8B0B890C8C088D09124580
:10448300BB12459F8508828509831245E9E5081219
:104493004F27E5091245DEC0E0E5082411F582E562
:1044A30009122B23D0E01245D6C0E0123221122B81
:1044B30023D0E0124905740812491E601112458782
:1044C300E50824131248F9124905E02408F0850889
:1044D30082850983A3A3A3A3A3A3A3A3E060178552
:1044E3000882850983A31245C6E50824151248F9F5
:1044F30012438A2408F0850882850983A3A3A3A312
:10450300A3E06019850882850983A3AE82AF831275
:1045130045AE85088285098312438504F0AA08AB5A
:1045230009120DAEE9F50D7056850882850983A33E
:10453300A3A3A3A3A31245927014E0FA8A0EE50A7B
:10454300250EF8E50B1247E6E50CC39A80211245C8
:10455300C6E8240EF8E91247E690034EE0F9120B81
:10456300208E828F83E0F8E50CC39824F2C399C0B0
:10457300E0E5082417F582E509122B23D0E0F0A922
:104583000D024F16E50A2408F8E50B3400F9221250
:10459300459622E0850882850983A322850A8285C0
:1045A3000B83A3A31245FFE0F9EA22E0F8E50A280A
:1045B300F582E50B12480D228A828B83124F1B1260
:1045C3000DA822AE82AF83E0F8E50A28F8E50B34A4
:1045D30000F922124612A3A3A3E022123978E812AB
:1045E300460BA3A3E022A3A3A3A3A3A3A3A3A31262
:1045F300460B1245FFA3A3E0F9EAF822E0FA850A85
:1046030082850B83A3A3A322F0A3E912461222F00F
:10461300850A82850B83A3A3A3A322C082C0837AC6
:10462300C57B0379E2121BCA7AC57B03023D2BC00B
:1046330082C083900356023D28C082C08374FE1259
:10464300091D851882851983AA82AB83794B12468B
:104653005C124B587402023D01121BCA85188285F5
:10466300198322C082C083794A121BCA023D2B746C
:10467300F61203749003CDE0FE04F0EEF9120D6020
:104683008B09EA450970EDEE60EAF90247B274F06E
:10469300120374EAFEEBFF8C088D09890A74101269
:1046A3000AEFE0F50B7411120AEFE0F50C120E801D
:1046B300EA4B7013E50C7042A90AAC08AD09EEFA97
:1046C300EFFB120E98806EE50A6021EA2402F58260
:1046D300EB122BF0850A082508F8E4340013E813DD
:1046E300F070098A828B83A3A37401F0E50C604503
:1046F300E50B70068A828B83E4F07401650C7035D8
:10470300E50B9003D47004E4F0802AE004F0900DEC
:1047130001E0F89003D4E0C398401AE4F090035901
:10472300E06E7003A3E06F700CEEFAEFFB790112F9
:104733000C0412473B024F167A017B009003B0E052
:10474300F91214EC22C082C08374016A7001EB7009
:10475300077A011247728012900CF8124781EA4BD4
:1047630060051224CB800312473B023D2B7A207B4A
:10477300009003B0E0F91213C0223400F583EAF08D
:10478300A3EBF022C082C083900CFA02332BC082C9
:10479300C083900CFC02332B12522922EE240CF519
:1047A30082EF3400F583123D22E849221208A37FE9
:1047B3000202058DA2F0E43385188285198312471E
:1047C300D37952121BD0221247D37942121BD02223
:1047D300F0AA82AB8322AA08AB099003B0E0F912D6
:1047E3001396223400F9E508241DF582E5091239F0
:1047F30078E8F0A3E9F022124FE5A3A3E022A3F0A7
:10480300EE241512480A22F582EF3400F583E022E4
:10481300124817223400F583E0F8A3E0F98882896F
:104823008322E0F812482B22A3E0F98E828F83A320
:10483300A322F0EE241812397522F0EE2416123951
:10484300752274F4120374EAFEEBFF7A007B041200
:10485300473F1248D41247F49003657409F0120DD0
:10486300BA8A088B09AC08AD09EE2413122B201267
:104873004B58124A28640170487A0F1248C76041A6
:104883008A828B8374021248DEFAA3E0FB8A828B4E
:1048930083A3E0FC8A828B83A3A3E0FBEC850882DD
:1048A300850983A3A312478288828983124B5C12F2
:1048B3004150124801FAA3E0FB794A121BD0124778
:1048C300D9022BE57B0012138A8A088B09EA450972
:1048D30022900336123D22900CFC22F0EE241DF8A8
:1048E300EF1248E822123E63E0221248F12234001C
:1048F300F5837401F022F582E509123978E8F0A313
:10490300E9221249092212490D22F08508828509FC
:1049130083A32212490DA3A3A3A322124916A3A37F
:10492300E022124D2F120E0E22EE2417F582EF1203
:1049330048F1120DBAEE241A123975EAF0A3EBF01E
:104943002274F412037474F312091D8908EAFEEB4E
:10495300FF7C0D7D007900851882851983AA82ABBF
:104963008312136CEE241D122B2012521AA3E0F8AB
:10497300741F58600A7901121BA07900024A1FE8CC
:10498300A2E55008740C120AEF7401F0E8A2E75094
:1049930008740B120AEF7401F0E8A2E6740A5008D7
:1049A300120AEF7401F08008120AEFE06401700547
:1049B300EE24138003EE24151250577402120AEFEB
:1049C300AA82AB83121BB8122B1D124A2D1247F475
:1049D300740A120AEFE0640170331224FE703B1272
:1049E3000DC68A0A8B0BA80AA90BEE240B122BED1A
:1049F300687003A3E0697022120DBAEAFCEBFD7440
:104A030002120AEFAA82AB83124A28600D8518822C
:104A1300851983AA82AB83120BFEA908740D022B9E
:104A2300E2EEFAEFFB121BB2E922E0124A3222F85D
:104A3300A3E0F98518828519832274F6120374742E
:104A4300F312091D8A088B09ECFEEDFF7C0D7D0036
:104A53007900851882851983AA82AB831253BFA379
:104A6300A3A3A3A3A3A3A3A3124AC7124AD0F8A242
:104A7300E55008740B120AEF7401F0E8A2E750083E
:104A8300740A120AEF7401F0E8A2E6EE500424134C
:104A9300800224151250577402120AEF124AB9A366
:104AA300A3E0C0E0740C120AEFD0E0124D27120B02
:104AB300F8740D0247AFAA82AB83121BB885088234
:104AC30085098322E0124A32E8F0A3E922F0123981
:104AD3007212521EA3E02274F712037474E11209D6
:104AE3001DEAFEEBFF8E828F83124B5CA3A3A3E030
:104AF300A2E050518E828F8312265E8A828B83A31B
:104B0300A3A3A3A3A3E054FE124B748A828B831244
:104B13004B6DE0F98A828B83E0241CFAA3E0123503
:104B23008E124B58120DB4E9701B741D120AEF124A
:104B33004B677011851882851983AC82AD83EEFAB9
:104B4300EFFB120DFC024D998E828F83A3A3A3A3C7
:104B5300A3A3A3A3A3122BDB22124B602212522284
:104B6300A3A3A3221239AA640422E0241B123E5CED
:104B730022123D0AAC82AD8322E9F87900740468FD
:104B8300600A740A68600574036870010902083BCF
:104B930074F61203748A828B837420F0A3A37401C6
:104BA300F0120BAA8A088B09AE08AF09EE4F60100A
:104BB3008E828F837401F09003A3E0700312492C5B
:104BC300EEFAEFFB0247B2C082C0839003B97401CF
:104BD300F0E9A2E350037403F0E9A2E15004E0D248
:104BE300E2F0023D2B74F612037479007C008A080C
:104BF3008B0978081205D3F8FF071B4C194C194C85
:104C0300194C194C124C164C1B4C0F4C0C80097C44
:104C13000480050C80F67C089003B9E05C6003090E
:104C23008003EC6001090247B274F61203748A82AE
:104C33008B83E07012A31247A9600C8A828B8312C4
:104C43004B57121CF080047A007B000247B274F5C4
:104C530012037474F312091D8A088B09ECFEEDFF2D
:104C6300750A12EA450970057900024D2090035632
:104C7300E065087004A3E065097014120DBAEAFC3C
:104C8300EBFD124A247005750A018003750A00853D
:104C93001882851983E4F004120AEFE508F0A3E50E
:104CA30009124D27120B6EE960277403120AEFAA4B
:104CB30082AB83120B50E964017016750A01740309
:104CC300120AEFAC82AD83124A246021750A008078
:104CD3001C7412650A70169003A2E06402700EEE53
:104CE300FCEFFDAA08AB09120B86E970DFEEFCEFBF
:104CF300FDAA08AB09120E86E9F8740A68700575F7
:104D03000A01801774A0687012EEFCEFFDAA08ABCD
:104D130009120E92AA08AB09120EA4A90A740D0275
:104D230057277402124D2B22124D2F22123D0AAA2D
:104D330082AB832274F7120374EAFEEBFF8E828F39
:104D430083A3A3A3A3A3A3A3A3E06015EE24151237
:104D53002B20122BCB120E26E964017004790180FB
:104D6300258E828F83A3A3A3A3A3A3A3E06015EE41
:104D73002413122B20124D8BFAA3E0FB120E26E90B
:104D8300640160D97900801312367AA3A3A3A3A385
:104D9300A3A3A3A3E022741F1208A37F0102058D1E
:104DA30074F012037474FD12091D8A088B09ECFE5A
:104DB300EDFF890B7413120AEFE0F50C750A017409
:104DC30001120AEF74041252526048E50C601DEAA6
:104DD3002417F582EB1254951252408A828B83E09A
:104DE300D2E7F0EA2414F582EB123C2F124F26EBA4
:104DF30012481374031257B8EE88828983A3A3F071
:104E0300EF88828983A3A312372412372B120BA4B2
:104E1300E9F50AA90A7403024F1374EC12037474BC
:104E2300F512091D8A0A8B0B890C8C0E8D0F741FCA
:104E3300120AEFE0F50D7420120AEFE0F510A3E07B
:104E4300F5117E01EE120AEF740AF0E97007E50D21
:104E5300C333240AF0124FF87003024EFA12500DB6
:104E63007409F0A3E50CC43354E0450D12501FE55B
:104E73000C702D7C008023ECC333F8E433F9E51088
:104E830028F8E51139F988828983124F07888289C6
:104E930083122E3DF0A30EAF830CECC3950D40D7C8
:104EA300E5082417F582E5091248ED120DBAE50865
:104EB300241AF582E50912477D7403120AEFAC82C6
:104EC300AD83AA0AAB0B120B56E96019E508241649
:104ED300F582E509124F01120AEFA882A983E508BA
:104EE30024181247ED8508828509831257B4AA084E
:104EF300AB09120BA4E9FEEEF9740B024FF0124852
:104F0300F1740322E08E828F83F0A3AE82AF8322FB
:104F13001208A37F0802058D1239D2F9EA2400E4AE
:104F230039FB22EA240BF5822274EE1203748A0CF5
:104F33008B0D890E8C088D097412120AEFE0F50FA0
:104F43007413120AEF124FD99005411247A96077E3
:104F5300E50FC333F8E433F9E8240EFAE93400FB30
:104F630012138A8A108B11AE10AF11EE4F60588E58
:104F7300828F8374D4F0A3A3E50CF0A3E50D124F45
:104F8300E1E50EF0AC08AD09EE2405FAEF12525B31
:104F9300EE240D122B20E50FF0850A08850B097509
:104FA3000A007808120857E50FC333FCE433FDEE1B
:104FB300240EFAEF124FD01208A3EEFAEFFB90057E
:104FC3004112521A121D9102405AFAE5093400FBAC
:104FD300121360740322E0F50AA3E0F50B22124FCB
:104FE300E522124FE922123C43A3A3A3221208A3F2
:104FF3007F0C02058D851882851983AA82AB8312E3
:105003000E0E8A088B09EA450922EA240BF582EB86
:1050130012480DFEA3E0FF8E828F8322F0A3AE829F
:10502300AF83AC0EAD0FEEFAEFFB12503122121B21
:10503300B812503822EE2408FEEF3400FF22E0FAC3
:105043008E828F83A3A3E022FEA3E03400FF8E822F
:105053008F83E02212397512505E22E0FCA3E0FD3B
:1050630022122BDB120DA22274F6120374EAFEEB5A
:10507300FF9003BA801388828983E06E7003A3E0F4
:105083006F603A88828983A3A31247A970E87A04E0
:105093007B001214268A088B09A808A909E849602D
:1050A3001C888289831250C79003BA124B58888296
:1050B3008983A3A31247819003BA1247F40247B22C
:1050C3008A828B83EEF0A3EFF02274F41203747ED2
:1050D300009003BA80070E88828983A3A31247A98D
:1050E30070F4EEC333FAE433FB125175607E7F0034
:1050F3009003BA80248882898312505AEFC333FA0B
:10510300E433FBE5082AF582E5093BF583ECF0A3DC
:10511300EDF00F88828983A3A31247A970D7900368
:10512300AB1225387003A3E0697808701912085B85
:10513300EEF50A780A12085F7C777D037900900305
:10514300AB125180801A12085BEEF50A780A120836
:105153005F7C777D0379009003AB124B58120E38B6
:1051630074031208A3AA08AB0912142C120BBC0275
:105173002BE51214268A088B09EA450922122BDB38
:10518300120E3E22C082C08380128A828B83A3A325
:105193001239839003BA1247F412142C9003BA12F3
:1051A300389370E6023D2B74F61203749003631276
:1051B30039AF9003CE1252091247F47ACE7B0379AA
:1051C30050121BD09003CE122757FAEFFB120E9EFC
:1051D3009003CE1239AF9005431247A960257A0692
:1051E3007B0012138AEA4B601A8A828B8374D5F090
:1051F300A3A3E412522F0412524090054312521AF1
:10520300121D910247B212520D22E0F8A3E0F99069
:105213000363228E828F8312521E2212522222E0B5
:10522300F812522822A3E0F58388822212523322F5
:1052330012523722F08A828B83A3A3A32212523302
:10524300A3EEF0A3EFF022F582EF12480DF922123C
:105253004925EA4B22FAE5093400FB121BB8221256
:10526300482CA3A3A3A3A3A3A3229020FDE49324E8
:1052730001F8E43400F97A027B002274F712037414
:105283007E00800412586B0E12538F40F77E00EE9F
:105293001252AA74FEF0A3041252BFE4F00EEEC33E
:1052A300940340EB024D9E75F003A4F8A9F074BC7F
:1052B30028F8740339F988828983A3221252C322FE
:1052C300F0888289832274F71203747F0080010FB0
:1052D3009020FAE493F8EFC3985026EF12547B6AB8
:1052E3007003A3E06B70E81258186C7003A3E06DB1
:1052F300600A74FF6C700374FF6D70D31253868061
:10530300047A007B00024D9E74F61203747CFF7DC9
:10531300FF7AFE7BFF120E62EA4B70407508008035
:1053230036E50875F017A4F8A9F0744D28F58274D2
:105333000A12548D600C744C28F582740A12548D31
:105343007013743E28FE740A39FF8E828F831254C1
:105353009AEEFAEFFB05081253F540C50247B27403
:10536300F41203748A088B09ECFEEDFF800B120E16
:1053730074EEFCEFFDAA08AB09120E62EA4B70EE65
:10538300022BE5743E28FA740A39FB229020FAE4D2
:1053930093F8EEC3982274F7120374EAFEEBFFEE60
:1053A3004F60101253B974FEF0A3041257BE14F0E9
:1053B300A304F0024D9E7C177D00790012136C8EBE
:1053C300828F832274F7120374EAFEEBFF750800E1
:1053D3008018E50875F017A4F8A9F0125823700394
:1053E300A3E06F600312587305081253F540E302FC
:1053F3004D9E9020FAE493F8E508C3982274F612C0
:105403000374120E628A088B09A808A909E8496087
:105413000AE8240DFAE93400FB80047A007B0002D9
:1054230047B274F41203748A0A8B0BECFEEDFF751A
:105433000800750900802EE50975F017A4F8A9F096
:1054430012585E601EE50912547B650A7004A3E0DE
:10545300650B700375080AEEFCEFFD12571A600323
:105463004308A005099020FAE493F8E509C398508E
:1054730004E50860C202274F75F017A4F8A9F012DB
:10548300548622743E28F582740A39F583E022F5A6
:1054930082EF123978E422122BDB120C9A22125279
:1054A300C3A3A3A3A3A3A3A3A32274F21203748A83
:1054B300088B09ECFEEDFF740E120AEF124FD9753B
:1054C3000C007C007D018010121384E50CF5F0EADA
:1054D30084ACF0750C007D007800790080031256CF
:1054E300571256B34003025579E8FAE9FBEA75F01F
:1054F30017A4FA85F00D75F017EBA4250D12568F3E
:105503007003A3E0F460D712566D65087004A3E03E
:10551300650960CA12566D6E7003A3E06F60BF1217
:10552300566D650A7004A3E0650B60B2E8FAE9FB07
:10553300EA75F017A4FA75F017EBA4250DFB744C6C
:105543002AF582740A12564E509474016D050C604C
:105553008DE50CC39C4087E875F017A4F8AAF07595
:10556300F017E9A42AF9743E28F582740A39F58301
:10557300124B5802564B780079008003125657128B
:1055830056C04003025632E8FAE9FBEA75F012A46A
:10559300FA85F00D12569F64FE7003A3E0F460DCFD
:1055A30012569565087004A3E0650960CF125695FD
:1055B3006E7003A3E06F60C4125695650A7004A36E
:1055C300E0650B60B7E8FAE9FBEA75F012A4FA7537
:1055D300F012EBA4250DFB74CD2AF5827408125644
:1055E3004E5099E8FAE9FBEA75F012A4FA75F01245
:1055F300EBA4250D12566064016081E06402700320
:1056030002557F74016D050C700302557FE50CC3D1
:105613009C500302557FE875F012A4F8AAF075F0C8
:1056230012E9A42AF974C428F5827408025570E5B6
:105633000C6011EC700E7401650C60030254CB7C9A
:10564300010254D67AFE7BFF0225443BF583E01426
:10565300C3940622E8240108E93400F922FB74C844
:105663002AF58274083BF583E022E8FAE9FBEA7540
:10567300F017A4FA75F017EBA4250D12568222FB3E
:10568300743E2AF582740A3BF583E0221256826443
:10569300FE22E8FAE9FBEA75F012A4FA75F012EBC0
:1056A300A4250DFB74C42AF58274083BF583E0221C
:1056B3009020FAE493FAC3E89AE99400229020F642
:1056C300E493FA740193FBC3E89AE99B2274F512FD
:1056D30003748A088B09ECFEEDFF750A008002054E
:1056E3000A9020FAE493F8E50AC3985028EEFCEFF9
:1056F300FDE50A75F017A4F8A9F012571A60E0E562
:105703000A75F017A4F8A9F0743E28F582740A39D3
:10571300F58312372D8010744028FA740A39FB126E
:105723001BB2E9221208A37F0302058D74F0120352
:10573300748A088B098C0A8D0B890C120E688A0EE9
:105743008B0FAE0EAF0FEE4F60551253B9E508F055
:10575300A3E5091257BE1257B6E50C600AEE240FF3
:10576300122B20E50C8006EE240F1257AEF09003A7
:10577300D01247A9601A9003AAE064017008EE24CE
:105783000E1254928010EE240E122B207407800602
:10579300EE240E1257AE1230731202231257A502D3
:1057A3004F16EE240D123975E8F022123975740183
:1057B30022A3A3E50AF0A3E50BF0221235A4A3224A
:1057C30074F51203748A088B09ECFEEDFF750A0069
:1057D300800F1258237003A3E06F60031258730500
:1057E3000A9020FAE493F8E50AC3985025E50A7570
:1057F300F017A4F8A9F012581865087004A3E0651F
:105803000970CF744828F582740A39F5831250C79A
:1058130080CD02572A744828F582740A12548D22C7
:10582300744828F582740A12548D6E2274F7120399
:1058330074EAFEEBFF7508008019E50812547B6ECD
:105843007003A3E06F700A12585E7005E5081258E2
:105853006C05081253F540E2024D9E744028FA7419
:105863000A39FB120B50E922EE75F017A4F8A9F0E0
:10587300125386120E74221252C3123D22E8492299
:10588300C082C08374F812091D851882851983AC00
:1058930082AD837583877582AC74081207B7851848
:1058A30082851983AC82AD83124A2864017004791E
:1058B30000800279017408023D01C082C0838A829C
:1058C3008B83E0D2E7F0121624026351C082C083B7
:1058D3007900125D8912732AC082C083900330124B
:1058E3006F4CD083D082C3E09CA3E09D500C127414
:1058F300F9FAA3E0125900600109026351FBEA754A
:10590300F00BA4FAA8F075F00BEBA428FB9003327C
:10591300E02AF8A3E03B8882F583E0540F2274F772
:105923001203748908125D89125E2FACF075F00BB7
:10593300E9A42CF9900332E028FEA3E039FF7401B7
:10594300650860067402650870208A828B83125E84
:105953001B1269FF74026508701B125CDA125E6227
:1059630070138E828F83E4F0800BEA2403FCEB1226
:105973005DFD125E09EEFAEFFB120B2602668474DC
:10598300F41203741278ED79008E828F83E06076CF
:10599300890A890B8065E50A75F00BA4FAA8F075EE
:1059A300F00BE50B12590D7046E50A75F00BA4F8E0
:1059B300AAF075F00BE50B125E418E828F83E085B2
:1059C3000882850983125F23850882850983A312D0
:1059D30069FFEE2403FCEF125E061265281272A41F
:1059E300AA08AB09120B267901900330126F67E501
:1059F3000A2401F50AE50B3400F50B125CE2E50A13
:105A03009AE50B9B40900267B874F5120374EAFEA3
:105A1300EBFF740B120AEF12652D750A01EC4D6052
:105A23002BEC127909ED12732A1269F77901120B23
:105A330032E5084509606F850882850983A31278DA
:105A4300F77902AA08AB09120B32805AE508450917
:105A5300602B12732E126C21126529125E4C700C8E
:105A6300EEFAEFFB120B38E9F50A80CBEE2403FACA
:105A7300125D8470317903EEFAEFFB80CA8E828F58
:105A830083A3E064FE7003A3E0F4700BEE24030A27
:105A93000A0A125D84700CEEFAEFFB120B38E9F57B
:105AA3000A8003750A00A90A7F0302058D74F712A1
:105AB3000374900330126689EA4B602FEA75F00B8A
:105AC300A4FAA8F075F00BEBA428FBEAFEEBFF1297
:105AD3001426900332126689900332126F536012B8
:105AE300EEFCEFFD790012136C8007900332E4F0B3
:105AF300A3F0026684900330126ED7C3EE98EF9939
:105B030022C082C083EC4D6005121BB880097C085B
:105B13007D00790012136C02635174F612037479D9
:105B230000EA4B6018780088081274B0EB1274F521
