:020000040000FA
:06000000020A300201BB00
:03002B0002087B4D
:030033000206972B
:0300430002073081
:030053000200ECBC
:03006B0002067D0D
:100083000201500101FF01010503010F10FEFFDE14
:1000930012DE12DE12DE1294118E11DE127D1F00AB
:1000A3000000004120000000000C0000000C0001D3
:1000B300FFFF010101006505000000DA05E80364A4
:1000C300006400B801020200080000050207051ED3
:1000D30002051E020A0A03B80B02803E0102F1FF69
:1000E300011496511800020206C0E074F21203D400
:1000F300A2AFE433FED2AFE5A7FFE5A1F5085F5455
:10010300106006121A3475A1EFE5085F5408600801
:10011300121A3A75A1F7802BEFA2E0C0D0E508A22E
:10012300E092F0120957158182F05017906198E020
:10013300F8900AB4E0C398A2D265D0335002E8F035
:1001430075A1FEEEA2E092AF7F01020433C0E0741A
:10015300F21203D4A2AFE433FED2AF9061A4E0F86D
:10016300759B00E59158540860087591F7121A823F
:10017300802AE59158541060087591EF121A88800F
:100183001BE8A2E0C0D0E591A2E092F01209571556
:100193008182F05007E0C2E0F0121BCC9061A3E033
:1001A300F8E5E9585404600E121BA275E9FB90614F
:1001B30093E0A2E640F2808BC0E074F21203D4A273
:1001C300AFE433FED2AF9061A5E0F8E5BF58540425
:1001D300600675BFFB121BE4020146C3E498F8E412
:1001E30099F912021F8026C3E49AFAE49BFBE920E3
:1001F300E7E912021FE498F8E499F922C3E498F8B6
:10020300E499F912021FE498F8E499F9C3E49AFA1D
:10021300E49BFB22EB20E7CFE920E7E0B90010BB2A
:100223000008E88AF084F8AAF022E4FBC8FA22EB7B
:1002330070227B10C833C8C933C9335007C39AC36C
:10024300DBF280069A50012ADBEAC833F4C8C933CB
:10025300F4C9FA2275F008E4C833C8C933C933C9ED
:100263009AC99B5004C92AC93BD5F0ECFBC833F4A7
:10027300C8E4C9FA22080808EAC0E0EBC0E086F047
:10028300E7A4FA180986F0E7A42AFA180986F0E722
:10029300A42AFA180986F0E7A42AFA1986F0E7A433
:1002A300FBE5F02AFA190886F0E7A42BFBE5F03A00
:1002B300FA190886F0E7A42BFBE5F03AFA181809B7
:1002C30086F0E7A4C5F02BFBE43AFA1908E7C5F07A
:1002D300C6A426F6E5F03BFBE43AFA1886F0E7A459
:1002E300F6E5F00826F6E43B08F6E43A08F6D0E033
:1002F300FBD0E0FA22E4CFC0E0E4CEC0E0E4CDC01E
:10030300E0E4CCC0E075F020C3E633F608E633F64C
:1003130008E633F608E633F6181818EC33FCED3329
:10032300FDEE33FEEF33FFC3EC9709ED9709EE972C
:1003330009EF97191919400FFFEC97FC09ED97FD89
:1003430009EE97FE191906D5F0BEECF709EDF7098A
:10035300EEF709EFF7191919D0E0FCD0E0FDD0E072
:10036300FED0E0FF222518C582C0E0E51934FFC5A1
:1003730083C0E0E518C3958224F810AF088583197C
:100383008582188008858319858218D2AFCEF0A3A1
:10039300E520F0A37808E608F0A3DEFAEFF0A3E582
:1003A3008124FAF8E608F0A3E608F0A3E608F0A330
:1003B3000808E608F0A3E608F0A315811581D0E04C
:1003C300FED0E0F8158115811581E8C0E0EEC0E0AC
:1003D30022C0D02518C582C0E0E51934FFC583C00B
:1003E300E0E518C3958224F310AF0885831985824D
:1003F300188008858319858218D2AFC8F0A3E9F065
:10040300A3EAF0A3EBF0A37908E709F0A3D8FAEC89
:10041300F0A3EDF0A3EEF0A3EFF0A3D0E0F0A3D0B0
:10042300E0F0A3D0E0F0A3E520F0A3E5F0F0A322F1
:10043300851983851882E0C0E0A3E0F9A3E0FAA35D
:10044300E0FBA37808E0F608A3DFFAE0FCA3E0FDF5
:10045300A3E0FEA3E0FFA3E0C0E0A3E0C0E0A3E0CD
:10046300F5D0A3E0F520A3E0A3F5F010AF08858352
:10047300198582188008858319858218D2AFD082A6
:10048300D083D0E0F8D0E032120A92B9000302041C
:10049300CDE4900301787B790E8002F0A3D8FCD9D8
:1004A300FA90107BAA82AB839000867867790180EB
:1004B30015E493A3AC82AD838A828B83F0A3AA82D3
:1004C300AB838C828D83D8E9D9E77582027583D992
:1004D30074031207F375828475831E74001207F385
:1004E3000975F0108E1A8F1B85821F85831E851850
:1004F30082851983E0CEA3E0CF851F82851E83EB1F
:10050300C9EAC8EDCBECCAC3E833C8E933C9EA3357
:10051300CAEB33CBC3EA9EF51DEB9FF51CB3500426
:10052300AB1CAA1DEC33CCED33CDD5F0DAAE1AAF4C
:100533001B22D083D082ECC0E0EDC0E0E493A3FCA7
:10054300E493A3FDED4C600D12060DEC24FFFCEDCE
:1005530034FFFD80EFE493A3FCE493A3FDED4C6033
:100563000D1206DBEC24FFFCED34FFFD80EFD0E041
:10057300FDD0E0FCE493A3C0E0E493C0E02285193E
:1005830083851882E0A3FEE0A3F5207808E0A3F6B4
:1005930008DFFAE0A3FFE0A3C0E0E0A3C0E0E0A32C
:1005A300C0E0E0A3C0E0E0A3C0E010AF088582187C
:1005B3008583198008858218858319D2AFD083D0AB
:1005C300820207F9D083D082E9C0E0E493A3C38613
:1005D300F0C5F095F0F908E493A386F0C5F095F023
:1005E300700BE493A3C3994005E9048002A3E47567
:1005F300F002A42582F582E5F03583F583D0E0F996
:10060300E493A3C0E0E493C0E022C0E0C3E4939684
:10061300087401939618400FE493667008087401F8
:1006230093661870007019A3A3C3E493960874012A
:10063300939618A3A3400DD0E0D0E0D0E00205715B
:10064300A3A3A3A3A3A3D0E0227404800474028011
:1006530000CCC0E0EDC0E0E518C39CCCAD1950015F
:100663001D10AF068C188D1980068C188D19D2AF0A
:10067300120775D0E0FDD0E0FC22C0E074F2120353
:10068300D4E589A2E1500312190E758900C2C57F12
:1006930001020433C0E074F21203D4E58BA2E050EC
:1006A3000312190E758B00C2E880E474028000CC3B
:1006B300C0E0EDC0E0E518C39CCCAD1950011D109E
:1006C300AF068C188D1980068C188D19D2AF1207BE
:1006D30053D0E0FDD0E0FC22C0E0C0F088F0E4930A
:1006E3006670080874019366187000A8F0A3A370DD
:1006F3000BD0F0D0E0D0E0D0E0020571A3A3D0F09E
:10070300D0E022D083D082CCC0E0E493A360061271
:1007130007B51470FAE493A360061208C51470FABF
:10072300D0E0FCE493A3C0E0E493C0E022C0E07413
:10073300F21203D4A2AFE433FED2AFC2C0E5D1A21A
:10074300E450031219AAEEA2E092AF7F0102043330
:10075300CAC0E0E493A3C582CCC582C583CDC5835B
:10076300F0A3C582CCC582C583CDC583DAE5D0E0CD
:10077300CA22CAC0E0E0A3C582CCC582C583CDC569
:1007830083F0A3C582CCC582C583CDC583DAE6D009
:10079300E0CA227009080808226016181818C6C390
:1007A30033C608C633C608C633C608C633C6D5E043
:1007B300EA22C0E0E493A3D39C5010E493A3C39C28
:1007C300400AD0E0D0E0D0E0020723A3A3A3D0E007
:1007D30022C008C3E096F50808A3E096420808A3E0
:1007E300E096420808A3E09645087001D3D008229A
:1007F300C09FF59FE473D09F22D083D082C09FE433
:1008030093C0E0740193C0E0740293F59F2225180E
:10081300F58210AF08F518400215198008F5184045
:10082300021519D2AF851983227404800A740380D8
:1008330006740280027401C0E0F404120811D0E0CF
:10084300120A6D22C0D0251810AF08F51850020502
:10085300198008F51850020519D2AFD0D022BB0178
:1008630002E722C082C08389828A83BB0003E080BF
:1008730002E493D083D08222C0E0C0D0E8C0E0E598
:10088300A8D2AFC2C7A2E792AFD0E0F8D0D0D0E0F1
:10089300326016080808C6C313C618C613C618C69E
:1008A30013C618C613C6D5E0EA22C3E0C696F608F7
:1008B300A3E0C696F608A3E0C696F608A3E0C6969C
:1008C300F622C0E0E493A36C7009D0E0D0E0D0E05E
:1008D300020723A3A3D0E022251810AF08F5184080
:1008E3000215198008F51840021519D2AF22E766E0
:1008F30070100809E766700A0809E76670040809BA
:10090300E76622E066701008A3E066700A08A3E0B9
:1009130066700408A3E06622C3E09608A3E0960885
:10092300A3E09608A3E096A2D265D03322C3E09653
:10093300F008A3E096F008A3E096F008A3E096F091
:1009430022E026F008A3E036F008A3E036F008A37F
:10095300E036F022C0E0E8C0E0E58124FCF8E6A23E
:10096300E7D0E0F8D0E022E647F60809E647F608C4
:1009730009E647F60809E647F622E026F608A3E06B
:1009830036F608A3E036F608A3E036F622E627F6A5
:100993000809E637F60809E637F60809E637F622C6
:1009A300E657F60809E657F60809E657F60809E692
:1009B30057F622E056F608A3E056F608A3E056F6EB
:1009C30008A3E056F622E056F008A3E056F008A389
:1009D300E056F008A3E056F022700422600D18C61A
:1009E300C333C608C633C6D5E0F41822E4C396F66B
:1009F30008E496F608E496F608E496F622C6F4C6EA
:100A030008C6F4C608C6F4C608C6F4C622C3E796E9
:100A13000809E7960809E7960809E79622C3E096CE
:100A230008A3E09608A3E09608A3E0962275D000F9
:100A33007581407518017519030002048BE0F608EF
:100A4300A3E0F608A3E0F608A3E0F622600C08C6CC
:100A5300C313C618C613C6D5E0F422E6F008A3E60E
:100A6300F008A3E6F008A3E6F022CAC0E0E6F0A38C
:100A730008DAFAD0E0FA22E0FAA3E0FBA3E0FCA351
:100A8300E0FD22EAF0A3EBF0A3ECF0A3EDF022E506
:100A9300C754F84401F5C77901222518F582E435D6
:100AA30019F58322C2AF75D69F020000221207FCFC
:100AB30092E2021207FCDFE3021207FC82E4021255
:100AC30007FCC9E5021207FCE7E5021207FC9122C5
:100AD300001207FCA322001207FCF522001207FCF8
:100AE3005623001207FCE023001207FC84240012A3
:100AF30007FCD824001207FCF124001207FC172579
:100B0300001207FC5225001207FC9625001207FC71
:100B1300BD25001207FC0E26001207FCBE2600129C
:100B230007FC7627001207FC3E28001207FCFE286C
:100B3300001207FC4229001207FC6729001207FC78
:100B4300AA29001207FCF729001207FC4F2B0012F9
:100B530007FCD52B001207FCF32B001207FC1D2CFE
:100B6300001207FC372C001207FC462C001207FC6E
:100B7300512C001207FC112D001207FC6A2D0012E4
:100B830007FC2C2E001207FC342E001207FCF82E53
:100B9300001207FC642F001207FC8F30001207FCC1
:100BA300A030001207FC1631001207FCA831001216
:100BB30007FC0032001207FCC032001207FCE732C8
:100BC300001207FCF932001207FC4C33001207FC39
:100BD3008933001207FC9633001207FC1935001203
:100BE30007FC6E36001207FCA036001207FC3337F1
:100BF300001207FC6C37001207FCB837001207FC21
:100C0300D438001207FC1D3B001207FC283B0012DE
:100C130007FC333B001207FC3D3B001207FC483B3B
:100C2300001207FC623B001207FC6C3B001207FC3E
:100C3300763B001207FC813B001207FCA93B001224
:100C430007FC043C001207FC283C001207FC4C3C48
:100C5300001207FCAA3C001207FCEE3C001207FC42
:100C63000A3D001207FC813D001207FCB93D00124A
:100C730007FC053E001207FC623E001207FC1C3F06
:100C8300001207FC0041001207FC5941001207FC47
:100C93008942001207FCAF42001207FC38440012DD
:100CA30007FCB447001207FC8649001207FC4F4BB0
:100CB300001207FCFC4B001207FC674D001207FCF7
:100CC300064E001207FC4B4E001207FCB54E0012F5
:100CD30007FCC44E001207FC4B51001207FCFD52E7
:100CE300001207FC6A53001207FC4954001207FC68
:100CF3006255001207FCDF56001207FCFE56001275
:100D030007FC5357001207FC5858001207FC805881
:100D1300001207FCD858001207FCB759001207FC51
:100D2300FB59001207FC465A001207FCB15A001285
:100D330007FCF25B001207FC565C001207FCA45D83
:100D4300001207FC0460001207FC3560001207FC68
:100D5300ED61001207FC4262001207FC46630012B9
:100D630007FCE363001207FC3C64001207FCEF641A
:100D7300001207FC9165001207FC3166001207FCA4
:100D8300D666001207FCDE87011207FC1D880112DC
:100D930007FC648A011207FCAE8A011207FCC98BA7
:100DA300011207FC398C011207FC6E8C011207FC3F
:100DB300E28D011207FC6590011207FC8E9101126E
:100DC30007FC2492011207FC2C9B011207FCC19B18
:100DD300011207FCA89E011207FC9B9F011207FC4E
:100DE300FC9F011207FC18A1011207FCFDA20112CE
:100DF30007FC0EA5011207FC78A5011207FC4AA601
:100E0300011207FC01A7011207FC0BA7011207FC43
:100E130039A7011207FCF6A7011207FCCDA801129E
:100E230007FC94A9011207FC46AA011207FC6FAA4A
:100E3300011207FC91AA011207FCE7AC011207FC9F
:100E4300BFAD011207FC03AE011207FC6BAE01122A
:100E530007FC23AF011207FC55AF011207FC99AF42
:100E6300011207FCCFAF011207FC1BB0011207FCF4
:100E730070B0011207FC75B0011207FCC8B0011273
:100E830007FCEDB0011207FCFCB1011207FC60B2D4
:100E9300011207FCD0B2011207FC5CB3011207FC7C
:100EA30029B6011207FC0DB7011207FC90B8011215
:100EB30007FCC6BA011207FC74BB011207FC24BC71
:100EC300011207FC65BE011207FC08BF011207FCF3
:100ED3004FBF011207FCFBC0011207FC0FC1011237
:100EE30007FC19C1011207FC41C1011207FC4DC1E6
:100EF300011207FC6CC1011207FC51C3011207FC6C
:100F030088C3011207FC92C3011207FCC8C3011274
:100F130007FC17C5011207FC5BC5011207FC03C6DA
:100F2300011207FCE6C6011207FC91C7011207FC78
:100F3300DDC8011207FCDBC9011207FC81CA0112DB
:100F430007FC11CB011207FC28CB011207FC5FCB76
:100F5300011207FC69CB011207FC74CB011207FCD9
:100F630092CB011207FCD6CB011207FC33CC011242
:100F730007FC58CC011207FC72CC011207FCFECC13
:100F8300011207FC1BCE011207FC88CE011207FCDD
:100F93006FCF011207FC96CF011207FC0AD0011292
:100FA30007FC85D0011207FC89D1011207FC7FD20F
:100FB300011207FC2ED3011207FC41D4011207FCD6
:100FC300DDD4011207FC6AD5011207FC48D60112D1
:100FD30007FC80D6011207FCD8D6011207FCA1D763
:100FE300011207FCC2D7011207FC49D8011207FC02
:100FF3006DD8011207FC8FD8011207FCD8D8011253
:1010030007FCEEDA011207FCD5DB011207FC86DCD4
:10101300011207FCBCDE011207FC0CDF011207FC06
:101023004CDF011207FC8EDF011207FCEADF01121D
:1010330007FC18E0011207FC3CE0011207FC8FE0FB
:10104300011207FCBDE0011207FCF6E0011207FCE8
:101053004BE1011207FCB1E1011207FC05E30112A8
:1010630007FC28E5011207FC95E5011207FCBEE524
:10107300011207FC49E6011207FCB0E6011207FC66
:10108300FBE6011207FC1FE7011207FC43E701120D
:1010930007FC9EE7011207FCB9E7011207FC72E89F
:1010A300011207FC18F4031207FC57F4031207FCA0
:1010B3007880021207FCBE80021207FC9E81021296
:1010C30007FCA082021207FCA383021207FC2F85F0
:1010D300021207FC8D85021207FC4A86021207FCE6
:1010E3006887021207FCD987021207FC15880212CF
:1010F30007FC6388021207FC6D88021207FCB188A3
:10110300021207FC0D89021207FCA889021207FCD0
:10111300258A021207FCF48A021207FC8D8B021245
:1011230007FCAD8B021207FCE38B021207FC148C45
:10113300021207FCD58C021207FCE58C021207FC95
:10114300398D021207FC548D021207FC668D0212C0
:1011530007FC6F8D021207FCC98D021207FC258E56
:10116300021207FC718E021207FC8C8E021207FC1E
:10117300BD8E021207FCDA8E021207FCE68E021203
:1011830007FC5A90021207FC7390021207FCDA90D4
:10119300021207FCED90021207FCFB90021207FCFF
:1011A300AF91021207FC9392021207FC9993021269
:1011B30007FC2394021207FC2D94021207FC9A9455
:1011C300021207FCB194021207FCE394021207FC1B
:1011D3001C95021207FC4695021207FCA795021202
:1011E30007FCC795021207FCE595021207FC2B9634
:1011F300021207FC5197021207FC9E97021207FC8A
:10120300CD97021207FC4398021207FC6B98021257
:1012130007FCA498021207FCB298021207FC0A9971
:10122300021207FC5999021207FC9899021207FC53
:10123300C899021207FCF499021207FCFF990212E3
:1012430007FC1D9A021207FCDF9A021207FCE99AB7
:10125300021207FC249B021207FC3A9B021207FCB2
:101263008F9B021207FCA39B021207FCB19C021284
:1012730007FCC49C021207FCD99C021207FC7B9D4D
:10128300021207FCFE9D021207FCBC9E021207FC21
:10129300C79E021207FCF39F021207FC0FA0021263
:1012A30007FC61A0021207FCA0A0021207FCB5A074
:1012B300021207FC17A1021207FCA6A1021207FCE7
:1012C300F1A1021207FC42A4021207FCC0A40212FD
:1012D30007FC35A5021207FC57A7021207FC6FA7EC
:1012E300021207FC72A7021207FC7EA7021207FC78
:1012F30092A7021207FC9AA7021207FCCDA70212BB
:1013030007FC7DA8021207FCF3A8021207FC66A9DA
:10131300021207FC1AAA021207FCCFAA021207FC48
:10132300EEAA021207FC8EAB021207FC9AAB021262
:1013330007FCC5AB021207FCC8AB021207FC32ACB8
:10134300021207FC5AAD021207FC32AE021207FC6E
:10135300BDAE021207FCD6AF021207FC93B0021215
:1013630007FCCCB0021207FCFDB0021207FCBBB1B4
:10137300021207FCEBB1021207FCC6B2021207FC11
:101383005FB3021207FCEAB3021207FC9BB402121A
:1013930007FC1EB5021207FC50B5021207FC91B5FB
:1013A300021207FC4E99031207FCB399031207FCC0
:1013B300F099031207FC3F9A031207FC559C031292
:1013C30007FC389E031207FCA2A1031207FCDDA150
:1013D300031207FCFFA1031207FC62A2031207FC1E
:1013E30096A2031207FCB9A2031207FCA6D70212A6
:1013F30007FC42A3031207FC898D031207FC078E27
:10140300031207FC3D8E031207FCA98E031207FC8F
:101413001C90031207FC3890031207FC7D90031203
:1014230007FC0B91031207FC6491031207FC9192D2
:10143300031207FCA393031207FC0094031207FC97
:101443006C94031207FC3DE0021207FC0E95031295
:1014530007FCBB95031207FCCD96031207FCF89615
:10146300031207FC4397031207FC8A97031207FC36
:101473001C98031207FCD798031207FC40D60312EB
:1014830007FCBBD6031207FCC6D6031207FCE7D63C
:10149300031207FC8EA3031207FC98A3031207FC95
:1014A300E4A3031207FC52A4031207FC73A4031260
:1014B30007FC23A5031207FCB7A7031207FCC0A769
:1014C300031207FC13A8031207FC3CA8031207FC32
:1014D300A3A8031207FC34A9031207FC76A903127D
:1014E30007FCC0A9031207FC1FAA031207FC4BAA9F
:1014F300031207FCDCAA031207FC1BAB031207FC55
:101503005AAB031207FC8FAB031207FCA1AB031208
:1015130007FCB3AB031207FCD2AB031207FCDBAB34
:10152300031207FC91AC031207FCD1AC031207FCB6
:10153300C1F1031207FCBBE5031207FCF1E503123B
:1015430007FC3AE6031207FC8AE7031207FC22674B
:10155300001207FC6168001207FC9D68001207FC7B
:101563005C6A001207FC856A001207FC186D001202
:1015730007FC5C6D001207FCE56E001207FC7D6F33
:10158300001207FCE56F001207FC8670001207FCCF
:10159300C870001207FC0871001207FC9372001256
:1015A30007FC0374001207FC2876001207FC56762A
:1015B300001207FC7D76001207FC8676001207FCFA
:1015C3000D77001207FC2B7A001207FCDFFF0112D4
:1015D30007FCF5FF011207FCB4FF021207FCDBD284
:1015E300031207FCEED2031207FC8BD3031207FC92
:1015F300C6D3031207FCE1D3031207FC06D403127C
:1016030007FC4BD4031207FC7CD4031207FCADD4B4
:10161300031207FC33D6031207FC6EFE021207FC0B
:10162300A4FE021207FCC0FE021207FC02FF021214
:1016330007FC12FF021207FCA7FF021207FCB1FF0F
:10164300021207FC32C8031207FCEBC8031207FCA3
:101653009BC9031207FCC1CA031207FC60CB031228
:1016630007FC0EE6021207FC63E6021207FC4CE7D6
:10167300021207FCE5E7021207FC2FE8021207FC3F
:1016830091E8021207FCA5E8021207FC87EA02129E
:1016930007FC02EB021207FC2CEB021207FC05ED20
:1016A300021207FC20ED021207FC6FED021207FC89
:1016B30085ED021207FC92ED021207FCC6ED021241
:1016C30007FCDFED021207FC7FEE021207FCD9EEE6
:1016D300021207FC27EF021207FC3AF0021207FC82
:1016E300ABF2021207FCE0F2021207FC6EF30212E5
:1016F30007FCCFF3021207FCD4F3021207FC10F429
:10170300021207FC72F4021207FC42F5021207FCF4
:1017130067F5021207FC71F5021207FC74F5021259
:1017230007FCE3F5021207FCFEF5021207FC11F6B3
:10173300021207FC3DF6021207FC78F6021207FCC0
:101743007BF6021207FCB7F6021207FCCAF3031278
:1017530007FCE2F3031207FCF0F6021207FC3FF763
:10176300021207FCE1F8021207FC9FFA021207FCBF
:10177300E7FA021207FC09FC021207FC3AFD021207
:1017830007FC5CFD021207FCB8FD021207FC3AFEDF
:10179300021207FCACE8011207FCD7E8011207FCB0
:1017A300C4E9011207FC49EA011207FCB2EA01127B
:1017B30007FCFEEA011207FC7DEB011207FC0FECAC
:1017C300011207FC9BEC011207FCDDEC011207FC84
:1017D30049F1011207FCC9F2011207FC99F3011246
:1017E30007FCC0F3011207FC21F6011207FCADF65A
:1017F300011207FCC7F7011207FCA6F8011207FC48
:1018030028F9011207FC0080031207FCBA800312B7
:1018130007FC2C81031207FCC881031207FC3882E2
:10182300031207FCF184031207FCC885031207FCAB
:101833003586031207FCB287031207FC7C88031268
:1018430007FCC389031207FCD68A031207FC6F8BBC
:10185300031207FC358C031207FCC7DB031207FCDA
:101863001BDC031207FC73DC031207FCBEDC031250
:1018730007FC20DD031207FCB9DD031207FC21DEA0
:10188300031207FC2DDE031207FCD5E9031207FC44
:1018930006EA031207FCC0EA031207FC26EB031255
:1018A30007FC8DD9031207FC19DB031207FC44F56F
:1018B300031207FC55F5031207FCAFEB031207FCF9
:1018C300BDEB031207FCD7F5031207FC34F3031235
:1018D30007FC44F3031207FC5FF3031207FCC0F396
:1018E300031207FCBFF0031207FC44F1031207FCC9
:1018F300A8F1031207FCADEF031207FCCFEF0312AD
:1019030007FC39F0031207FC44F0031207FC88F0CC
:10191300031207FCC0F9011207FCCEF9011207FC00
:101923000FFA011207FC29FA011207FCA6FA0112A9
:1019330007FCA0FB011207FCC5FB011207FCE2FB3D
:10194300011207FCFFFB011207FC24FC011207FC38
:101953004CFC011207FC94FC011207FC0FFD011261
:1019630007FCBFFD011207FCD1CB031207FCDFCB41
:10197300031207FC59CC031207FC3DCD031207FCED
:10198300F6CE031207FC97F5031207FCAC7A00129C
:1019930007FC187B001207FCD77B001207FCE17CD5
:1019A300001207FC3A7E001207FC957E001207FC2A
:1019B300EA7E001207FCF37E001207FC057F00128B
:1019C30007FC6F7F001207FC837F001207FC8D7FEB
:1019D300001207FCF3BA031207FC48BB031207FC0F
:1019E30044BD031207FC76BD031207FC98BD031226
:1019F30007FCB1BD031207FCCABD031207FCD4BE2A
:101A0300031207FC6FBF031207FC7EFE011207FCE3
:101A1300A2FE011207FCBBFE011207FCEEFE01123F
:101A230007FC1FFF011207FC4DFF011207FCAFFF6C
:101A3300011207FCBEFF011207FCC8FF011207FCDD
:101A4300D5FF011207FC68DE031207FC8EDE0312CA
:101A530007FCCBDE031207FCDADE031207FCF9DE18
:101A6300031207FC61DF031207FC6ADF031207FCA2
:101A7300C9DF031207FCEDDF031207FCACE003121E
:101A830007FCB9E0031207FCCAE0031207FCA5F444
:101A9300031207FCC2F4031207FCE6BF031207FCA0
:101AA30044C1031207FC51C1031207FC64C10312B2
:101AB30007FC83C1031207FC99C1031207FCADC1E4
:101AC300031207FC22C2031207FC87C2031207FC9E
:101AD30037C3031207FC0CC4031207FC1CC4031214
:101AE30007FC2BC4031207FC9BF2031207FCBFF293
:101AF300031207FCE7F2031207FC0FF3031207FCC0
:101B0300F8E0031207FC1FE1031207FC40E1031294
:101B130007FCA5E1031207FC5EE3031207FC77E36E
:101B2300031207FC83E3031207FC97E3031207FC8A
:101B3300B5E3031207FCBFE3031207FCC9E3031277
:101B430007FCDCE3031207FC2FE4031207FC68E441
:101B5300031207FC97E4031207FCE5E4031207FCF6
:101B630034E5031207FC4FE5031207FC59E50312A2
:101B730007FC6AE5031207FCB0E5031207FCA17F2B
:101B8300001207FCFAAC031207FC24AD031207FC96
:101B930040AD031207FC53AD031207FC69AD0312FA
:101BA30007FCC6AD031207FCF9AD031207FC35B2FF
:101BB300031207FC5BB3031207FC8EB3031207FC8B
:101BC300DAB3031207FC06B5031207FC2EB50312A2
:101BD30007FC43B5031207FC53B5031207FC97B583
:101BE300031207FCF8B5031207FC08B6031207FC3F
:101BF30067ED031207FC82ED031207FCABED031242
:101C030007FCC5ED031207FCEAED031207FC09EE1E
:101C1300031207FC21EE031207FC4FEE031207FC2D
:101C230069EE031207FC61F4031207FC5BCF031296
:101C330007FC62CF031207FC6ED0031207FC9ED091
:101C4300031207FCC4D0031207FCE7D0031207FCFE
:101C530009D1031207FC43D1031207FCA9D10312D4
:101C630007FCE2D1031207FC2ED2031207FC5BD25E
:101C7300031207FC7BD2031207FCEDE7031207FCF8
:101C830005E8031207FCF3E8031207FCD2E9031289
:101C930007FC9AEE031207FC0CEF031207FC4AEF52
:101CA300031207FC8BEF031207FC64C4031207FC47
:101CB30083C4031207FCD2C4031207FCEEC403124D
:101CC30007FC1FC5031207FC2FC5031207FC3CC505
:101CD300031207FC49C5031207FC35C6031207FCB0
:101CE30073C6031207FC7DC6031207FC8DC70312DC
:101CF30007FC98C7031207FCAAC7031207FCB3C764
:101D0300031207FCBDC7031207FC36B6031207FC18
:101D13007BBA031207FC89BA031207FC17F50312F7
:101D230007FCE1F4031207FC6FF5031207FCB9F596
:101D3300031207FC6FD6021207FCC3D5021207FC7D
:101D430009D4021207FCB9D1021207FC40D10212D6
:101D530007FCE7D0021207FC77D0021207FC4ED033
:101D6300021207FC2ECE021207FCFACD021207FC68
:101D7300C7CD021207FCABCD021207FCC4CC021282
:101D830007FC7CCC021207FCC7CA021207FC47CA35
:101D9300021207FC44CA021207FC41C9021207FCE3
:101DA3000FC9021207FC4CC8021207FC77C60212C5
:101DB30007FC08C6021207FC5BDF021207FC3FDFC9
:101DC300021207FCDFDE021207FC97DE021207FC99
:101DD300E5DD021207FCDAC5021207FCD7C50212C1
:101DE30007FCC4C5021207FC57DD021207FC6FC5CE
:101DF300021207FC5EC5021207FC50C4021207FC64
:101E03001AC4021207FC4ADD021207FCCD94031226
:101E130007FCC8C3021207FC69C3021207FC38C3DC
:101E2300021207FC00C0021207FCC0BF021207FC2B
:101E3300B4BF021207FC14BF021207FC54BE021205
:101E430007FCD6BB021207FC67B9021207FC25B9CF
:101E5300021207FCF9B7021207FCAEB7021207FC25
:101E6300EDB6021207FC30B6021207FCC6B5021229
:101E730007FC00B6021207FC44DA021207FCE6A2D2
:101E83000300000080FBE47300013636010100010A
:101E9300020100010301000104010606050200001E
:101EA300070100340801000F090401010D0100FFBF
:101EB3000E08000017020000190100FF1A010001BB
:101EC3001B0100FE1C0100081D0200001F01000190
:101ED30020010001210200002301000F2402000061
:101EE3002601000127010008280200FF2A0100073C
:101EF3002B0102402C0100002D0100012E010001E5
:101F03002F0100FF30010B1C310800003A010008CB
:101F13003B01000F2F010000030271023001600238
:101F23001102700201020202020280021002610227
:101F33003A0041006302730272026202430200022A
:101F4300130238000002000204021202000200021F
:101F53000002000204020402370037003C0244027C
:101F6300000239000002000265020002350281020C
:101F730000020502820283020002030071003001A5
:101F83006000110070003102200350048000100033
:101F930061000000140063007300720062004300DC
:101FA30000001300060000000000040012000000FF
:101FB30000000000000004000400370037003C026A
:101FC3004400000000000000000065000000350030
:101FD3008100000005000000830000000304710479
:101FE30002046004110470040204020401040204E4
:101FF300100461040004140463047304720462048F
:10200300430400041304060400040004040412043B
:1020130000040004000400045104640000040004EC
:1020230000044404000400040004000465040004E4
:1020330035048104640005040004830400040103DF
:1020430071030103010301030103010322030203DB
:102053000103100300030003000300030003000354
:1020630000034203000324030603000300030403E5
:10207300120325032303250323030403040300039B
:102083000003000344030003000323030003650369
:10209300210035038103000305030003000300034C
:1020A300010171010101010111010101310101016D
:1020B30001018001100161013B0014006301730100
:1020C3007201620143010001130106013D01350064
:1020D30004011201000100010001000104010401D7
:1020E300330133013C014401320136000001000198
:1020F30065010001350081010001050182018301B1
:10210300000136000100060000000F00000000007F
:10211300000000000000000003FFFF00000403FFB5
:10212300FF0000FFFF0FF4010005C40403200001BA
:1021330000030B000000000000000003010F00007B
:102143001E181300E21701001E180200AC1703004B
:10215300B2170400B8170500BE170600CA17FFFF21
:10216300000001CE0D06F80D08F20D0B100E104AFB
:102173000D02D40D05E60D07DA0D0CB00D0DC20DE1
:10218300FF000003EAF5E5D5D5C5B5A59595858589
:10219300757565655555454535352525151505EE83
:1021A300111E12F411FA1118120C12061224122A1B
:1021B3001230123C120012E811E21100160F000057
:1021C3000B150B020002220F32000006DE12F01282
:1021D300F612B811FC12B211BE11F210EC10281154
:1021E3002E112211DA103E135C13621344135013A1
:1021F3004A13303016181920231A1C1E300C0E02F5
:102203000B040B0A0708000F00383C3E363B3B35F6
:102213002B432C303017181921301B1D1F300001A0
:1022230019161816161523030000034948424D18C2
:102233001725050232130213081314130E13121277
:102243003612561342124812020402010101010917
:1022530002FE100411F81034110000000000000AFF
:10226300111C1100BE040A0E00150004007F00E8D3
:10227300030C002800000000000308100C0A0308E8
:102283000900040001FF1E1E0C05040F1008C08284
:10229300C0838A828B83E0D2E7F01217160233459C
:1022A300C082C083790012275D1256AEC082C083FC
:1022B300900334124434D083D082C3E09CA3E09DC6
:1022C300500C125D82FAA3E01222D460010902339A
:1022D30045FBEA75F00BA4FAA8F075F00BEBA42804
:1022E300FB900336E02AF8A3E03B8882F583E054B1
:1022F3000F2274F7120368890812275D122803ACB2
:10230300F075F00BE9A42CF9900336E028FEA3E066
:1023130039FF7401650860067402650870208A82BB
:102323008B831227EF12372574026508701B122660
:10233300AE12283670138E828F83E4F0800BEA246A
:1023430003FCEB1227D11227DDEEFAEFFB120ACEC4
:1023530002368274F41203681266A979008E828FA2
:1023630083E06076890A890B8065E50A75F00BA422
:10237300FAA8F075F00BE50B1222E17046E50A7539
:10238300F00BA4F8AAF075F00BE50B1228158E825A
:102393008F83E08508828509831228F78508828563
:1023A3000983A3123725EE2403FCEF1227DA123533
:1023B30003125128AA08AB09120ACE7901900334FB
:1023C300124B3DE50A2401F50AE50B3400F50B1227
:1023D30026B6E50A9AE50B9B40900238CF74F512B6
:1023E3000368EAFEEBFF740B120A9D123508750AA7
:1023F30001EC4D602BEC1266C5ED1256AE12371D83
:102403007901120ADAE5084509606F8508828509B2
:1024130083A31266B37902AA08AB09120ADA805AB7
:10242300E5084509602B1256B2123D7C12350412A1
:102433002820700CEEFAEFFB120AE0E9F50A80CBD4
:10244300EE2403FA12275870317903EEFAEFFB807A
:10245300CA8E828F83A3E064FE7003A3E0F4700B43
:10246300EE24030A0A0A122758700CEEFAEFFB1245
:102473000AE0E9F50A8003750A00A90A7F03020549
:102483008174F7120368900334123692EA4B602F7B
:10249300EA75F00BA4FAA8F075F00BEBA428FBEA9D
:1024A300FEEBFF121542900336123692900336125A
:1024B30049826012EEFCEFFD79001214A6800790AA
:1024C3000336E4F0A3F00236829003341240ECC3E7
:1024D300EE98EF9922C082C083EC4D6005121CA4D4
:1024E30080097C087D0079001214A602334574F636
:1024F3001203687900EA4B6018780088081259F5CE
:10250300EB125D7E60047901780808E8C394084003
:10251300EA02372E74F712036874F31208DBECFE39
:10252300EDFF851882851983E4F004120A9DEAF011
:10253300A3EB124EAE7403120A9DAC82AD83EEFA86
:10254300EFFB120AF2EEFAEFFB120AF802367D7481
:10255300F712036874F31208DBECFEEDFF851882B3
:10256300851983E4F0EAFCEBFD7403120A9D12283B
:10257300F07401120A9D1237198E828F8312372548
:1025830074FE68700374FF69600479018002790046
:1025930002367D74F7120368EAFEEBFF1225F4702E
:1025A300141225FF8E828F83E0F4F88A828B83E0F6
:1025B30058F0120ACEA90802368274F7120368EAA9
:1025C300FEEBFF7508008E828F83E060221225F4F4
:1025D300701D1225FF8A828B83E08F838E82F8E041
:1025E30058700CE0F88A828B83E048F0120ACE80A0
:1025F300C4120AD4E9F50874016508221266BE12F2
:102603002807122749FAA3E039FB2274F41203685E
:102613008A088B097C007D001226AE1227DD122763
:102623006E1266B07900850882850983A3E064FE93
:102633007003A3E0F460717E007F008062EEFAEF26
:102643001222D46057EEFAEFFBEA75F00BA4FAA856
:10265300F075F00BEBA428FB900336E02AF50AA3F0
:10266300E03BF50B850882850983A3124DFC850A9F
:1026730082850B83A3E06A7003A3E06B701EE50AF7
:102683002403FAE50B122759700AE50A2403FCE533
:102693000B1227DA12276279011256C412304D1237
:1026A30026B6EE9AEF9B40950238CFEA24030A0A36
:1026B3000AEB2290033412529BC32274F312036871
:1026C3008A088B098A828B83A31266B312275D1251
:1026D30066B0750C001226AE12275970547E007F27
:1026E30000804912273BFAA3E0398A82F583E0543C
:1026F3000F603612273BF50AA3E039F50BE50A24F0
:1027030003FCE50B1227E43400FB121C9EE9640171
:102713007017850A82850B83A312535CA312372596
:10272300122762750C011256C412304D1224CC408C
:10273300B2A90C7F05020581EEF8EFF9E875F00BFD
:10274300A4F812274922AAF075F00BE9A42AF990FC
:102753000336E02822EF122830221266C4EB22123D
:10276300276E1256BFEEF0A3EFF022E5081266C5FE
:10277300E5092274F5120368EAFEEBFF8E828F836C
:10278300A31266B37C007D00EE24030A0A0AEF124B
:1027930027DDEEFAEFFB120AD4E9F50A7401650AA4
:1027A30070291266BE122803AAF075F00BE91228ED
:1027B30015850882F5831227EF122820700DE5088E
:1027C3002403FCE5091227D11227DD02247D3400FE
:1027D300FDEE2403FAEF221227E43400FB120AF27F
:1027E300223400FDE5082403FAE50922A31227F4A5
:1027F300221227F822E0F8A3E0F98E828F83A32226
:10280300122807223400F5831240F0E875F00BA478
:10281300F82212274FF508A3E039F50922E8F0A3BF
:10282300E9F0E5082403FAE50912283022122836D4
:102833006401223400FB120AF8E92274F3120368DC
:1028430074E61208DB1266A9750C01750800750998
:1028530000750A00750B00851882851983E4F0EE74
:102863002403FCEF3400FD7403120A9D1228F0E9DF
:1028730064017023740B120A9D12371D7401120A2E
:102883009D124E007003A3E069605185188285197B
:1028930083858208858309740D120A9DE41228F743
:1028A300740E120A9D123725740D120A9DAA82AB6B
:1028B30083120B16E96401700B740D120A9D858255
:1028C3000A85830B780A120834AC08AD09EEFAEFD7
:1028D300FB120AE67402120847E9F50CEEFAEFFB65
:1028E300120B10A90C741A120847022736122BC3B5
:1028F300120B1C2212368D1240EC22C082C0837848
:1029030000790080031229EE1226B6E89AE99B505B
:1029130029E8FAE9FBEA75F00BA4FAACF075F00BC1
:10292300EBA42CFB900336E02AFCA3E03B8C82F55E
:1029330083E0540F70CF790080027901023345C0E0
:1029430082C08390226C124142EC75F012A4FCA861
:10295300F075F012EDA428FD79FF7A237B0B121496
:10296300A602334574F7120368E9FEEAFF7A007B97
:1029730000780079008028E8FCE9FDEC75F012A4EA
:10298300FC85F00875F012EDA42508122E03C39EF2
:10299300400AE0FCEFC39C4003122F221229EE12DF
:1029A3002DF740D3023682C082C08378007900803D
:1029B300031229EE1229E2501F122E07F470F2E8D7
:1029C30075F012A4F8AAF075F012E9A42AF9742399
:1029D30028FA740B39FB80047A007B00023345909C
:1029E300226C122EB8C3E89AE99B22E8240108E975
:1029F3003400F92274F012036874F31208DB8A0AB4
:102A03008B0B8C0C8D0D8908EC450D6016AA0CAB55
:102A13000D120B6A8A0E8B0FAE0EAF0FEE4F6003D3
:102A2300022AB5120B408A0E8B0FA80EA90FE8FEDF
:102A3300E9FFE849607C90227A122B176022740325
:102A4300650860067404650870167A047903120B2E
:102A53003A90227A122B2E40077A007B00022B1425
:102A6300902278122B17601B7401650860067402AC
:102A73006508700F7A027901120B3A902278122BB3
:102A83002E50D68518828519837401F0120A9D127F
:102A93005128AC0CAD0D7403120A9D122BBC740BA0
:102AA300120A9D123510123B05E412511012103216
:102AB3008004EE4F604A780074FF2508C3940450E5
:102AC3000278048E828F831251288E828F83A3A370
:102AD300A3A3E508F0E88E828F83A3A3A3A3A31285
:102AE3005130120217122ECF8E828F83A3A3A3A37A
:102AF300A3A3A3F0122EC6120A7A1256A8120A86AC
:102B0300122B1C400590107FE4F0120F0CEEFAEF2D
:102B1300FB0240F612524A49227A047900120B3A18
:102B230090226C125D64EA98EB9922122B4775830D
:102B33002275826CE493C398F8A3E49399F9C3EAEA
:102B430098EB9922E493F8740193F92274F2120337
:102B53006874F31208DB8A088B09ECFEEDFF750A33
:102B630000EEFAEFFB120B6A8A0C8B0DA80CA90D71
:102B7300E849603E88828983E065087004A3E065C4
:102B830009602F88828983A3A3A3A3E0C39405507C
:102B9300211255568518828519837401F0120A9DF6
:102BA30012555AEEFCEFFD7403120A9D122BBC75ED
:102BB3000A01A90A740D024BF4122BC3120B28222B
:102BC300AA82AB83120AF2851882851983AA82AB83
:102BD300832274F6120368122C11600FA3A3A3A31C
:102BE300E014C39404500479018002790002372E63
:102BF30074F6120368122C11600FA3A3A3A3E014AD
:102C0300C39402500479018002790002372E120B1B
:102C1300648A828B83E58245832274F612036812E9
:102C23002C11600BA3A3A3A3E070047901800279A4
:102C33000002372EC082C083EAFCEBFD7A007B00E2
:102C4300023342C082C0837C007D0002334274F4AD
:102C530012036874F31208DBEAFEEBFF8C0A8D0B98
:102C6300C3EC94F8ED94FF4007EE4F7003022D0A76
:102C7300750800750900802E8518828519837401F3
:102C8300F0123075120A9D12308360137403120A16
:102C93009DAC82AD83EEFAEFFB121C9EE97049E511
:102CA300082401122EA390226CE4125252E50898D4
:102CB300E509995052E50875F012A4F8AAF075F0E9
:102CC30012E509A42AF9125D9760D4EE4F70A97436
:102CD300FF650A700474FF650B60C4123065650AF2
:102CE3007004A3E0650B70B7E50875F012A4F5084E
:102CF300A8F075F012E509A428F50974232508FA4C
:102D0300740B3509FB80047A007B000238CA74F423
:102D130012036874F31208DB750800120B6A8A0A3F
:102D23008B0BAE0AAF0BEE4F602A85188285198391
:102D33007401123687F8A3E0F9740B120A9D123757
:102D4300A8120B0A7C127D0079FFEEFAEFFB121436
:102D5300A6750801122B1C500990107F7401F01204
:102D63000F0CA9080238CA74F7120368E9FE74FE4F
:102D73006A700374FF6B7800790070058052122922
:102D8300EE122DF7504AE8FCE9FDEC75F012A4FCB5
:102D9300AFF075F012EDA42F122E03F460E0E8FCFF
:102DA300E9FDEC75F012A4FC75F012EDA42FFD748F
:102DB300232CF582740B3DF583E06A7003A3E06B6B
:102DC30070BC8009122E0714C3940440171229EE15
:102DD3001229E25018EE70EC122E0764016005E030
:102DE300640370E9123056FAA3E0FB80047AFE7B99
:102DF300FF02368290226C124146C3E89CE99D2271
:102E0300122F5722E8FAE9FBEA75F012A4FAACF0A4
:102E130075F012EBA42CFB74272AF582740B3BF597
:102E230083E022120B7C023345C082C08379018088
:102E3300F274F01203688A0A8B0B7A047901120B7D
:102E43003A8A0C8B0DEA450D603EEAC333FAEB3345
:102E5300FB1215428A088B09AE08AF09EE4F6023B7
:102E63007AFE7BFF120B8274FE6A700374FF6B6041
:102E73001B850882850983123692E5082402122EE7
:102E8300A380E1750C0080047E007F00850A8285A3
:102E93000B83E50CF0EEFAEFFB0240FBE508240799
:102EA300F508E5093400F5092290226C124146C366
:102EB300EA9CEB9D22E493FA740193FB2212149A89
:102EC3007403221256B9E4F09087BF22E88E828FF2
:102ED30083A3A3A3A3A3A3A3A3122EF17401122E6E
:102EE300F1A3F0EE24101256BCE4F0A3F022123B3F
:102EF30011A3A3A322C082C0837A007B008004199C
:102F0300122F22122EAC5010122F41C3940550F0F1
:102F1300E970EC122F2B80047A007B00023345EA20
:102F230024010AEB3400FB22EA75F012A4FA75F0CF
:102F330012EBA428FB74232AFA740B3BFB22EAFC52
:102F4300EBFDEC75F012A4FCA8F075F012EDA428CB
:102F5300122F5722FD74272CF582740B3DF583E065
:102F63002274F712036874F31208DB7E007F0002F9
:102F73003009E50875F017A4F8A9F0125FF8FAA371
:102F8300E0FBEEF8EFF9E875F012A4F8ACF075F099
:102F930012E9A42C1230646A7003A3E06B603FE56E
:102FA3000875F017A4F8AAF0EA125FF7F8A3E0F99E
:102FB3007401120A9DE0687003A3E0696020E508CC
:102FC30075F017A4F8EAF9749F28FC740C39FD74A2
:102FD30003120A9DAA82AB83121C9EE96014E508C2
:102FE30075F017A4F8A9F0749D28FA740C39FB1234
:102FF300103E050890227EE493F8E508C398500339
:10300300022F7512304D90226C12633E5039EEF848
:10301300EFF9123056F47003A3E0F460E6851882EA
:103023008519837401F0EEF8EFF9E875F012A4F84E
:1030330075F012E9A42AF9123075120A9D12308331
:1030430060C175080080AD02367DEE24010EEF34B9
:1030530000FF22E875F012A4F8AAF075F012E9A4B3
:103063002AF912306922742328F582740B39F58307
:10307300E022742528F582740B391240EA740B227E
:10308300E8F0A3E91237B0120B22E922C082C08311
:1030930090034174E0F0A3740DF002334574F7120A
:1030A3000368EAFEEBFF900377E06408601BE064CB
:1030B3000460168E828F83E05403640170481235D6
:1030C30003123BFBE06406703D8E828F83A3A3E073
:1030D30064FE7003A3E0F4602D8E828F83A3A3129A
:1030E3003719900368E0687003A3E069700BEE245E
:1030F30015F582EF125D7E6008120E9AE9F50880DD
:1031030008120EA080F67508C2EEFAEFFB121548FE
:103113000225B874F41203688A088B098A828B83A8
:10312300E0F8A3E0FAE82AFAE43400FB1215428A35
:103133000A8B0BAE0AAF0BEE4F60638508828509DD
:1031430083E0FC7D0079001214A68E828F83A3A3F3
:103153001266B3120EDC8E828F83A3A3A3A312364F
:1031630092850882850983E0F8EE28F8EF3400128F
:103173003721850882850983A3E0C0E0EE240D1280
:1031830056ABD0E0F0120EEEEE240E1256ABE9125F
:103193004D5DE0C0E0EE24111256ABD0E0F0EEFA44
:1031A300EFFB0238CF74F412036874EB1208DB8A66
:1031B300088B098C0A8D0BE9FE900377E0640460A9
:1031C30005E06408700479C2802EA37808120A5EB1
:1031D300EE90037E123383120A5E7405120A9DE990
:1031E300F07404120A9D7401F07407120A9DE4F04E
:1031F30090037774021232E074150238CC74F6121D
:10320300036874EB1208DBEAFEEBFF12497F6003ED
:103213000232A47A077B00121542900339123692C8
:1032230012497F60788E828F83120A7A90033A1252
:103233003BFE120A86126577C0E01232B0D0E0F08E
:10324300EE2405FAEF3400FB8A088B098A82F583A2
:10325300E0C0E01232ABD0E01238C6E0C0E0123278
:10326300ABA3D0E0123706120A7A85188285198338
:10327300120A8688828983E0C0E07405120A9DD011
:10328300E0F0850882850983E0C0E07404120A9D9A
:10329300D0E0F07407120A9D1232DF8006791080A5
:1032A300027901741502372B1232B0A3229003392D
:1032B300E0FAA3E0F5838A82A3A3A3A322C082C07A
:1032C3008312497F600D900339125289900339E4C8
:1032D300F0A3F0120E0A120FDE023345E41237B0E8
:1032E300121CD422C082C083900338E070031217EB
:1032F300DC120BC4804CC082C083900338E0901072
:103303007E7004E4F0802D7401F0900338E0F460E3
:10331300237C41E0C394415002E0FCECF8E0C39805
:10332300F0EC75F0E8A4CCA8F075F003A428FD7ABE
:103333008012414E7A7E7B107941121CBC800312AD
:103343000B70D083D0820207F974F412036874EB14
:103353001208DB8A088B098C0A8D0B9003777401A2
:10336300123383120A5E7405120A9DE9F074041283
:103373000A9D7403F07407120A9D1232DF0231FBB7
:1033830012371178082274F71203687C01120BD6E6
:1033930002368274F212036874FC1208DBE98518A2
:1033A30082851983F0EAFEEBFF8C0A9003751244C1
:1033B30034120DFE8A088B09EA4509700579CA02A1
:1033C30034FE8A828B83A3A3A3A3A3A3A3E064FEF7
:1033D3007003A3E0F4700579C30234FE9003751201
:1033E3004DFC121044850882850983A3A3A3A3A3DC
:1033F300A3A3A3A3A3E0049003881236617402126B
:103403000A9D7402F014120A9DAA82AB83120F481C
:103413008A0C8B0DAE0CAF0DEE4F70030234F51218
:103423003503123D707406F0A3A882A9839003624A
:103433001252C61240C9F0EE24131256AB74011295
:1034430051087440F0A3E4124D56A3A31235101291
:103453003725EE24111256ABE50AF0EEFAEFFB1214
:103463000BA0E9FE60030234F79003777409F012AE
:103473002E9FAA08FB794B121CBC85088285098301
:1034830012365312372590036AE0F885188285199E
:1034930083E068600CE090036A1237AC79E1121C98
:1034A300BC9010B91237199010BBE0687003A3E009
:1034B30069601A90033B1237259010BB124DFC1222
:1034C3000F069010BB1244347A0112414E7A007BEE
:1034D300049003C2E0F91216029010BB123508746F
:1034E3000278081209DCAC08AD09FA7B04124150DA
:1034F30080027E1090054EE4F0EEF97404024BF462
:10350300EE1256BA22E0F508A3E0F50922123514AB
:10351300221227F8A32274F512036874E21208DB5F
:10352300851882851983ECF0A3EDF0EAFEEBFF89A1
:10353300087429120A9DE0F509742C120A9DE0F51E
:103543000A900377E064046005E06408700579C2BB
:1035530002364B742A120A9DE064FE7003A3E0F462
:10356300700579C302364B90037774031237AC7935
:1035730050121CBC742A120A9DAA82AB83794B1287
:103583001CBC85188285198312365A123725E50823
:1035930090036AF0742A120A9D123653123725E5F6
:1035A3000990036212366174CE55094480C0E074F9
:1035B30012120A9DD0E0F07401250A900388F0747A
:1035C3000F120A9D7402F0742A120A9D123719749D
:1035D30007120A9DE8F0A3E91236987410120A9DA7
:1035E3001237257405120A9DE508F0741B120A9D13
:1035F300E4F090037D740FF07A7D7B037954121C01
:10360300BC90037C740FF07A7C7B037947121CBC5B
:1036130090037CE0C3940F50237405120A9DE0C00D
:10362300E07402120A9DD0E0F07404120A9D740142
:10363300F004120A9DAA82AB83121CE07405120ADD
:103643009DAA82AB83121CC2741E12084702247FF8
:103653001240EC90036B221240EC90037522F0EEC3
:10366300FCEFFD7A897B03121CA42274F712036812
:10367300EB90037FF0120DEC8005740D1208477F69
:103683000102058112368DA3E022123706A322EA36
:10369300F0A3EBF02212370CF8A3E0F92274F7122F
:1036A300036874F81208DBEAFEEBFF7900900377F6
:1036B300E06408704485188285198374FDF0A3744F
:1036C300FFF0120ED67402120A9D1236927405127E
:1036D3000A9DE412368DE0C0E07404120A9DD0E026
:1036E300123701C0E07406120A9DD0E0F07407128D
:1036F3000A9DE41237AC120F2A740802367F123780
:1037030006E022F08E828F8322123711E022F085A9
:103713001882851983221240EC22E0F8A3E0F91203
:1037230056B9E8F0A3E9F0221208477F02020581A7
:10373300C082C0839003497490F0A3740CF090038B
:10374300EF7484F0A3740FF090034D74C6F0A37468
:103753000CF090034F7490F0A3740CF09003517429
:10376300CCF0A3740CF002334574F412036874F9BB
:103773001208DB8A088B098C0A8D0B851882851940
:10378300837808120A5E7404120A9DE9F074051224
:103793000A9DE4F07406120A9DE41237AC120BB2D0
:1037A30074070238CCE8F0A3E91237B022123711BC
:1037B300AA82AB832274F41203688A088B098A8273
:1037C3008B831256C7EE4F70030238C49003121254
:1037D300498260158A828B83A3A3E0F9EEFAEFFB9B
:1037E300900313123BFE121E898E828F83A3A3A321
:1037F300A3A3A3A3A3A3E0640270748E828F83A305
:10380300A3A3A3A3A3E054027003023896850882FE
:10381300850983A3A3E064E960798E828F83A3A3E0
:10382300A3A3A3A3A3A3A3A3E070149010CEE004C7
:103833008E828F83A3A3A3A3A3A3A3A3A3A3F08E87
:10384300828F83A3A3A3A3A3A3A3A3A3A3E014127D
:1038530038C6A3A3A37404F09010CF125102E8F06A
:10386300A3E91261DB8B0BEA450B7003125BB98E84
:10387300828F83A3A3A3A3A3A3A3A3A3E064026050
:10388300128E828F83A3A3A3A3A3A3A3A3A3E06402
:1038930006702E8E828F83A3A3A3A3A3A3E0A2E02B
:1038A300501F850882850983A3A3E0F9EEFAEFFB95
:1038B300121D708E828F83A3A3A3A3A3A3E054FE40
:1038C300F08009123B0D22740D1208477F04020594
:1038D3008174EC12036874DD1208DBEAFEEBFF8CE3
:1038E300088D097437120A9D780C120A40750A0074
:1038F3007405120A9DAC82AD831214467412120A27
:103903009DE070087415120A9DE060207405120A88
:103913009DE0A2E6501E8E828F83A3A3A3A3A3A33D
:10392300A3A3A3124DFC120F60E960087903121CD4
:103933008C023AF37405120A9DE0540C640470057A
:10394300750B018003750B00E0A2E55035750A0184
:10395300E50BA2E0402C120EDC8A108B11A810A9F3
:1039630011123503E0687003A3E069601574051252
:103973000A9D1266BA124DF8121D7CE9600479049F
:1039830080AC7405120A9DE0A2E650227406120A66
:103993009DE0540370187405120A9DE0540C640CE6
:1039A300600CE0540C640860057510018003751009
:1039B300007405120A9DE05403F8740268700C1237
:1039C30066BA124DF8120ABC023AF3740168703AEF
:1039D300E510A2E05003123AFB7405120A9DA88277
:1039E300A9837403120A9DE8F0A3E91240E0851845
:1039F30082851983123B05E0C0E07402120A9DD050
:103A0300E01237AC121E60023AF3E86003023AF3A5
:103A130090035FE0640170108E828F83A3A3A3A33E
:103A2300A3A3E070030239817422120A9D74021267
:103A330040E0741A120A9D123725E510A2E05008DF
:103A43007405120A9D123AFBE50BA2E0506AEE24BC
:103A53000FF582EF125D7EC0E07417120A9DD0E06D
:103A6300F09003141249827003023AF3120EDC8AB7
:103A7300128B13A812A913741A120A9DE06870031B
:103A8300A3E069706B780C12082C780A1208387856
:103A930008120834A910740C120A9DAC82AD837409
:103AA30021120A9DAA82AB83900314123BFB121EC0
:103AB3008974071208478038780C12082C780A1288
:103AC30008387808120834900375120650EE241251
:103AD300F582EF125AAC7423120A9DAC82AD837443
:103AE3000E120A9DAA82AB83121D64740912084741
:103AF30074231208470261A61266BA125297120A79
:103B0300B022E8F0A3E9123B0D22123B1122F08E02
:103B1300828F83A3A3A3A3A3A32274F71203681220
:103B230016CE02368274F71203681216E00236824A
:103B3300C082C0831216DA02334574F71203681287
:103B430016E602368274F71203687409120A9DE0BE
:103B5300F50878081208381216F2740102367FC08D
:103B630082C0831216FE023345C082C0831217043B
:103B730002334574F712036812170A02368274F788
:103B8300120368EAFEEBFF89087401650870147973
:103B930000120D08902289E493FC7900EEFAEFFB02
:103BA300120C7E02368274F412036874F91208DB75
:103BB300E9FE8A088B098C0A8D0B7413120A9D1275
:103BC3004DFC90059A1249826027EE85188285196B
:103BD30083F07401120A9D7808120A5EEAF8EBF981
:103BE3007405120A9D1237A890059A123BFB121E08
:103BF300890237A3FB90034BE0F8A3E0F5838882A7
:103C03002274F7120368901081E0F97E00800B1292
:103C13005D6A540D64017001190E123DFE5003E9F3
:103C230070ED02368274F7120368901082E0F97E19
:103C330000800B125D6A548D64817001190E123D70
:103C4300FE5003E970ED02368274F2120368890BA9
:103C5300E975F006A4240CF508E5F0122EA78A0CEA
:103C6300E508250CFAE5093400FB1215428A0C8B92
:103C73000DAE0CAF0DEE4F6027AC08AD0979001205
:103C830014A6123503E50BF0EE2508F8EF3509F914
:103C93008E828F83A3A3A3A3A3A3A3A3A3123725D6
:103CA300EEFAEFFB024BF774F6120368EAFEEBFF42
:103CB300120C5A901080E0F8E9C39840099003452C
:103CC300124DFC120C60EE2402F8EF12540C900318
:103CD300471252C6900347E004F0EEFAEFFB120CD2
:103CE30066850882850983E00258C2C082C0837951
:103CF30000900345800109124DFC8A828B83E58283
:103D0300458370F202334574F7120368EAFEEBFF52
:103D1300EE4F6056900345124982604E8882898334
:103D23007A007B00EE65827003EF6583600FAA82E1
:103D3300AB83123D70E5824583602F80E790034596
:103D4300123D7C687002EF698E828F837008123790
:103D53001990034580031261B8123725EEFAEFFB81
:103D6300121E30EEFAEFFB121548023682123D7432
:103D7300221240F088828983221240ECEE22C08214
:103D8300C083900345800488828983124982600B33
:103D930088828983124434EC4D70EC8A828B83E4ED
:103DA300F0A3F0E849600688828983800390034585
:103DB30012369202334574F7120368900345800468
:103DC3008A828B83123DF94B60257E0080010E129F
:103DD3003DFE50ECEE75F006A4FCADF0EA2CFCEBD6
:103DE3003DFDEC2410F582ED123E4E70E180047A25
:103DF300007B0002368212529BEA22123E57EEC328
:103E0300982274F71203687D0080010D123E53ED72
:103E1300C3985034ED75F006A4FEA8F0E8FFEA2E2F
:103E2300FEEB3FFFEE2410F582EF123E4E70DCED09
:103E330075F006A4FEE8FFEA2EFAEB3FFBEA241135
:103E4300F582EB125D7E4CF0023682125D8A6922A6
:103E5300123E57221266C4EB3400F583E0F8227455
:103E6300F6120368120D807A007B008025EAF8EBD6
:103E7300F9E875F006A4F8ACF075F006E9A42C1285
:103E83005270126585A3E4125366F0A312658B1278
:103E93006702902274122B2640D37A007B00801C89
:103EA3008A088B09740378081209DC124D24A37461
:103EB300FEF0A304125146A3E412670290227D127E
:103EC3003F0140DC7A007B00801D8A088B09740364
:103ED30078081209DC74C51259F6740F12623D7426
:103EE300FEF0A304126702902283123F0140DB908D
:103EF3002287E493900353F0123F0B02372EE4938F
:103F0300F8C3EA98EB9400227CE87D037A107B00E7
:103F13009003C2E0F91215FC2274F012036874F5E1
:103F23001208DB8A088B09890A8C0BE9A2E050147A
:103F33007508FC7509FFA2E15005D2E4023FDED209
:103F4300E3023FDE124BE37003A3E06970057900DF
:103F53000240ABAC0A7902AA08AB09120D5CE96016
:103F6300EDE50AF50C780C12083879027CFE7DFF2A
:103F7300AA08AB0912495E120847E960030240A987
:103F8300E50AC2E5F50A9003B5E07051E50AA2E639
:103F9300404B7403120A9DAC82AD83AA08AB09128D
:103FA3000AFEE9703212427F8A0C8B0DA80CA90D10
:103FB300E8FEE9FFE8496025EE24020A0AEF122829
:103FC30036601AEE2402FCEF3400FD7403120A9DDE
:103FD300AA82AB83121CA4E50AD2E5F50A90034832
:103FE300E0F50C900368E0F50EA3E0F50F780E12F0
:103FF30008347D017C00900348E0F9AA0EAB0F1250
:104003000D147402120847E9F8900348E004F0E83D
:1040130060030240A9E50AA2E55004740E8002740D
:1040230006C0E07401120A9DD0E01256D88A0E8BA6
:104033000FAE0EAF0FEE4F60691240C91240E08819
:104043008289837401F07478550AA31266CAE50C59
:104053001266CAA3E508F0E5091240B8E4F0E50AE0
:10406300A2E5500F7403120A9DAC82AD83E82406C7
:104073001240AF8E828F83A3A374FDF0A374FFF06D
:10408300E50B601590228AE493F8E50BC398500979
:10409300EE24131256ABE50BF0EEFAEFFB120BA076
:1040A30080067910800279C7740B8049FAE93400DD
:1040B300FB121CA42288828983A3A3A3A31240C456
:1040C3002212543FA322EE24171256BC7401F0129D
:1040D3000ED6EE241A1256BCEAF0A3EB22F01266B7
:1040E300BE34001240EA22F5831240F022E0F8A326
:1040F300E0F922740D1208477F0802058174F61255
:1041030003687A007B10125BC660089003D47401C5
:10411300F08029900639E064019010CC7006E0FC31
:1041230079018004E0FC79037A007B00120C7E9015
:1041330022721241427A007B1012415002372E1232
:10414300414622E493FC740193FD227B009003C259
:10415300E0F91215F62274EC1203688A088B098CB5
:104163000C8D0D890E7414120A9D124B3D74161298
:104173000A9DE0F510A3E0F511120F60E960077ADC
:10418300FF7BFF02427C9010CBE06402600302429B
:104193006F7900AA08AB09120D62A90E120D568A97
:1041A300128B13AE12AF13EE4F70030242578E827F
:1041B3008F83A3A3A3A3A3E064018E828F83A3A30E
:1041C3007069124DFC8E828F83A3A3A3A3A3A3E0E4
:1041D30054186043902288E4938E828F83A3A3A311
:1041E300A3F0EA650C7003EB650D6014EA650A70D1
:1041F30003EB650B600AEA65107003EB6511701F32
:104203007810120834AC0AAD0BAA0CAB0D12105C7B
:1042130074021208478008900367125BB0A3F0741E
:10422300FE6A700374FF6B601D804EA3A3A3E0645A
:104233000360298E828F83A3A3A3A3A3E0640470E6
:10424300057AFE0241848E828F83A3A3A3A3A3E0F6
:10425300640270089003B4E06402701012427F8B12
:104263000BEA450B6006AA08AB09800DAA08AB0947
:10427300900349123BFB121E890261A6900375123B
:1042830049641210202274F7120368EAFEEBFF124E
:104293000B52E9700AEEFAEFFB120B5EE96006EED1
:1042A300FAEFFB80047AFE7BFF02368274F012037E
:1042B300688A0A8B0B8C0E8D0F8909750800120F03
:1042C30060E979006003024426AA0AAB0B120D626F
:1042D300A909120D568A0C8B0DAE0CAF0DEE4F6073
:1042E300198E828F83A3A3A3A3A3E06402705590C6
:1042F30003B4E064027003024424AA0AAB0B9003E4
:104303004F123BFB121E89120B648A0C8B0DA80CF7
:10431300A90DE849700302442488828983A3A3A3D7
:10432300A3A3E0A2E04003024424750C01A2E150E0
:10433300687901AC0AAD0BAA0EAB0F120CAEE97093
:10434300640244248E828F83A3A3A3A3A3E0640304
:104353007005750C0280528E828F83A3A3A3A3A33F
:10436300E0640160030244249003751244348E8296
:104373008F831247898A0C8B0DA80CA90DE849601D
:10438300D1902281E493FA88828983E0C39A50C250
:10439300A3E0600302442480B988828983A3A3A392
:1043A300A3A3D2E1F0EE4F603A8E828F83A3A3A33F
:1043B300A3A3A3E05418602B7508018E828F83A3F7
:1043C300A3120650750CFE750DFF780C1208347994
:1043D30000AC0AAD0BAA0EAB0F120D7474041208D5
:1043E30047803E900368E0650E7004A3E0650F709C
:1043F30014902289E493FCA909AA0AAB0B120C7E40
:10440300750801801CA90CAC0AAD0BAA0EAB0F12E8
:104413000CAEE9700C750801A909AA0AAB0B120DC1
:1044230008A9080240FBE50C2415F582E50D125698
:10443300BF12511C2274EA12036874F01208DB8A5B
:104443000C8B0D8C088D097426120A9DE0F514A3BC
:10445300E0F5157512069003F51249826023900367
:1044630075124434AA08AB0912104A8A108B11EA58
:104473004511600D8A828B83A3E0700579000247A2
:1044830071E50C241DF50EE50D3400F50F850E8244
:1044930012496EF51388828983A3A3A3E0FA888265
:1044A3008983A3A3A3A3E0F9EA2400FEE439FFAAC6
:1044B30008AB09120D0E850E82850F831247ACE0FF
:1044C30029F50BE50AA2E5500375120E7487550A08
:1044D30070177418550A6418600FE50C2417F582D9
:1044E300E50D125D7E651260077901121C8C808CCC
:1044F300530A78C3EE94F8EF94FF501D7900EEFA57
:10450300EFFB12477B601288828983A3A3A3A3A333
:10451300A3E05418600302447F78081208347D0036
:1045230012479F120847E9F8740368700302447F37
:10453300E860030245EA7418550A700302469FE5D2
:104543000AD2E0F50AA2E45004D2E1F50AA90A125C
:104553004DF512477B605388828983A3A3A3A3A34A
:10456300A3E05418604488828983A3A3A3A3A3E090
:1045730064017036E51045116030900375124434C0
:10458300888289831247898A0E8B0FA80EA90FE8A8
:1045930049601788828983A3E0600F8510828511A3
:1045A30083A31258CD500302447FE50AF50E780E1B
:1045B300120838124792120847E9702B7C007D00DD
:1045C30085148285158374FFF0A3F0850C82850D15
:1045D30083A3A3A3A3A3A3A3A3E06003124429A9D2
:1045E3000B124DF51216F8851482851583E0F470CD
:1045F30003A3E0F460399003B4E06402700302445F
:104603007F124B2EE0FAA3E0123BF7121E89EA65F4
:10461300087003EB6509600302447FEEFAEF123B77
:10462300F7121E89851482851583EAF0A3EBF078CF
:10463300081208347D0112479F120847A90AEEFAAF
:10464300EFFB120D628A088B09A808A90990036879
:10465300E0687003A3E0696003024762EEFAEFFBD0
:10466300120B648A088B09A808A909E849606E88B7
:10467300828983A3A3A3A3E06401600D8882898355
:10468300A3A3A3A3E064027054851882851983ACA5
:1046930082AD83EEFAEFFB120AFE8055900361E0D0
:1046A300600FE50AF50E780E1208381247921208C9
:1046B30047E50AF50E780E12083879027CFE7DFF75
:1046C300EEFAEFFB12495E120847E960030245EA7E
:1046D30085148285158374FFF0A3024631120ED62A
:1046E300EAFCEBFD851882851983AA82AB83121C31
:1046F300A4850C82850D83A3A3A3A3A3A3A3A3E0F3
:104703006401700F1244297408120A9DAA82AB83B4
:10471300121CA41249381255444430F50878081283
:1047230008387401120A9D85820885830978081266
:104733000834740B120A9D85820885830978081250
:104743000834E513F50878081208387900EEFCEF11
:10475300FD124DF5120CA8740612084702447F128D
:1047630049381256AE1247ACE50BF0120EEE741038
:104773001208477F0E020581120D568A0E8B0FA871
:104783000EA90FE84922A3A312529B12104A2279C1
:1047930001AC08AD0912529012495E22AC0BA91369
:1047A300125290120D1474022212554CA3A3A3A308
:1047B3002274F012036874F01208DB8A0C8B0DEC80
:1047C300FAEDFB750F089003F51249826014125835
:1047D300C68A828B83E58245836007A3E070030268
:1047E3004933124938340012496EF50B88828983A4
:1047F300124941E0FBEC2400FEE43BFF88828983FD
:10480300A3A3124941A3A3E0FBECF508E43BF5099C
:1048130088828983A3A3A3A3A3A3A3E0F50EE50A38
:10482300A2E45003750F10A2E550067408250FF596
:104833000F748F550A700FE50C2417F582E50D12DE
:104843005D7E650F60087901121C8C024933530A9F
:10485300707800E50AA2E45022124938125D7E24E2
:1048630008FCA3E03400FD7408120A9DAA82AB83FE
:10487300121CA47808E50AC2E4F50AE50AA2E55089
:1048830028124938125D7E28F8A3E03400F9E824A1
:1048930008FCE93400FD851882851983AA82AB835D
:1048A300121CA4E50AC2E5F50AAC0EA90BEEFAEF59
:1048B300FB120D1AE9F87403686075900368E06EE3
:1048C3007003A3E06F605EE87054E50AF50F780F9C
:1048D30012083812494F120847E97054780A12082F
:1048E300387401120A9D85820C85830D780C120899
:1048F30034740B120A9D85820C85830D780C120883
:1049030034E50BF50A780A120838A90EAC08AD098C
:10491300EEFAEFFB120CA874061208478012740417
:1049230068700D80B7780A12083812494F12084789
:1049330074100240F8E50C241DF582E50D22A3A3B3
:10494300A3E0FC88828983A3A3A3A3227901124B4A
:10495300351256BF12496412495E22120CD27401F9
:1049630022E0FCA3E0FDAA08AB0922F583123D7403
:10497300A3E0F50A88828983A3A3E0229003391276
:1049830052F72274E812036874F51208DBEAFEEBAF
:10499300FF8C088D0989147423120A9DE0F50F74A6
:1049A30024120A9DE0F512A3E0F5137426120A9D62
:1049B300E0F516A3E0F5177428120A9DE0F50EA999
:1049C3000F120D208A108B117401120A9D7408F0C6
:1049D300E50EA2E450037410F0E50EA2E55004E0E6
:1049E3002408F0851882851983AA82AB83120F48A5
:1049F3008A0C8B0DEA450D7003024B15EA2417F55B
:104A030082EB124B27120ED6E50C241AF582E50D24
:104A13001256AE1236927403120A9DAC82AD83AA6B
:104A230010AB11120AFEE9601D124B1F7403120A28
:104A33009DA882A983E50C2418F582E50D1256AED4
:104A4300E8F0A3E98024E50EA2E4501FE5106E70A0
:104A530003E5116F7015124B1FE50C2418F582E561
:104A63000D1256AEE512F0A3E513F0124B2E124BC6
:104A73003D850A82F5837402F0A3E50E124B45E5EA
:104A83000FF0EE850A82850B83A3A3A3F0EF850ABB
:104A930082850B83A3A3A3A3124B45A3A3A3E5087A
:104AA300F0E509850A82850B83A3A3A3A3A3A3F03F
:104AB300AA10AB11120D0EE92514850A82850B830A
:104AC300A3A3A3A3A3A3A3F0750800E50EA2E45038
:104AD30011AC12AD13E50A2408FAE50B1240B175C7
:104AE3000808E50EA2E55014AC16AD17E50A250833
:104AF300F8E50B3400F9E824081240AF850C8285F1
:104B03000D83A3A3E510F0A3E511F0AA0CAB0D12DE
:104B13000BA0740B1208477F10020581E50C2416C5
:104B2300F582E50D1256BF7401F022124B35125671
:104B3300BF22E50C1266C5E50D22E0F50AA3E0F5F8
:104B43000B22F0850A82850B83A3A32274F212033E
:104B5300688A088B09ECFEEDFF890A7900124BE3A2
:104B63007003A3E069700479018073750B019003EE
:104B730068E065087004A3E06509601F750B0078A1
:104B83000B120838A90AEEFCEFFDAA08AB09120FB5
:104B93009C7401120847E9F50B80417900EEFAEFA6
:104BA300FB120D56EA4B602B8A828B83A3A3A3A32C
:104BB300A3A3E05418601C7508FE7509FF7808125A
:104BC30008348A828B83A3A31206501264DA120874
:104BD3004780097901EEFAEFFB120C36A90B80141A
:104BE300120D628A0C8B0DA80CA90D900368E06866
:104BF300221208477F0602058174F41203687508C0
:104C03000D75090E7A101261E28B0BEA450B7003E6
:104C1300123F0B900353E014F0700C902287E4933F
:104C2300900353F0120D6E7E007F00806C85088226
:104C3300850983A3A3A3A3E06059F46056E5082480
:104C430004F582E509125BAA704985088285098308
:104C5300A3A3A3A3A3E06403701979028508828543
:104C63000983124434850882850983A3A3124DFC6A
:104C7300120CAE850882850983A3A3A3A3A3E064D2
:104C830001601085088285098374FEF0A304124D28
:104C930056E4F012304D122E9F90227612633E405E
:104CA3008C7E007F008039120E7C8E088F0974037E
:104CB30078081209DC74852508FC740F3509FD7A20
:104CC300BA7B0C120E6AEA4B70DD8E088F097403EF
:104CD30078081209DC124D24126585E4F012304D78
:104CE30090227DE493F8C3EE98EF9400501B8E0856
:104CF3008F09740378081209DC124D2CE82407F598
:104D030082E9125BAA70D680A17E007F00800A121E
:104D13004D37600214F012304D12633B40F10238FC
:104D2300CF124D2C888289832274852508F8740F4D
:104D33003509F922EEF8EFF9E875F006A4F8AAF0C0
:104D430075F006E9A42AF9742528F582740F39F55C
:104D530083E022124D5DA3A3A322F0850882850977
:104D630083A3A32274F712036874E11208DBECFE39
:104D7300EDFF750800EE4F60728A828B83E0241C7E
:104D8300125BDB12498260638A828B83124DFC853E
:104D93001882851983AC82AD83EA241BF582EB125A
:104DA3005AACEA241CF582EB124DF8120EBE740BBA
:104DB300120A9D124E007003A3E069702E74021252
:104DC3000A9DE064017024741D120A9D123BFBE0EE
:104DD30064017017741D120A9D123BFDA3A3E0F832
:104DE3008E828F83E0687003750801A908741F021F
:104DF300367F124B353400F58312529B221227F46F
:104E0300E0682274F4120368E97024790090034D7A
:104E1300123BFB121E898A0A8B0BAE0AAF0B74FE80
:104E23006E700374FF6F701A902284E49360137999
:104E33000190034D123BFB121E898A0A8B0BAE0AAB
:104E4300AF0B120F0C0231A174F612036874F31244
:104E530008DB1214B88A088B09AE08AF09900368FF
:104E6300E06E7003A3E06F60E9120EE2EA6E700277
:104E7300EB6F60DEEEFAEFFB120F60E970D4EE4FDA
:104E830060D0851882851983E4F004120A9DEEF040
:104E9300A3EF124EAEE970BA74FE6E700374FF6F27
:104EA30060B0EEFAEFFB740D02372B1237B0120B22
:104EB3001622C082C083120F0C0233457F0A0205FB
:104EC3008174F2120368EAFEEBFF8C0A8D0B8908EA
:104ED300740E120A9DE0F50974FC6E700374FF6F83
:104EE30070057900024BF77900120D628A0C8B0D65
:104EF300AE0CAF0D900368E06E7003A3E06F700615
:104F0300E509A2E650DCA9091263C8706179007A49
:104F1300FE7BFF1263C87056741855097003024F65
:104F2300FB7800790080031229EE9022761229E59E
:104F33004003024FFBE8FAE9FBEA75F007A4FAAC79
:104F4300F075F007EBA42CFB74132AF582740E3B67
:104F5300F583E0541870D0E875F007A4F8AAF0754B
:104F6300F007E9A42AF9740D28F8740E39F9888238
:104F73008983A3A3A3A3A3A3E054186009741855BA
:104F8300097003024EE588828983EEF0A3EFF07483
:104F9300FE650A700474FF650B6003125122888258
:104FA3008983A3A3A3A3A3A3E509F0A2E0500D88DB
:104FB300828983A3A3A3A3A3A3D2E2F07401650808
:104FC30088828983A3A3A3A3A370387401125146D3
:104FD300E054186028902288E49388828983A3A3ED
:104FE300A3A312511012104A8B0DEA450D60030260
:104FF3004EE57800790080397902024EE790036725
:10500300E080D7E064017003024EE588828983A3C0
:10501300A3A3A3A3A3E054186007902288E493807A
:1050230004900366E01240B8E508F0024EE5122949
:10503300EE90227EE493FAC3E89AE99400400302D7
:105043004EE57A007B00804BEAFCEBFDEC75F00744
:10505300A4FCAEF075F007EDA42EFD740F2CF582C1
:10506300740E3DF5831256C7E8FCE9FDEC75F017A5
:10507300A4FC85F00975F017EDA42509FD749D2C9A
:10508300F582740C3DF583E06E7003A3E06F609EC0
:10509300122F22902276122EAF40AD124142EC6ABB
:1050A3007002ED6B7088E875F017A4F8AAF075F03C
:1050B30017E9A42AF9749D28FE740C39FF7C177D27
:1050C300007900EEFAEFFB1214A68E828F83125141
:1050D30028900375125102A3A3A3A3A3A3E8F0A3EB
:1050E300E91251087401F0EE240E1256AB7401124A
:1050F3005130120217EE240D1256ABE802502D1256
:105103003514A3A322F0EE240F1256BC22F0125141
:1051130019AA0AAB0B22900375E0FCA3E0FD2288D9
:10512300828983A3A3E50AF0A3E50BF022F01251D1
:105133003522902281E4932401F8E43400F97A02C1
:105143007B00221240C4A32274ED1203688A088BE9
:1051530009890E1252794005790502524712174008
:10516300AA08AB0912534B90227412524A650A7073
:1051730003E9650B70077AFE7BFF12534B90227491
:10518300E4125252E50A98E50B9940030252451284
:1051930052566012E50A75F006A4F875F006E50BA1
:1051A3001252A1121548E50E6018E50A75F006A41F
:1051B300F8AAF075F006E50B1252CD701A790102C8
:1051C3005247E50A75F006A4F8AAF075F006E50B58
:1051D3001252AEE4F0A3F0E50A75F006A4F8AAF0C3
:1051E30075F006E50B12526EA312555A8882898315
:1051F300A3AA82AB831252BC8A828B83E0603F12E4
:105203005256603A8E108F117512007810120830C2
:10521300E50EC333FCE433FDE50A75F006A4F50A95
:10522300A8F075F006E50BA428F50B7429250AF5FB
:1052330082740F350B124DFA122EC01208477900F3
:10524300800279070263DE122B47E82290226C1258
:105253005D6522E50A75F006A4F8AAF075F006E587
:105263000B1252A9F8A3E0F9E84922A42A12540226
:1052730088828983A322ECFEEDFF90227FE493F8DA
:10528300E9C39822F58312529B12154822E50C12AA
:1052930066C5E50D3400F583E0FAA3E0FB22125264
:1052A300A9FAA3E0FB221252AEE022A42AF9742940
:1052B30028F582740F39F58322E50EF09010CD1294
:1052C30052C622E088828983F022125426F50CE923
:1052D3003400F50DE50EC333FAE433FB12154285B2
:1052E3000C82850D83EAF0A3EBF0850C82850D8398
:1052F3001252F7221240F0E8492274F4120368ECC8
:10530300FEEDFF740C120A9D1237198808890912E1
:10531300534BAC0AAD0BECF8EDF9902274125353D6
:105323005021E875F006A4F8AAF075F006E91252C8
:105333006EE08E828F8312536612535C1237257987
:1053430000800279040238CF120CE48A0A8B0B2204
:10535300122EB8C3EC9AED9B221240EC850882858D
:1053630009832212543B2274F61203687E007F00E5
:105373008028EEF8EFF9E875F006A4F8ACF075F0C4
:1053830006E9A42CF9742728F582740F125FE96AE1
:105393007003A3E06B605712304D12633B40D3128E
:1053A30063367002E96F704674FE6A700374FF6BB4
:1053B300703C7E007F00800312304D12633B502E01
:1053C300124D3770F3EEF8EFF9E875F006A4F81212
:1053D30053F812542D6017125414F8E912540C8820
:1053E30082125287850882850983E4F0A3F0EEFADE
:1053F300EFFB02372E75F006E912540022A42AF9B6
:10540300742528F8740F39F9223400F988088909BA
:1054130022EEF8EFF9E875F006A4F875F006E91244
:10542300542622125400E8240422A3A374FE125427
:10543300381252F722F0A30412543F22F0888289D3
:1054430083A3A3A3A32274F6120368EA241DF5829F
:10545300EB125544F9604BEA241DF582EB125D7E95
:105463002402FCA3E03400FD12527D4003025537B1
:10547300780080298C828D83E0F508A3E0FFE5089E
:105483002400E43FF509E833FEE433FF746D2EF5A1
:1054930082740F3FF58312555A12553A08E8C3999F
:1054A30040D28A828B83A3A3A3A3A3A3A3A3A31200
:1054B3004434900368E06C7003A3E06D700F7C6D5F
:1054C3007D0F12275D124DF8120CD88067EA241164
:1054D300F582EB125D7E605CFC74FF2CF0750801B5
:1054E300780812083875086D75090F7808120834A2
:1054F300E9F5087808120838EA2412F582EB125D00
:105503007EF5087808120838EA2415F582EB12565E
:10551300AE120650ECF912275D1244318A828B8356
:10552300A3A3A3A3A3A3A3A3A3124DFC120CF074E0
:105533000712084702372EEC24020C0CED3400FD51
:10554300221256BF12554CE022E0F8A3E0F58388FF
:1055530082A32288828983E508F0A3E509F02274F7
:10556300EA12036874FD1208DB8A148B158C0E8D06
:105573000F890D7419120A9D1256C7741B120A9DC6
:10558300E0F511741C120A9DE0F50C741D120A9DBE
:10559300124B3D741F120A9DE0F5106008E50CC321
:1055A30033240480027402C0E07401120A9DD0E027
:1055B3001256D88A088B09EA450970030256A38A52
:1055C300828B83A3A3E514F0A3E5151261D1E50E45
:1055D300F0A3E50FF0EA2413F582EB1256AEE50DC6
:1055E300F0EA2414F582EB1256AEE511F0EA241723
:1055F300F582EB125D7E64017040120EDC8A0E8B25
:105603000FA80EA90F850882850983A3A3A3A3E08E
:10561300687003A3E0696022EE4F6011E508241A65
:10562300F582E5091256AEEEF0A3EF800CE50824EF
:1056330017F582E5091256AEE4F01256B21256C7B8
:105643008E828F837405F0A3E5107004E50C804807
:105653007401250C1256D17A008028850A82850BA5
:1056630083E01256CD850A82850B83A3E08E828F59
:1056730083F0E50A2402F50AE50B3400F50BA30ECB
:10568300AF830AEAC3950C40D2120EDCEA1256CD60
:10569300120EDCEB8E828F83F0AA08AB09120BA0EB
:1056A3007403024773EE240CF582EF1256BF2212E5
:1056B300276E1256BF22EE240BF582EF3400F583DA
:1056C30022900334E0FEA3E0FF228E828F83F0A3B7
:1056D300AE82AF83221237B0120F4822C082C0833A
:1056E300E9C333FCE433FDEA2CFAEB3DFBEA24FE89
:1056F300F582EB34FF124DFA02334574F21203685C
:1057030089098A0A12527940047900804075080099
:1057130080020508E508C39509502AE508C333F854
:10572300E433F9EE28F582EF39F583C082C08312A2
:105733000EDC8A0C8B0DD083D082E0650C7004A341
:10574300E0650D70CDE50A650870BE7901024BF77F
:1057530074F012036874F31208DB8A088B098C0A4D
:105763008D0B890C750D00120F60E979006003023F
:105773005855AA08AB09120D62A90C120D568A0ED0
:105783008B0FAE0EAF0FEE4F70030258538E828F06
:1057930083A3A3A3A3A3A3E0A2E24003025853124B
:1057A3000EDCEA650A7003EB650B7011780D1208C5
:1057B30038E4F50EF50F780E1208348044AA0AABCC
:1057C3000B120B58E964017068851882851983747C
:1057D30004F07401120A9D125128851882851983D9
:1057E300AA82AB83120B16E964017045750D01782B
:1057F3000D120838E4F50EF50F780E120834750D06
:1058030000780D120838780D1208387408120A9DB2
:1058130085820E85830F780E12083490228AE493D2
:10582300F9AC0AAD0BAA08AB09120CF07407120805
:10583300478E828F83A3A3A3A3A3A3E0A2E1400D7A
:105843008E828F83A3A3A3A3A3A3C2E2F0750D014A
:10585300A90D0240F674F6120368E9FE7900120DF1
:1058630062EEF9120D568A088B09A808A909E849BE
:10587300600612670CF98002790402372E74F6125F
:1058830003687E0790035CE070341258C68A088B65
:1058930009A808A909E8496025900361E064018823
:1058A300828983A3A3700B1258CD88828983500108
:1058B300A3A3E0F9121068E9FEEE70027E07EEF989
:1058C30002372E12511912104A22E0FA8882898374
:1058D300A3E0C39A2274EE120368EAFEEBFF890A7F
:1058E3008C0C8D0B7412120A9D1235081259A212D8
:1058F30052805051890E750F007403780E1209DC23
:10590300748B250EF582740F350FF583E0F8E50CE3
:10591300C398502DE50B60247511007403781012A1
:1059230009DC74852510F8740F3511F98882898391
:10593300A3A3A3A3A3A3E50C1259ACF07900024ED1
:10594300BF790380F979007AFE7BFF1259A2E493B1
:1059530065107004790280E6E50B60E0890E750F2F
:10596300007403780E1209DC7485250EF8740F3564
:105973000FF988828983A3EEF0A3EF1259AC125179
:1059830046E50C1240C074FF12658BE50AF09003E4
:1059930066E088828983A3A3A3A3A3A3A3809C1205
:1059A3000D50E9F51090227D221266CEA3E508F092
:1059B300A3E5092274F6120368ECFF120D5090223E
:1059C3007D125280502789087509007403780812E4
:1059D30009DC748A1259F6740F12623DE0F8EFC3C2
:1059E300985006EFF079008006790380027904026B
:1059F300372EEA2508F5822274F4120368EAFEEBD7
:105A0300FF120D50E9F50A90227D1252805019754C
:105A13000B007403780A1209DC7488250AF5827472
:105A23000F350B124DFA801890034B124982600C0C
:105A3300EEFAEFFB123BFE121E8980047AFE7BFF17
:105A43000238CF74F61203688A828B83A3A3A3A3BD
:105A5300A3E4F0F8800108902283E493F9E8C39962
:105A6300501E8808125AA48C828D83A3A3A3A3A3D8
:105A7300A3A3A3E06970DFECFAEDFB120E82801E94
:105A8300E4936870198C828D83A3A3A3A3A3A3A318
:105A9300A3A37406F07A008C828D83125BCF023746
:105AA3002E740D2508F5827410125D8AF92274F4A0
:105AB300120368EAFEEBFF8E828F83A3A3E0141226
:105AC3005BE6A3E0F9120E5E8A088B09EA450970CA
:105AD30003025BA78E828F83A3A3E070358A828B38
:105AE30083A3A3A3A3A3A3A3A3A3E064028A828B98
:105AF30083A3A3A3A3A3A3A3A3A360107406F07A11
:105B0300F08508828B83125BCF025BA77406F002D9
:105B13005BA78E828F83A3A3A3A3A3A3E060738E4B
:105B2300828F83A3A3A3A3E0607AEE2403F582EF1D
